{"abi":[{"type":"constructor","inputs":[],"stateMutability":"nonpayable"},{"type":"function","name":"UPGRADE_INTERFACE_VERSION","inputs":[],"outputs":[{"name":"","type":"string","internalType":"string"}],"stateMutability":"view"},{"type":"function","name":"addMarketsToCollection","inputs":[{"name":"collectionId","type":"uint256","internalType":"uint256"},{"name":"markets","type":"address[]","internalType":"contract ISize[]"}],"outputs":[],"stateMutability":"nonpayable"},{"type":"function","name":"addRateProvidersToCollectionMarket","inputs":[{"name":"collectionId","type":"uint256","internalType":"uint256"},{"name":"market","type":"address","internalType":"contract ISize"},{"name":"rateProviders","type":"address[]","internalType":"address[]"}],"outputs":[],"stateMutability":"nonpayable"},{"type":"function","name":"approve","inputs":[{"name":"to","type":"address","internalType":"address"},{"name":"tokenId","type":"uint256","internalType":"uint256"}],"outputs":[],"stateMutability":"nonpayable"},{"type":"function","name":"balanceOf","inputs":[{"name":"owner","type":"address","internalType":"address"}],"outputs":[{"name":"","type":"uint256","internalType":"uint256"}],"stateMutability":"view"},{"type":"function","name":"collectionContainsMarket","inputs":[{"name":"collectionId","type":"uint256","internalType":"uint256"},{"name":"market","type":"address","internalType":"contract ISize"}],"outputs":[{"name":"","type":"bool","internalType":"bool"}],"stateMutability":"view"},{"type":"function","name":"createCollection","inputs":[],"outputs":[{"name":"collectionId","type":"uint256","internalType":"uint256"}],"stateMutability":"nonpayable"},{"type":"function","name":"getApproved","inputs":[{"name":"tokenId","type":"uint256","internalType":"uint256"}],"outputs":[{"name":"","type":"address","internalType":"address"}],"stateMutability":"view"},{"type":"function","name":"getBorrowOfferAPR","inputs":[{"name":"user","type":"address","internalType":"address"},{"name":"collectionId","type":"uint256","internalType":"uint256"},{"name":"market","type":"address","internalType":"contract ISize"},{"name":"rateProvider","type":"address","internalType":"address"},{"name":"maturity","type":"uint256","internalType":"uint256"}],"outputs":[{"name":"apr","type":"uint256","internalType":"uint256"}],"stateMutability":"view"},{"type":"function","name":"getCollectionMarketRateProviders","inputs":[{"name":"collectionId","type":"uint256","internalType":"uint256"},{"name":"market","type":"address","internalType":"contract ISize"}],"outputs":[{"name":"","type":"address[]","internalType":"address[]"}],"stateMutability":"view"},{"type":"function","name":"getLimitOrderAPR","inputs":[{"name":"user","type":"address","internalType":"address"},{"name":"collectionId","type":"uint256","internalType":"uint256"},{"name":"market","type":"address","internalType":"contract ISize"},{"name":"rateProvider","type":"address","internalType":"address"},{"name":"maturity","type":"uint256","internalType":"uint256"},{"name":"isLoanOffer","type":"bool","internalType":"bool"}],"outputs":[{"name":"apr","type":"uint256","internalType":"uint256"}],"stateMutability":"view"},{"type":"function","name":"getLoanOfferAPR","inputs":[{"name":"user","type":"address","internalType":"address"},{"name":"collectionId","type":"uint256","internalType":"uint256"},{"name":"market","type":"address","internalType":"contract ISize"},{"name":"rateProvider","type":"address","internalType":"address"},{"name":"maturity","type":"uint256","internalType":"uint256"}],"outputs":[{"name":"apr","type":"uint256","internalType":"uint256"}],"stateMutability":"view"},{"type":"function","name":"getSubscribedCollections","inputs":[{"name":"user","type":"address","internalType":"address"}],"outputs":[{"name":"collectionIds","type":"uint256[]","internalType":"uint256[]"}],"stateMutability":"view"},{"type":"function","name":"getUserDefinedCollectionCopyBorrowOfferConfig","inputs":[{"name":"user","type":"address","internalType":"address"},{"name":"collectionId","type":"uint256","internalType":"uint256"}],"outputs":[{"name":"","type":"tuple","internalType":"struct CopyLimitOrderConfig","components":[{"name":"minTenor","type":"uint256","internalType":"uint256"},{"name":"maxTenor","type":"uint256","internalType":"uint256"},{"name":"minAPR","type":"uint256","internalType":"uint256"},{"name":"maxAPR","type":"uint256","internalType":"uint256"},{"name":"offsetAPR","type":"int256","internalType":"int256"}]}],"stateMutability":"view"},{"type":"function","name":"getUserDefinedCollectionCopyLoanOfferConfig","inputs":[{"name":"user","type":"address","internalType":"address"},{"name":"collectionId","type":"uint256","internalType":"uint256"}],"outputs":[{"name":"","type":"tuple","internalType":"struct CopyLimitOrderConfig","components":[{"name":"minTenor","type":"uint256","internalType":"uint256"},{"name":"maxTenor","type":"uint256","internalType":"uint256"},{"name":"minAPR","type":"uint256","internalType":"uint256"},{"name":"maxAPR","type":"uint256","internalType":"uint256"},{"name":"offsetAPR","type":"int256","internalType":"int256"}]}],"stateMutability":"view"},{"type":"function","name":"initialize","inputs":[{"name":"_sizeFactory","type":"address","internalType":"contract ISizeFactory"}],"outputs":[],"stateMutability":"nonpayable"},{"type":"function","name":"isApprovedForAll","inputs":[{"name":"owner","type":"address","internalType":"address"},{"name":"operator","type":"address","internalType":"address"}],"outputs":[{"name":"","type":"bool","internalType":"bool"}],"stateMutability":"view"},{"type":"function","name":"isBorrowAPRLowerThanLoanOfferAPRs","inputs":[{"name":"user","type":"address","internalType":"address"},{"name":"borrowAPR","type":"uint256","internalType":"uint256"},{"name":"market","type":"address","internalType":"contract ISize"},{"name":"maturity","type":"uint256","internalType":"uint256"}],"outputs":[{"name":"","type":"bool","internalType":"bool"}],"stateMutability":"view"},{"type":"function","name":"isCopyingCollectionMarketRateProvider","inputs":[{"name":"user","type":"address","internalType":"address"},{"name":"collectionId","type":"uint256","internalType":"uint256"},{"name":"market","type":"address","internalType":"contract ISize"},{"name":"rateProvider","type":"address","internalType":"address"}],"outputs":[{"name":"","type":"bool","internalType":"bool"}],"stateMutability":"view"},{"type":"function","name":"isLoanAPRGreaterThanBorrowOfferAPRs","inputs":[{"name":"user","type":"address","internalType":"address"},{"name":"loanAPR","type":"uint256","internalType":"uint256"},{"name":"market","type":"address","internalType":"contract ISize"},{"name":"maturity","type":"uint256","internalType":"uint256"}],"outputs":[{"name":"","type":"bool","internalType":"bool"}],"stateMutability":"view"},{"type":"function","name":"isSubscribedToCollection","inputs":[{"name":"user","type":"address","internalType":"address"},{"name":"collectionId","type":"uint256","internalType":"uint256"}],"outputs":[{"name":"","type":"bool","internalType":"bool"}],"stateMutability":"view"},{"type":"function","name":"isValidCollectionId","inputs":[{"name":"collectionId","type":"uint256","internalType":"uint256"}],"outputs":[{"name":"","type":"bool","internalType":"bool"}],"stateMutability":"view"},{"type":"function","name":"multicall","inputs":[{"name":"data","type":"bytes[]","internalType":"bytes[]"}],"outputs":[{"name":"results","type":"bytes[]","internalType":"bytes[]"}],"stateMutability":"nonpayable"},{"type":"function","name":"name","inputs":[],"outputs":[{"name":"","type":"string","internalType":"string"}],"stateMutability":"view"},{"type":"function","name":"ownerOf","inputs":[{"name":"tokenId","type":"uint256","internalType":"uint256"}],"outputs":[{"name":"","type":"address","internalType":"address"}],"stateMutability":"view"},{"type":"function","name":"proxiableUUID","inputs":[],"outputs":[{"name":"","type":"bytes32","internalType":"bytes32"}],"stateMutability":"view"},{"type":"function","name":"removeMarketsFromCollection","inputs":[{"name":"collectionId","type":"uint256","internalType":"uint256"},{"name":"markets","type":"address[]","internalType":"contract ISize[]"}],"outputs":[],"stateMutability":"nonpayable"},{"type":"function","name":"removeRateProvidersFromCollectionMarket","inputs":[{"name":"collectionId","type":"uint256","internalType":"uint256"},{"name":"market","type":"address","internalType":"contract ISize"},{"name":"rateProviders","type":"address[]","internalType":"address[]"}],"outputs":[],"stateMutability":"nonpayable"},{"type":"function","name":"safeTransferFrom","inputs":[{"name":"from","type":"address","internalType":"address"},{"name":"to","type":"address","internalType":"address"},{"name":"tokenId","type":"uint256","internalType":"uint256"}],"outputs":[],"stateMutability":"nonpayable"},{"type":"function","name":"safeTransferFrom","inputs":[{"name":"from","type":"address","internalType":"address"},{"name":"to","type":"address","internalType":"address"},{"name":"tokenId","type":"uint256","internalType":"uint256"},{"name":"data","type":"bytes","internalType":"bytes"}],"outputs":[],"stateMutability":"nonpayable"},{"type":"function","name":"setApprovalForAll","inputs":[{"name":"operator","type":"address","internalType":"address"},{"name":"approved","type":"bool","internalType":"bool"}],"outputs":[],"stateMutability":"nonpayable"},{"type":"function","name":"setUserCollectionCopyLimitOrderConfigs","inputs":[{"name":"user","type":"address","internalType":"address"},{"name":"collectionId","type":"uint256","internalType":"uint256"},{"name":"copyLoanOfferConfig","type":"tuple","internalType":"struct CopyLimitOrderConfig","components":[{"name":"minTenor","type":"uint256","internalType":"uint256"},{"name":"maxTenor","type":"uint256","internalType":"uint256"},{"name":"minAPR","type":"uint256","internalType":"uint256"},{"name":"maxAPR","type":"uint256","internalType":"uint256"},{"name":"offsetAPR","type":"int256","internalType":"int256"}]},{"name":"copyBorrowOfferConfig","type":"tuple","internalType":"struct CopyLimitOrderConfig","components":[{"name":"minTenor","type":"uint256","internalType":"uint256"},{"name":"maxTenor","type":"uint256","internalType":"uint256"},{"name":"minAPR","type":"uint256","internalType":"uint256"},{"name":"maxAPR","type":"uint256","internalType":"uint256"},{"name":"offsetAPR","type":"int256","internalType":"int256"}]}],"outputs":[],"stateMutability":"nonpayable"},{"type":"function","name":"subscribeUserToCollections","inputs":[{"name":"user","type":"address","internalType":"address"},{"name":"collectionIds","type":"uint256[]","internalType":"uint256[]"}],"outputs":[],"stateMutability":"nonpayable"},{"type":"function","name":"supportsInterface","inputs":[{"name":"interfaceId","type":"bytes4","internalType":"bytes4"}],"outputs":[{"name":"","type":"bool","internalType":"bool"}],"stateMutability":"view"},{"type":"function","name":"symbol","inputs":[],"outputs":[{"name":"","type":"string","internalType":"string"}],"stateMutability":"view"},{"type":"function","name":"tokenByIndex","inputs":[{"name":"index","type":"uint256","internalType":"uint256"}],"outputs":[{"name":"","type":"uint256","internalType":"uint256"}],"stateMutability":"view"},{"type":"function","name":"tokenOfOwnerByIndex","inputs":[{"name":"owner","type":"address","internalType":"address"},{"name":"index","type":"uint256","internalType":"uint256"}],"outputs":[{"name":"","type":"uint256","internalType":"uint256"}],"stateMutability":"view"},{"type":"function","name":"tokenURI","inputs":[{"name":"tokenId","type":"uint256","internalType":"uint256"}],"outputs":[{"name":"","type":"string","internalType":"string"}],"stateMutability":"view"},{"type":"function","name":"totalSupply","inputs":[],"outputs":[{"name":"","type":"uint256","internalType":"uint256"}],"stateMutability":"view"},{"type":"function","name":"transferFrom","inputs":[{"name":"from","type":"address","internalType":"address"},{"name":"to","type":"address","internalType":"address"},{"name":"tokenId","type":"uint256","internalType":"uint256"}],"outputs":[],"stateMutability":"nonpayable"},{"type":"function","name":"unsubscribeUserFromCollections","inputs":[{"name":"user","type":"address","internalType":"address"},{"name":"collectionIds","type":"uint256[]","internalType":"uint256[]"}],"outputs":[],"stateMutability":"nonpayable"},{"type":"function","name":"upgradeToAndCall","inputs":[{"name":"newImplementation","type":"address","internalType":"address"},{"name":"data","type":"bytes","internalType":"bytes"}],"outputs":[],"stateMutability":"payable"},{"type":"event","name":"Approval","inputs":[{"name":"owner","type":"address","indexed":true,"internalType":"address"},{"name":"approved","type":"address","indexed":true,"internalType":"address"},{"name":"tokenId","type":"uint256","indexed":true,"internalType":"uint256"}],"anonymous":false},{"type":"event","name":"ApprovalForAll","inputs":[{"name":"owner","type":"address","indexed":true,"internalType":"address"},{"name":"operator","type":"address","indexed":true,"internalType":"address"},{"name":"approved","type":"bool","indexed":false,"internalType":"bool"}],"anonymous":false},{"type":"event","name":"Initialized","inputs":[{"name":"version","type":"uint64","indexed":false,"internalType":"uint64"}],"anonymous":false},{"type":"event","name":"MarketAddedToCollection","inputs":[{"name":"collectionId","type":"uint256","indexed":true,"internalType":"uint256"},{"name":"market","type":"address","indexed":true,"internalType":"address"}],"anonymous":false},{"type":"event","name":"MarketRemovedFromCollection","inputs":[{"name":"collectionId","type":"uint256","indexed":true,"internalType":"uint256"},{"name":"market","type":"address","indexed":true,"internalType":"address"}],"anonymous":false},{"type":"event","name":"RateProviderAddedToMarket","inputs":[{"name":"collectionId","type":"uint256","indexed":true,"internalType":"uint256"},{"name":"market","type":"address","indexed":true,"internalType":"address"},{"name":"rateProvider","type":"address","indexed":true,"internalType":"address"}],"anonymous":false},{"type":"event","name":"RateProviderRemovedFromMarket","inputs":[{"name":"collectionId","type":"uint256","indexed":true,"internalType":"uint256"},{"name":"market","type":"address","indexed":true,"internalType":"address"},{"name":"rateProvider","type":"address","indexed":true,"internalType":"address"}],"anonymous":false},{"type":"event","name":"SetUserCollectionCopyLimitOrderConfigs","inputs":[{"name":"user","type":"address","indexed":true,"internalType":"address"},{"name":"collectionId","type":"uint256","indexed":true,"internalType":"uint256"},{"name":"copyLoanOfferConfig","type":"tuple","indexed":false,"internalType":"struct CopyLimitOrderConfig","components":[{"name":"minTenor","type":"uint256","internalType":"uint256"},{"name":"maxTenor","type":"uint256","internalType":"uint256"},{"name":"minAPR","type":"uint256","internalType":"uint256"},{"name":"maxAPR","type":"uint256","internalType":"uint256"},{"name":"offsetAPR","type":"int256","internalType":"int256"}]},{"name":"copyBorrowOfferConfig","type":"tuple","indexed":false,"internalType":"struct CopyLimitOrderConfig","components":[{"name":"minTenor","type":"uint256","internalType":"uint256"},{"name":"maxTenor","type":"uint256","internalType":"uint256"},{"name":"minAPR","type":"uint256","internalType":"uint256"},{"name":"maxAPR","type":"uint256","internalType":"uint256"},{"name":"offsetAPR","type":"int256","internalType":"int256"}]}],"anonymous":false},{"type":"event","name":"SubscribedToCollection","inputs":[{"name":"user","type":"address","indexed":true,"internalType":"address"},{"name":"collectionId","type":"uint256","indexed":true,"internalType":"uint256"}],"anonymous":false},{"type":"event","name":"Transfer","inputs":[{"name":"from","type":"address","indexed":true,"internalType":"address"},{"name":"to","type":"address","indexed":true,"internalType":"address"},{"name":"tokenId","type":"uint256","indexed":true,"internalType":"uint256"}],"anonymous":false},{"type":"event","name":"UnsubscribedFromCollection","inputs":[{"name":"user","type":"address","indexed":true,"internalType":"address"},{"name":"collectionId","type":"uint256","indexed":true,"internalType":"uint256"}],"anonymous":false},{"type":"event","name":"Upgraded","inputs":[{"name":"implementation","type":"address","indexed":true,"internalType":"address"}],"anonymous":false},{"type":"error","name":"AccessControlUnauthorizedAccount","inputs":[{"name":"account","type":"address","internalType":"address"},{"name":"neededRole","type":"bytes32","internalType":"bytes32"}]},{"type":"error","name":"AddressEmptyCode","inputs":[{"name":"target","type":"address","internalType":"address"}]},{"type":"error","name":"ERC1967InvalidImplementation","inputs":[{"name":"implementation","type":"address","internalType":"address"}]},{"type":"error","name":"ERC1967NonPayable","inputs":[]},{"type":"error","name":"ERC721EnumerableForbiddenBatchMint","inputs":[]},{"type":"error","name":"ERC721IncorrectOwner","inputs":[{"name":"sender","type":"address","internalType":"address"},{"name":"tokenId","type":"uint256","internalType":"uint256"},{"name":"owner","type":"address","internalType":"address"}]},{"type":"error","name":"ERC721InsufficientApproval","inputs":[{"name":"operator","type":"address","internalType":"address"},{"name":"tokenId","type":"uint256","internalType":"uint256"}]},{"type":"error","name":"ERC721InvalidApprover","inputs":[{"name":"approver","type":"address","internalType":"address"}]},{"type":"error","name":"ERC721InvalidOperator","inputs":[{"name":"operator","type":"address","internalType":"address"}]},{"type":"error","name":"ERC721InvalidOwner","inputs":[{"name":"owner","type":"address","internalType":"address"}]},{"type":"error","name":"ERC721InvalidReceiver","inputs":[{"name":"receiver","type":"address","internalType":"address"}]},{"type":"error","name":"ERC721InvalidSender","inputs":[{"name":"sender","type":"address","internalType":"address"}]},{"type":"error","name":"ERC721NonexistentToken","inputs":[{"name":"tokenId","type":"uint256","internalType":"uint256"}]},{"type":"error","name":"ERC721OutOfBoundsIndex","inputs":[{"name":"owner","type":"address","internalType":"address"},{"name":"index","type":"uint256","internalType":"uint256"}]},{"type":"error","name":"FailedCall","inputs":[]},{"type":"error","name":"INVALID_APR_RANGE","inputs":[{"name":"minAPR","type":"uint256","internalType":"uint256"},{"name":"maxAPR","type":"uint256","internalType":"uint256"}]},{"type":"error","name":"INVALID_MARKET","inputs":[{"name":"market","type":"address","internalType":"address"}]},{"type":"error","name":"INVALID_OFFER_CONFIGS","inputs":[{"name":"minTenorBorrowOffer","type":"uint256","internalType":"uint256"},{"name":"maxTenorBorrowOffer","type":"uint256","internalType":"uint256"},{"name":"minAPRBorrowOffer","type":"uint256","internalType":"uint256"},{"name":"maxAPRBorrowOffer","type":"uint256","internalType":"uint256"},{"name":"minTenorLoanOffer","type":"uint256","internalType":"uint256"},{"name":"maxTenorLoanOffer","type":"uint256","internalType":"uint256"},{"name":"minAPRLoanOffer","type":"uint256","internalType":"uint256"},{"name":"maxAPRLoanOffer","type":"uint256","internalType":"uint256"}]},{"type":"error","name":"INVALID_TENOR_RANGE","inputs":[{"name":"minTenor","type":"uint256","internalType":"uint256"},{"name":"maxTenor","type":"uint256","internalType":"uint256"}]},{"type":"error","name":"InvalidCollectionId","inputs":[{"name":"collectionId","type":"uint256","internalType":"uint256"}]},{"type":"error","name":"InvalidCollectionMarketRateProvider","inputs":[{"name":"collectionId","type":"uint256","internalType":"uint256"},{"name":"market","type":"address","internalType":"address"},{"name":"rateProvider","type":"address","internalType":"address"}]},{"type":"error","name":"InvalidInitialization","inputs":[]},{"type":"error","name":"InvalidMaturity","inputs":[{"name":"maturity","type":"uint256","internalType":"uint256"},{"name":"minTenor","type":"uint256","internalType":"uint256"},{"name":"maxTenor","type":"uint256","internalType":"uint256"}]},{"type":"error","name":"MarketNotInCollection","inputs":[{"name":"collectionId","type":"uint256","internalType":"uint256"},{"name":"market","type":"address","internalType":"address"}]},{"type":"error","name":"NotInitializing","inputs":[]},{"type":"error","name":"OnlySizeFactory","inputs":[{"name":"user","type":"address","internalType":"address"}]},{"type":"error","name":"PAST_MATURITY","inputs":[{"name":"maturity","type":"uint256","internalType":"uint256"}]},{"type":"error","name":"PAUSED_MARKET","inputs":[{"name":"market","type":"address","internalType":"address"}]},{"type":"error","name":"SafeCastOverflowedIntToUint","inputs":[{"name":"value","type":"int256","internalType":"int256"}]},{"type":"error","name":"SafeCastOverflowedUintToInt","inputs":[{"name":"value","type":"uint256","internalType":"uint256"}]},{"type":"error","name":"UUPSUnauthorizedCallContext","inputs":[]},{"type":"error","name":"UUPSUnsupportedProxiableUUID","inputs":[{"name":"slot","type":"bytes32","internalType":"bytes32"}]}],"bytecode":{"object":"0x60a06040523060805234801562000014575f80fd5b506200001f62000025565b620000d9565b7ff0c57e16840df040f15088dc2f81fe391c3923bec73e23a9662efc9c229c6a00805468010000000000000000900460ff1615620000765760405163f92ee8a960e01b815260040160405180910390fd5b80546001600160401b0390811614620000d65780546001600160401b0319166001600160401b0390811782556040519081527fc7f505b2f371ae2175ee4913f4499e1f2633a7b5936321eed1cdaeb6115181d29060200160405180910390a15b50565b6080516143bf620001005f395f8181611f5c01528181611f85015261215501526143bf5ff3fe608060405260043610610249575f3560e01c806370a0823111610134578063ac9650d8116100b3578063c4d66de811610078578063c4d66de8146106f2578063c87b56dd14610711578063dd2bc30214610730578063de1eb8801461075c578063e985e9c51461077b578063eb379a581461079a575f80fd5b8063ac9650d81461062c578063ad3cb1cc14610658578063b88d4fde14610688578063b9d33d1e146106a7578063c260d206146106d3575f80fd5b80639feffdb0116100f95780639feffdb014610591578063a0529e5f146105b0578063a22cb465146105cf578063abff1222146105ee578063ac888c071461060d575f80fd5b806370a08231146105015780638134a9e01461052057806393c0d3f31461053f57806395d89b411461055e5780639e4082db14610572575f80fd5b80633184b046116101cb57806352d1902d1161019057806352d1902d1461045b578063565380571461046f5780635fb7f10c146104905780636352211e146104af578063647f1a9c146104ce578063678b9bad146104e2575f80fd5b80633184b046146103bf57806342842e0e146103eb578063495e6d891461040a5780634f1ef286146104295780634f6ccce71461043c575f80fd5b806318160ddd1161021157806318160ddd1461031957806318d5932d1461034357806320d634561461036257806323b872dd146103815780632f745c59146103a0575f80fd5b806301ffc9a71461024d57806306fdde0314610281578063081812fc146102a2578063095ea7b3146102d95780630b379508146102fa575b5f80fd5b348015610258575f80fd5b5061026c610267366004613596565b6107b9565b60405190151581526020015b60405180910390f35b34801561028c575f80fd5b506102956107e3565b60405161027891906135fe565b3480156102ad575f80fd5b506102c16102bc366004613610565b610884565b6040516001600160a01b039091168152602001610278565b3480156102e4575f80fd5b506102f86102f336600461363b565b610898565b005b348015610305575f80fd5b506102f86103143660046136f3565b6108a7565b348015610324575f80fd5b505f8051602061436a833981519152545b604051908152602001610278565b34801561034e575f80fd5b506102f861035d3660046137f5565b6109dd565b34801561036d575f80fd5b5061026c61037c36600461363b565b610a1b565b34801561038c575f80fd5b506102f861039b366004613844565b610a43565b3480156103ab575f80fd5b506103356103ba36600461363b565b610ac6565b3480156103ca575f80fd5b506103de6103d936600461363b565b610b37565b6040516102789190613882565b3480156103f6575f80fd5b506102f8610405366004613844565b610b4a565b348015610415575f80fd5b506103356104243660046138bb565b610b69565b6102f861043736600461397d565b610b84565b348015610447575f80fd5b50610335610456366004613610565b610b9f565b348015610466575f80fd5b50610335610c11565b34801561047a575f80fd5b5061026c610489366004613610565b6001541190565b34801561049b575f80fd5b506103356104aa3660046138bb565b610c2d565b3480156104ba575f80fd5b506102c16104c9366004613610565b610c3d565b3480156104d9575f80fd5b50610335610c47565b3480156104ed575f80fd5b5061026c6104fc3660046139c9565b610c67565b34801561050c575f80fd5b5061033561051b366004613a0e565b610c80565b34801561052b575f80fd5b5061026c61053a366004613a29565b610cd8565b34801561054a575f80fd5b506102f8610559366004613a57565b610d1a565b348015610569575f80fd5b50610295610eb0565b34801561057d575f80fd5b506103de61058c36600461363b565b610eee565b34801561059c575f80fd5b5061026c6105ab3660046139c9565b610f02565b3480156105bb575f80fd5b506102f86105ca366004613af7565b610f11565b3480156105da575f80fd5b506102f86105e9366004613b95565b611187565b3480156105f9575f80fd5b506102f8610608366004613af7565b611192565b348015610618575f80fd5b5061026c610627366004613bc1565b6112e8565b348015610637575f80fd5b5061064b610646366004613c11565b611389565b6040516102789190613c7f565b348015610663575f80fd5b50610295604051806040016040528060058152602001640352e302e360dc1b81525081565b348015610693575f80fd5b506102f86106a2366004613ce1565b61146e565b3480156106b2575f80fd5b506106c66106c1366004613a0e565b611486565b6040516102789190613d48565b3480156106de575f80fd5b506103356106ed366004613d8b565b6114a9565b3480156106fd575f80fd5b506102f861070c366004613a0e565b611631565b34801561071c575f80fd5b5061029561072b366004613610565b6117ab565b34801561073b575f80fd5b5061074f61074a366004613a29565b61180f565b6040516102789190613df7565b348015610767575f80fd5b506102f8610776366004613a57565b6118bd565b348015610786575f80fd5b5061026c610795366004613e37565b6119ed565b3480156107a5575f80fd5b506102f86107b43660046136f3565b611a39565b5f6001600160e01b0319821663780e9d6360e01b14806107dd57506107dd82611b5c565b92915050565b5f8051602061432a833981519152805460609190819061080290613e63565b80601f016020809104026020016040519081016040528092919081815260200182805461082e90613e63565b80156108795780601f1061085057610100808354040283529160200191610879565b820191905f5260205f20905b81548152906001019060200180831161085c57829003601f168201915b505050505091505090565b5f61088e82611bab565b506107dd82611be2565b6108a3828233611c1b565b5050565b826108bb6108b482610c3d565b3383611c28565b5f8481526002602090815260408083206001600160a01b038716845290915290205460ff1661091457604051631713bf1160e21b8152600481018590526001600160a01b03841660248201526044015b60405180910390fd5b5f5b82518110156109d6575f61096a84838151811061093557610935613e9b565b6020908102919091018101515f8981526002835260408082206001600160a01b038b1683529093529190912060010190611c8c565b905080156109cd5783828151811061098457610984613e9b565b60200260200101516001600160a01b0316856001600160a01b0316877f41a3856b408397a3953ee2e3fc5961815599fafae92aa64253fea4124c15835260405160405180910390a45b50600101610916565b5050505050565b5f546001600160a01b03163314610a0957604051630b56d23b60e41b815233600482015260240161090b565b610a1584848484611ca0565b50505050565b6001600160a01b0382165f908152600360205260408120610a3c9083611da9565b9392505050565b6001600160a01b038216610a6c57604051633250574960e11b81525f600482015260240161090b565b5f610a78838333611dc0565b9050836001600160a01b0316816001600160a01b031614610a15576040516364283d7b60e01b81526001600160a01b038086166004830152602482018490528216604482015260640161090b565b5f5f8051602061430a833981519152610ade84610c80565b8310610b0f5760405163295f44f760e21b81526001600160a01b03851660048201526024810184905260440161090b565b6001600160a01b0384165f908152602091825260408082208583529092522054905092915050565b610b3f61352d565b610a3c83835f611eb6565b610b6483838360405180602001604052805f81525061146e565b505050565b5f610b7886868686865f6114a9565b90505b95945050505050565b610b8c611f51565b610b9582611ff7565b6108a3828261208e565b5f5f8051602061430a833981519152610bc35f8051602061436a8339815191525490565b8310610beb5760405163295f44f760e21b81525f60048201526024810184905260440161090b565b806002018381548110610c0057610c00613e9b565b905f5260205f200154915050919050565b5f610c1a61214a565b505f8051602061434a8339815191525b90565b5f610b78868686868660016114a9565b5f6107dd82611bab565b600180545f9182610c5783613ec3565b919050559050610c2a3382612193565b5f610c75858585855f6121ac565b90505b949350505050565b5f5f8051602061432a8339815191526001600160a01b038316610cb8576040516322718ad960e21b81525f600482015260240161090b565b6001600160a01b039092165f908152600390920160205250604090205490565b5f610ce4836001541190565b610cef57505f6107dd565b505f9182526002602090815260408084206001600160a01b0393909316845291905290205460ff1690565b5f546001600160a01b03163314610d4657604051630b56d23b60e41b815233600482015260240161090b565b5f6040518060a001604052805f81526020015f1981526020015f81526020015f1981526020015f81525090505f5b8251811015610a1557610da1838281518110610d9257610d92613e9b565b60200260200101516001541190565b610ddb57828181518110610db757610db7613e9b565b602002602001015160405163500f73d960e01b815260040161090b91815260200190565b5f610e2a848381518110610df157610df1613e9b565b602002602001015160035f886001600160a01b03166001600160a01b031681526020019081526020015f2061245b90919063ffffffff16565b90508015610ea757838281518110610e4457610e44613e9b565b6020026020010151856001600160a01b03167fe9919c1157673d017b4e5eef8d4c012fadcf6ee40cf5f99a0912a0109b5d584260405160405180910390a3610ea785858481518110610e9857610e98613e9b565b60200260200101518586611ca0565b50600101610d74565b7f80bb2b638cc20bc4d0a60d66940f3ab4a00c1d7b313497ca82fb0b4ab007930180546060915f8051602061432a8339815191529161080290613e63565b610ef661352d565b610a3c83836001611eb6565b5f610c758585858560016121ac565b81610f1e6108b482610c3d565b5f5b8251811015610a15575f5483516001600160a01b0390911690636ec934da90859084908110610f5157610f51613e9b565b60200260200101516040518263ffffffff1660e01b8152600401610f8491906001600160a01b0391909116815260200190565b602060405180830381865afa158015610f9f573d5f803e3d5ffd5b505050506040513d601f19601f82011682018060405250810190610fc39190613edb565b61100a57828181518110610fd957610fd9613e9b565b602002602001015160405163e2a7bea360e01b815260040161090b91906001600160a01b0391909116815260200190565b82818151811061101c5761101c613e9b565b60200260200101516001600160a01b0316635c975abb6040518163ffffffff1660e01b8152600401602060405180830381865afa15801561105f573d5f803e3d5ffd5b505050506040513d601f19601f820116820180604052508101906110839190613edb565b156110cb5782818151811061109a5761109a613e9b565b602002602001015160405163b4e1115760e01b815260040161090b91906001600160a01b0391909116815260200190565b5f8481526002602052604081208451600192908690859081106110f0576110f0613e9b565b60200260200101516001600160a01b03166001600160a01b031681526020019081526020015f205f015f6101000a81548160ff02191690831515021790555082818151811061114157611141613e9b565b60200260200101516001600160a01b0316847f42e38738c8d2e007a797548d288aea65537b98d212336f6fa33ca20c7a99088560405160405180910390a3600101610f20565b6108a3338383612466565b8161119f6108b482610c3d565b5f5b8251811015610a15575f61120160025f8781526020019081526020015f205f8685815181106111d2576111d2613e9b565b60200260200101516001600160a01b03166001600160a01b031681526020019081526020015f2060010161250c565b90506112278585848151811061121957611219613e9b565b6020026020010151836108a7565b60025f8681526020019081526020015f205f85848151811061124b5761124b613e9b565b6020908102919091018101516001600160a01b031682528101919091526040015f908120805460ff1916815590600182018181816112898282613557565b5050505050508382815181106112a1576112a1613e9b565b60200260200101516001600160a01b0316857fa328ee555a02ae133b939087dcc439417783329f687112f415290a4637f64ab760405160405180910390a3506001016111a1565b5f6112f4846001541190565b6112ff57505f610c78565b6001600160a01b0385165f9081526003602052604090206113209085611da9565b61132b57505f610c78565b5f8481526002602090815260408083206001600160a01b038716845290915290205460ff1661135b57505f610c78565b5f8481526002602090815260408083206001600160a01b03871684529091529020610c759060010183612518565b604080515f815260208101909152606090826001600160401b038111156113b2576113b2613665565b6040519080825280602002602001820160405280156113e557816020015b60608152602001906001900390816113d05790505b5091505f5b83811015611466576114413086868481811061140857611408613e9b565b905060200281019061141a9190613f09565b8560405160200161142d93929190613f52565b604051602081830303815290604052612539565b83828151811061145357611453613e9b565b60209081029190910101526001016113ea565b505092915050565b611479848484610a43565b610a1533858585856125a2565b6001600160a01b0381165f9081526003602052604090206060906107dd9061250c565b5f5f1986036114c5576114be878685856126c1565b9050611627565b6114d1878787876112e8565b6115085760405163c6c8526f60e01b8152600481018790526001600160a01b0380871660248301528516604482015260640161090b565b5f61151588888886612773565b905042841161153a576040516317a6a68360e21b81526004810185905260240161090b565b5f611547868887876126c1565b905042851161158057815160208301516040516302a19e9d60e31b8152600481018890526024810192909252604482015260640161090b565b5f61158b4287613ef6565b83519091508110806115a05750826020015181115b156115d557825160208401516040516302a19e9d60e31b8152600481018990526024810192909252604482015260640161090b565b6115f583608001516115e6846127a1565b6115f09190613f77565b6127d1565b9350826040015184101561160f5782604001519350611623565b826060015184111561162357826060015193505b5050505b9695505050505050565b5f61163a6127f6565b805490915060ff600160401b82041615906001600160401b03165f811580156116605750825b90505f826001600160401b0316600114801561167b5750303b155b905081158015611689575080155b156116a75760405163f92ee8a960e01b815260040160405180910390fd5b845467ffffffffffffffff1916600117855583156116d157845460ff60401b1916600160401b1785555b61172b6040518060400160405280601081526020016f53697a6520436f6c6c656374696f6e7360801b8152506040518060400160405280601081526020016f53495a455f434f4c4c454354494f4e5360801b81525061281e565b611733612830565b61173b612830565b611743612830565b5f80546001600160a01b0319166001600160a01b03881617905583156117a357845460ff60401b19168555604051600181527fc7f505b2f371ae2175ee4913f4499e1f2633a7b5936321eed1cdaeb6115181d29060200160405180910390a15b505050505050565b60606117b682611bab565b505f6117c0612838565b90505f8151116117de5760405180602001604052805f815250610a3c565b806117e884612867565b6040516020016117f9929190613f96565b6040516020818303038152906040529392505050565b606061181c836001541190565b61183c5760405163500f73d960e01b81526004810184905260240161090b565b5f8381526002602090815260408083206001600160a01b038616845290915290205460ff1661189057604051631713bf1160e21b8152600481018490526001600160a01b038316602482015260440161090b565b5f8381526002602090815260408083206001600160a01b03861684529091529020610a3c9060010161250c565b5f546001600160a01b031633146118e957604051630b56d23b60e41b815233600482015260240161090b565b6118f161352d565b5f5b8251811015610a1557611911838281518110610d9257610d92613e9b565b61192757828181518110610db757610db7613e9b565b5f61197684838151811061193d5761193d613e9b565b602002602001015160035f886001600160a01b03166001600160a01b031681526020019081526020015f206128f690919063ffffffff16565b905080156119e45783828151811061199057611990613e9b565b6020026020010151856001600160a01b03167fd0b1806956ca744bd88a4e4057a137959cb88d8d4e7e8d793301cfdf7df7cb2b60405160405180910390a36119e485858481518110610e9857610e98613e9b565b506001016118f3565b6001600160a01b039182165f9081527f80bb2b638cc20bc4d0a60d66940f3ab4a00c1d7b313497ca82fb0b4ab00793056020908152604080832093909416825291909152205460ff1690565b82611a466108b482610c3d565b5f8481526002602090815260408083206001600160a01b038716845290915290205460ff16611a9a57604051631713bf1160e21b8152600481018590526001600160a01b038416602482015260440161090b565b5f5b82518110156109d6575f611af0848381518110611abb57611abb613e9b565b6020908102919091018101515f8981526002835260408082206001600160a01b038b1683529093529190912060010190612901565b90508015611b5357838281518110611b0a57611b0a613e9b565b60200260200101516001600160a01b0316856001600160a01b0316877f8e2f88c467ecc78e2adbbe6d65b6176668f4cc362a196a5c46d203a9db8d8fbe60405160405180910390a45b50600101611a9c565b5f6001600160e01b031982166380ac58cd60e01b1480611b8c57506001600160e01b03198216635b5e139f60e01b145b806107dd57506301ffc9a760e01b6001600160e01b03198316146107dd565b5f80611bb683612915565b90506001600160a01b0381166107dd57604051637e27328960e01b81526004810184905260240161090b565b5f9081527f80bb2b638cc20bc4d0a60d66940f3ab4a00c1d7b313497ca82fb0b4ab007930460205260409020546001600160a01b031690565b610b64838383600161294e565b611c33838383612a61565b610b64576001600160a01b038316611c6157604051637e27328960e01b81526004810182905260240161090b565b60405163177e802f60e01b81526001600160a01b03831660048201526024810182905260440161090b565b5f610a3c836001600160a01b038416612ac5565b611cab836001541190565b611ccb5760405163500f73d960e01b81526004810184905260240161090b565b611cd58282612ba8565b60408051808201825283815260208082018481526001600160a01b0388165f81815260048085528682208a8352855290869020945180518655808501516001870155808701516002870155606080820151600388015560809182015192870192909255925180516005870155938401516006860155838601516007860155830151600885015591015160099092019190915590518491907fb20b9722fd4401237d66274470a4daf19d973d3f3150edba3bcadf8467ed9b4290611d9b9086908690613fc4565b60405180910390a350505050565b5f8181526001830160205260408120541515610a3c565b5f80611dcd858585612d3a565b90506001600160a01b038116611e5457611e4f845f8051602061436a83398151915280545f8381527f645e039705490088daad89bae25049a34f4a9072d398537b1ab2425f24cbed0360205260408120829055600182018355919091527fa42f15e5d656f8155fd7419d740a6073999f19cd6e061449ce4a257150545bf20155565b611e77565b846001600160a01b0316816001600160a01b031614611e7757611e778185612e3c565b6001600160a01b038516611e9357611e8e84612ed3565b610c78565b846001600160a01b0316816001600160a01b031614610c7857610c788585612fa0565b611ebe61352d565b81611eed576001600160a01b0384165f9081526004602090815260408083208684529091529020600501611f10565b6001600160a01b0384165f90815260046020908152604080832086845290915290205b6040805160a0810182528254815260018301546020820152600283015491810191909152600382015460608201526004909101546080820152949350505050565b306001600160a01b037f0000000000000000000000000000000000000000000000000000000000000000161480611fd757507f00000000000000000000000000000000000000000000000000000000000000006001600160a01b0316611fcb5f8051602061434a833981519152546001600160a01b031690565b6001600160a01b031614155b15611ff55760405163703e46dd60e11b815260040160405180910390fd5b565b5f8054604051632474521560e21b8152600481018390523360248201526001600160a01b03909116906391d1485490604401602060405180830381865afa158015612044573d5f803e3d5ffd5b505050506040513d601f19601f820116820180604052508101906120689190613edb565b6108a35760405163e2517d3f60e01b81523360048201526024810182905260440161090b565b816001600160a01b03166352d1902d6040518163ffffffff1660e01b8152600401602060405180830381865afa9250505080156120e8575060408051601f3d908101601f191682019092526120e591810190614034565b60015b61211057604051634c9c8ce360e01b81526001600160a01b038316600482015260240161090b565b5f8051602061434a833981519152811461214057604051632a87526960e21b81526004810182905260240161090b565b610b648383612ff8565b306001600160a01b037f00000000000000000000000000000000000000000000000000000000000000001614611ff55760405163703e46dd60e11b815260040160405180910390fd5b6108a3828260405180602001604052805f81525061304d565b6001600160a01b0385165f908152600360205260408120815b6121ce82613064565b811015612362575f6121e0838361306d565b5f8181526002602090815260408083206001600160a01b038c16845290915290205490915060ff16612212575061235a565b5f8181526002602090815260408083206001600160a01b038b1684529091528120600101905b61224182613064565b811015612356575f612253838361306d565b9050612261818b8a15613078565b1561226c575061234e565b306001600160a01b031663c260d2068d868d858e8e156040518763ffffffff1660e01b81526004016122a39695949392919061404b565b602060405180830381865afa9250505080156122dc575060408051601f3d908101601f191682019092526122d991810190614034565b60015b612315573d808015612309576040519150601f19603f3d011682016040523d82523d5f602084013e61230e565b606091505b505061234c565b88801561232257508b8110155b806123365750881580156123365750808c10155b1561234a575f975050505050505050610b7b565b505b505b600101612238565b5050505b6001016121c5565b5061236f87868515613078565b1561237e576001915050610b7b565b604051636130690360e11b8152309063c260d206906123ad908a905f19908a905f908b908b159060040161404b565b602060405180830381865afa9250505080156123e6575060408051601f3d908101601f191682019092526123e391810190614034565b60015b61241f573d808015612413576040519150601f19603f3d011682016040523d82523d5f602084013e612418565b606091505b5050612451565b83801561242c5750868110155b806124405750831580156124405750808710155b1561244f575f92505050610b7b565b505b6001915050610b7b565b5f610a3c83836130fe565b5f8051602061432a8339815191526001600160a01b0383166124a657604051630b61174360e31b81526001600160a01b038416600482015260240161090b565b6001600160a01b038481165f818152600584016020908152604080832094881680845294825291829020805460ff191687151590811790915591519182527f17307eab39ab6107e8899845ad3d59bd9653f200f220920489ca2b5937696c319101611d9b565b60605f610a3c8361314a565b6001600160a01b0381165f9081526001830160205260408120541515610a3c565b60605f80846001600160a01b0316846040516125559190614085565b5f60405180830381855af49150503d805f811461258d576040519150601f19603f3d011682016040523d82523d5f602084013e612592565b606091505b5091509150610b7b8583836131a3565b6001600160a01b0383163b156109d657604051630a85bd0160e11b81526001600160a01b0384169063150b7a02906125e49088908890879087906004016140a0565b6020604051808303815f875af192505050801561261e575060408051601f3d908101601f1916820190925261261b918101906140d2565b60015b612685573d80801561264b576040519150601f19603f3d011682016040523d82523d5f602084013e612650565b606091505b5080515f0361267d57604051633250574960e11b81526001600160a01b038516600482015260240161090b565b805181602001fd5b6001600160e01b03198116630a85bd0160e11b146117a357604051633250574960e11b81526001600160a01b038516600482015260240161090b565b5f811561273e57604051620d37ab60e81b81526001600160a01b03868116600483015260248201859052851690630d37ab00906044015b602060405180830381865afa158015612713573d5f803e3d5ffd5b505050506040513d601f19601f820116820180604052508101906127379190614034565b9050610c78565b604051632b59bd9960e01b81526001600160a01b03868116600483015260248201859052851690632b59bd99906044016126f8565b61277b61352d565b6127868584846131ff565b905061279181613274565b15610c7857610c75858584611eb6565b5f6001600160ff1b038211156127cd5760405163123baf0360e11b81526004810183905260240161090b565b5090565b5f808212156127cd57604051635467221960e11b81526004810183905260240161090b565b5f807ff0c57e16840df040f15088dc2f81fe391c3923bec73e23a9662efc9c229c6a006107dd565b6128266132b3565b6108a382826132d8565b611ff56132b3565b606061284346612867565b60405160200161285391906140ed565b604051602081830303815290604052905090565b60605f61287383613308565b60010190505f816001600160401b0381111561289157612891613665565b6040519080825280601f01601f1916602001820160405280156128bb576020820181803683370190505b5090508181016020015b5f19016f181899199a1a9b1b9c1cb0b131b232b360811b600a86061a8153600a85049450846128c557509392505050565b5f610a3c8383612ac5565b5f610a3c836001600160a01b0384166130fe565b5f9081527f80bb2b638cc20bc4d0a60d66940f3ab4a00c1d7b313497ca82fb0b4ab007930260205260409020546001600160a01b031690565b5f8051602061432a833981519152818061297057506001600160a01b03831615155b15612a31575f61297f85611bab565b90506001600160a01b038416158015906129ab5750836001600160a01b0316816001600160a01b031614155b80156129be57506129bc81856119ed565b155b156129e75760405163a9fbf51f60e01b81526001600160a01b038516600482015260240161090b565b8215612a2f5784866001600160a01b0316826001600160a01b03167f8c5be1e5ebec7d5bd14f71427d1e84f3dd0314c0f7b2291e5b200ac8c7c3b92560405160405180910390a45b505b5f93845260040160205250506040902080546001600160a01b0319166001600160a01b0392909216919091179055565b5f6001600160a01b03831615801590610c785750826001600160a01b0316846001600160a01b03161480612a9a5750612a9a84846119ed565b80610c785750826001600160a01b0316612ab383611be2565b6001600160a01b031614949350505050565b5f8181526001830160205260408120548015612b9f575f612ae7600183613ef6565b85549091505f90612afa90600190613ef6565b9050808214612b59575f865f018281548110612b1857612b18613e9b565b905f5260205f200154905080875f018481548110612b3857612b38613e9b565b5f918252602080832090910192909255918252600188019052604090208390555b8554869080612b6a57612b6a614149565b600190038181905f5260205f20015f90559055856001015f8681526020019081526020015f205f9055600193505050506107dd565b5f9150506107dd565b602082015182511115612bde57815160208301516040516307198f4960e11b81526004810192909252602482015260440161090b565b816060015182604001511115612c1c5781604001518260600151604051633ed3c20960e01b815260040161090b929190918252602082015260400190565b602081015181511115612c5257805160208201516040516307198f4960e11b81526004810192909252602482015260440161090b565b806060015181604001511115612c905780604001518160600151604051633ed3c20960e01b815260040161090b929190918252602082015260400190565b81606001518160400151118015612cac57508151602082015110155b8015612cbd57508051602083015110155b156108a357805f0151816020015182604001518360600151855f015186602001518760400151886060015160405163a19d2d6760e01b815260040161090b989796959493929190978852602088019690965260408701949094526060860192909252608085015260a084015260c083015260e08201526101000190565b5f5f8051602061432a83398151915281612d5385612915565b90506001600160a01b03841615612d6f57612d6f818587611c28565b6001600160a01b03811615612dab57612d8a5f865f8061294e565b6001600160a01b0381165f908152600383016020526040902080545f190190555b6001600160a01b03861615612ddb576001600160a01b0386165f9081526003830160205260409020805460010190555b5f85815260028301602052604080822080546001600160a01b0319166001600160a01b038a811691821790925591518893918516917fddf252ad1be2c89b69c2b068fc378daa952ba7f163c4a11628f55a4df523b3ef91a495945050505050565b5f8051602061430a8339815191525f612e5484610c80565b5f8481526001840160209081526040808320546001600160a01b03891684529186905290912091925090818314612eac575f838152602082815260408083205485845281842081905583526001870190915290208290555b5f948552600190930160209081526040808620869055928552929092528220919091555050565b5f8051602061436a833981519152545f8051602061430a833981519152905f90612eff90600190613ef6565b5f848152600384016020526040812054600285018054939450909284908110612f2a57612f2a613e9b565b905f5260205f200154905080846002018381548110612f4b57612f4b613e9b565b5f91825260208083209091019290925582815260038601909152604080822084905586825281205560028401805480612f8657612f86614149565b600190038181905f5260205f20015f905590555050505050565b5f8051602061430a8339815191525f6001612fba85610c80565b612fc49190613ef6565b6001600160a01b039094165f9081526020838152604080832087845282528083208690559482526001909301909252502055565b613001826133df565b6040516001600160a01b038316907fbc7cd75a20ee27fd9adebab32041f755214dbc6bffa90cc0225b39da2e5c2d3b905f90a280511561304557610b648282612539565b6108a3613442565b6130578383613461565b610b64335f8585856125a2565b5f6107dd825490565b5f610a3c83836134c2565b6040516306be2e4960e01b81526001600160a01b0384811660048301525f9182918291908616906306be2e49906024016040805180830381865afa1580156130c2573d5f803e3d5ffd5b505050506040513d601f19601f820116820180604052508101906130e6919061415d565b91509150836130f55780611627565b50949350505050565b5f81815260018301602052604081205461314357508154600181810184555f8481526020808220909301849055845484825282860190935260409020919091556107dd565b505f6107dd565b6060815f0180548060200260200160405190810160405280929190818152602001828054801561319757602002820191905f5260205f20905b815481526020019060010190808311613183575b50505050509050919050565b6060826131b8576131b3826134e8565b610a3c565b81511580156131cf57506001600160a01b0384163b155b156131f857604051639996b31560e01b81526001600160a01b038516600482015260240161090b565b5080610a3c565b61320761352d565b604051636bef2baf60e11b81526001600160a01b0385811660048301525f91829186169063d7de575e9060240161014060405180830381865afa158015613250573d5f803e3d5ffd5b505050506040513d601f19601f820116820180604052508101906130e691906141d6565b80515f9015801561328757506020820151155b801561329557506040820151155b80156132a357506060820151155b80156107dd575050608001511590565b6132bb613514565b611ff557604051631afcd79f60e31b815260040160405180910390fd5b6132e06132b3565b5f8051602061432a833981519152806132f9848261424e565b5060018101610a15838261424e565b5f8072184f03e93ff9f4daa797ed6e38ed64bf6a1f0160401b83106133465772184f03e93ff9f4daa797ed6e38ed64bf6a1f0160401b830492506040015b6d04ee2d6d415b85acef81000000008310613372576d04ee2d6d415b85acef8100000000830492506020015b662386f26fc10000831061339057662386f26fc10000830492506010015b6305f5e10083106133a8576305f5e100830492506008015b61271083106133bc57612710830492506004015b606483106133ce576064830492506002015b600a83106107dd5760010192915050565b806001600160a01b03163b5f0361341457604051634c9c8ce360e01b81526001600160a01b038216600482015260240161090b565b5f8051602061434a83398151915280546001600160a01b0319166001600160a01b0392909216919091179055565b3415611ff55760405163b398979f60e01b815260040160405180910390fd5b6001600160a01b03821661348a57604051633250574960e11b81525f600482015260240161090b565b5f61349683835f611dc0565b90506001600160a01b03811615610b64576040516339e3563760e11b81525f600482015260240161090b565b5f825f0182815481106134d7576134d7613e9b565b905f5260205f200154905092915050565b8051156134f85780518082602001fd5b60405163d6bda27560e01b815260040160405180910390fd5b50565b5f61351d6127f6565b54600160401b900460ff16919050565b6040518060a001604052805f81526020015f81526020015f81526020015f81526020015f81525090565b5080545f8255905f5260205f209081019061351191905b808211156127cd575f815560010161356e565b6001600160e01b031981168114613511575f80fd5b5f602082840312156135a6575f80fd5b8135610a3c81613581565b5f5b838110156135cb5781810151838201526020016135b3565b50505f910152565b5f81518084526135ea8160208601602086016135b1565b601f01601f19169290920160200192915050565b602081525f610a3c60208301846135d3565b5f60208284031215613620575f80fd5b5035919050565b6001600160a01b0381168114613511575f80fd5b5f806040838503121561364c575f80fd5b823561365781613627565b946020939093013593505050565b634e487b7160e01b5f52604160045260245ffd5b60405160a081016001600160401b038111828210171561369b5761369b613665565b60405290565b604051601f8201601f191681016001600160401b03811182821017156136c9576136c9613665565b604052919050565b5f6001600160401b038211156136e9576136e9613665565b5060051b60200190565b5f805f60608486031215613705575f80fd5b8335925060208085013561371881613627565b925060408501356001600160401b03811115613732575f80fd5b8501601f81018713613742575f80fd5b8035613755613750826136d1565b6136a1565b81815260059190911b82018301908381019089831115613773575f80fd5b928401925b8284101561379a57833561378b81613627565b82529284019290840190613778565b80955050505050509250925092565b5f60a082840312156137b9575f80fd5b6137c1613679565b9050813581526020820135602082015260408201356040820152606082013560608201526080820135608082015292915050565b5f805f806101808587031215613809575f80fd5b843561381481613627565b93506020850135925061382a86604087016137a9565b91506138398660e087016137a9565b905092959194509250565b5f805f60608486031215613856575f80fd5b833561386181613627565b9250602084013561387181613627565b929592945050506040919091013590565b60a081016107dd828480518252602081015160208301526040810151604083015260608101516060830152608081015160808301525050565b5f805f805f60a086880312156138cf575f80fd5b85356138da81613627565b94506020860135935060408601356138f181613627565b9250606086013561390181613627565b949793965091946080013592915050565b5f82601f830112613921575f80fd5b81356001600160401b0381111561393a5761393a613665565b61394d601f8201601f19166020016136a1565b818152846020838601011115613961575f80fd5b816020850160208301375f918101602001919091529392505050565b5f806040838503121561398e575f80fd5b823561399981613627565b915060208301356001600160401b038111156139b3575f80fd5b6139bf85828601613912565b9150509250929050565b5f805f80608085870312156139dc575f80fd5b84356139e781613627565b93506020850135925060408501356139fe81613627565b9396929550929360600135925050565b5f60208284031215613a1e575f80fd5b8135610a3c81613627565b5f8060408385031215613a3a575f80fd5b823591506020830135613a4c81613627565b809150509250929050565b5f8060408385031215613a68575f80fd5b8235613a7381613627565b91506020838101356001600160401b03811115613a8e575f80fd5b8401601f81018613613a9e575f80fd5b8035613aac613750826136d1565b81815260059190911b82018301908381019088831115613aca575f80fd5b928401925b82841015613ae857833582529284019290840190613acf565b80955050505050509250929050565b5f8060408385031215613b08575f80fd5b823591506020808401356001600160401b03811115613b25575f80fd5b8401601f81018613613b35575f80fd5b8035613b43613750826136d1565b81815260059190911b82018301908381019088831115613b61575f80fd5b928401925b82841015613ae8578335613b7981613627565b82529284019290840190613b66565b8015158114613511575f80fd5b5f8060408385031215613ba6575f80fd5b8235613bb181613627565b91506020830135613a4c81613b88565b5f805f8060808587031215613bd4575f80fd5b8435613bdf81613627565b9350602085013592506040850135613bf681613627565b91506060850135613c0681613627565b939692955090935050565b5f8060208385031215613c22575f80fd5b82356001600160401b0380821115613c38575f80fd5b818501915085601f830112613c4b575f80fd5b813581811115613c59575f80fd5b8660208260051b8501011115613c6d575f80fd5b60209290920196919550909350505050565b5f60208083016020845280855180835260408601915060408160051b8701019250602087015f5b82811015613cd457603f19888603018452613cc28583516135d3565b94509285019290850190600101613ca6565b5092979650505050505050565b5f805f8060808587031215613cf4575f80fd5b8435613cff81613627565b93506020850135613d0f81613627565b92506040850135915060608501356001600160401b03811115613d30575f80fd5b613d3c87828801613912565b91505092959194509250565b602080825282518282018190525f9190848201906040850190845b81811015613d7f57835183529284019291840191600101613d63565b50909695505050505050565b5f805f805f8060c08789031215613da0575f80fd5b8635613dab81613627565b9550602087013594506040870135613dc281613627565b93506060870135613dd281613627565b92506080870135915060a0870135613de981613b88565b809150509295509295509295565b602080825282518282018190525f9190848201906040850190845b81811015613d7f5783516001600160a01b031683529284019291840191600101613e12565b5f8060408385031215613e48575f80fd5b8235613e5381613627565b91506020830135613a4c81613627565b600181811c90821680613e7757607f821691505b602082108103613e9557634e487b7160e01b5f52602260045260245ffd5b50919050565b634e487b7160e01b5f52603260045260245ffd5b634e487b7160e01b5f52601160045260245ffd5b5f60018201613ed457613ed4613eaf565b5060010190565b5f60208284031215613eeb575f80fd5b8151610a3c81613b88565b818103818111156107dd576107dd613eaf565b5f808335601e19843603018112613f1e575f80fd5b8301803591506001600160401b03821115613f37575f80fd5b602001915036819003821315613f4b575f80fd5b9250929050565b828482375f8382015f81528351613f6d8183602088016135b1565b0195945050505050565b8082018281125f83128015821682158216171561146657611466613eaf565b5f8351613fa78184602088016135b1565b835190830190613fbb8183602088016135b1565b01949350505050565b6101408101613ffe828580518252602081015160208301526040810151604083015260608101516060830152608081015160808301525050565b825160a0830152602083015160c0830152604083015160e083015260608301516101008301526080830151610120830152610a3c565b5f60208284031215614044575f80fd5b5051919050565b6001600160a01b0396871681526020810195909552928516604085015293166060830152608082019290925290151560a082015260c00190565b5f82516140968184602087016135b1565b9190910192915050565b6001600160a01b03858116825284166020820152604081018390526080606082018190525f90610b78908301846135d3565b5f602082840312156140e2575f80fd5b8151610a3c81613581565b7f68747470733a2f2f6170692e73697a652e6372656469742f636f6c6c656374698152636f6e732f60e01b60208201525f82516141318160248501602087016135b1565b602f60f81b6024939091019283015250602501919050565b634e487b7160e01b5f52603160045260245ffd5b5f806040838503121561416e575f80fd5b825161417981613b88565b6020840151909250613a4c81613b88565b5f60a0828403121561419a575f80fd5b6141a2613679565b9050815181526020820151602082015260408201516040820152606082015160608201526080820151608082015292915050565b5f8061014083850312156141e8575f80fd5b6141f2848461418a565b91506142018460a0850161418a565b90509250929050565b601f821115610b6457805f5260205f20601f840160051c8101602085101561422f5750805b601f840160051c820191505b818110156109d6575f815560010161423b565b81516001600160401b0381111561426757614267613665565b61427b816142758454613e63565b8461420a565b602080601f8311600181146142ae575f84156142975750858301515b5f19600386901b1c1916600185901b1785556117a3565b5f85815260208120601f198616915b828110156142dc578886015182559484019460019091019084016142bd565b50858210156142f957878501515f19600388901b60f8161c191681555b5050505050600190811b0190555056fe645e039705490088daad89bae25049a34f4a9072d398537b1ab2425f24cbed0080bb2b638cc20bc4d0a60d66940f3ab4a00c1d7b313497ca82fb0b4ab0079300360894a13ba1a3210667c828492db98dca3e2076cc3735a920a3ca505d382bbc645e039705490088daad89bae25049a34f4a9072d398537b1ab2425f24cbed02a26469706673582212200643295510323b6bce16fefbd1b8b7a738761420e3269c4c0329d75b28a2f96d64736f6c63430008170033","linkReferences":{}},"methodIdentifiers":{"UPGRADE_INTERFACE_VERSION()":"ad3cb1cc","addMarketsToCollection(uint256,address[])":"a0529e5f","addRateProvidersToCollectionMarket(uint256,address,address[])":"eb379a58","approve(address,uint256)":"095ea7b3","balanceOf(address)":"70a08231","collectionContainsMarket(uint256,address)":"8134a9e0","createCollection()":"647f1a9c","getApproved(uint256)":"081812fc","getBorrowOfferAPR(address,uint256,address,address,uint256)":"495e6d89","getCollectionMarketRateProviders(uint256,address)":"dd2bc302","getLimitOrderAPR(address,uint256,address,address,uint256,bool)":"c260d206","getLoanOfferAPR(address,uint256,address,address,uint256)":"5fb7f10c","getSubscribedCollections(address)":"b9d33d1e","getUserDefinedCollectionCopyBorrowOfferConfig(address,uint256)":"3184b046","getUserDefinedCollectionCopyLoanOfferConfig(address,uint256)":"9e4082db","initialize(address)":"c4d66de8","isApprovedForAll(address,address)":"e985e9c5","isBorrowAPRLowerThanLoanOfferAPRs(address,uint256,address,uint256)":"678b9bad","isCopyingCollectionMarketRateProvider(address,uint256,address,address)":"ac888c07","isLoanAPRGreaterThanBorrowOfferAPRs(address,uint256,address,uint256)":"9feffdb0","isSubscribedToCollection(address,uint256)":"20d63456","isValidCollectionId(uint256)":"56538057","multicall(bytes[])":"ac9650d8","name()":"06fdde03","ownerOf(uint256)":"6352211e","proxiableUUID()":"52d1902d","removeMarketsFromCollection(uint256,address[])":"abff1222","removeRateProvidersFromCollectionMarket(uint256,address,address[])":"0b379508","safeTransferFrom(address,address,uint256)":"42842e0e","safeTransferFrom(address,address,uint256,bytes)":"b88d4fde","setApprovalForAll(address,bool)":"a22cb465","setUserCollectionCopyLimitOrderConfigs(address,uint256,(uint256,uint256,uint256,uint256,int256),(uint256,uint256,uint256,uint256,int256))":"18d5932d","subscribeUserToCollections(address,uint256[])":"93c0d3f3","supportsInterface(bytes4)":"01ffc9a7","symbol()":"95d89b41","tokenByIndex(uint256)":"4f6ccce7","tokenOfOwnerByIndex(address,uint256)":"2f745c59","tokenURI(uint256)":"c87b56dd","totalSupply()":"18160ddd","transferFrom(address,address,uint256)":"23b872dd","unsubscribeUserFromCollections(address,uint256[])":"de1eb880","upgradeToAndCall(address,bytes)":"4f1ef286"},"id":275}