{"abi":[{"type":"constructor","inputs":[],"stateMutability":"nonpayable"},{"type":"function","name":"DEFAULT_ADMIN_ROLE","inputs":[],"outputs":[{"name":"","type":"bytes32","internalType":"bytes32"}],"stateMutability":"view"},{"type":"function","name":"UPGRADE_INTERFACE_VERSION","inputs":[],"outputs":[{"name":"","type":"string","internalType":"string"}],"stateMutability":"view"},{"type":"function","name":"buyCreditLimit","inputs":[{"name":"params","type":"tuple","internalType":"struct BuyCreditLimitParams","components":[{"name":"maturities","type":"uint256[]","internalType":"uint256[]"},{"name":"aprs","type":"uint256[]","internalType":"uint256[]"}]}],"outputs":[],"stateMutability":"payable"},{"type":"function","name":"buyCreditLimitOnBehalfOf","inputs":[{"name":"externalParams","type":"tuple","internalType":"struct BuyCreditLimitOnBehalfOfParams","components":[{"name":"params","type":"tuple","internalType":"struct BuyCreditLimitParams","components":[{"name":"maturities","type":"uint256[]","internalType":"uint256[]"},{"name":"aprs","type":"uint256[]","internalType":"uint256[]"}]},{"name":"onBehalfOf","type":"address","internalType":"address"}]}],"outputs":[],"stateMutability":"payable"},{"type":"function","name":"buyCreditMarket","inputs":[{"name":"params","type":"tuple","internalType":"struct BuyCreditMarketParams","components":[{"name":"borrower","type":"address","internalType":"address"},{"name":"creditPositionId","type":"uint256","internalType":"uint256"},{"name":"amount","type":"uint256","internalType":"uint256"},{"name":"maturity","type":"uint256","internalType":"uint256"},{"name":"deadline","type":"uint256","internalType":"uint256"},{"name":"minAPR","type":"uint256","internalType":"uint256"},{"name":"exactAmountIn","type":"bool","internalType":"bool"},{"name":"collectionId","type":"uint256","internalType":"uint256"},{"name":"rateProvider","type":"address","internalType":"address"}]}],"outputs":[],"stateMutability":"payable"},{"type":"function","name":"buyCreditMarketOnBehalfOf","inputs":[{"name":"externalParams","type":"tuple","internalType":"struct BuyCreditMarketOnBehalfOfParams","components":[{"name":"params","type":"tuple","internalType":"struct BuyCreditMarketParams","components":[{"name":"borrower","type":"address","internalType":"address"},{"name":"creditPositionId","type":"uint256","internalType":"uint256"},{"name":"amount","type":"uint256","internalType":"uint256"},{"name":"maturity","type":"uint256","internalType":"uint256"},{"name":"deadline","type":"uint256","internalType":"uint256"},{"name":"minAPR","type":"uint256","internalType":"uint256"},{"name":"exactAmountIn","type":"bool","internalType":"bool"},{"name":"collectionId","type":"uint256","internalType":"uint256"},{"name":"rateProvider","type":"address","internalType":"address"}]},{"name":"onBehalfOf","type":"address","internalType":"address"},{"name":"recipient","type":"address","internalType":"address"}]}],"outputs":[],"stateMutability":"payable"},{"type":"function","name":"claim","inputs":[{"name":"params","type":"tuple","internalType":"struct ClaimParams","components":[{"name":"creditPositionId","type":"uint256","internalType":"uint256"}]}],"outputs":[],"stateMutability":"payable"},{"type":"function","name":"collateralRatio","inputs":[{"name":"user","type":"address","internalType":"address"}],"outputs":[{"name":"","type":"uint256","internalType":"uint256"}],"stateMutability":"view"},{"type":"function","name":"compensate","inputs":[{"name":"params","type":"tuple","internalType":"struct CompensateParams","components":[{"name":"creditPositionWithDebtToRepayId","type":"uint256","internalType":"uint256"},{"name":"creditPositionToCompensateId","type":"uint256","internalType":"uint256"},{"name":"amount","type":"uint256","internalType":"uint256"}]}],"outputs":[],"stateMutability":"payable"},{"type":"function","name":"compensateOnBehalfOf","inputs":[{"name":"externalParams","type":"tuple","internalType":"struct CompensateOnBehalfOfParams","components":[{"name":"params","type":"tuple","internalType":"struct CompensateParams","components":[{"name":"creditPositionWithDebtToRepayId","type":"uint256","internalType":"uint256"},{"name":"creditPositionToCompensateId","type":"uint256","internalType":"uint256"},{"name":"amount","type":"uint256","internalType":"uint256"}]},{"name":"onBehalfOf","type":"address","internalType":"address"}]}],"outputs":[],"stateMutability":"payable"},{"type":"function","name":"data","inputs":[],"outputs":[{"name":"","type":"tuple","internalType":"struct DataView","components":[{"name":"nextDebtPositionId","type":"uint256","internalType":"uint256"},{"name":"nextCreditPositionId","type":"uint256","internalType":"uint256"},{"name":"underlyingCollateralToken","type":"address","internalType":"contract IERC20Metadata"},{"name":"underlyingBorrowToken","type":"address","internalType":"contract IERC20Metadata"},{"name":"collateralToken","type":"address","internalType":"contract NonTransferrableToken"},{"name":"borrowTokenVault","type":"address","internalType":"contract NonTransferrableRebasingTokenVault"},{"name":"debtToken","type":"address","internalType":"contract NonTransferrableToken"},{"name":"variablePool","type":"address","internalType":"contract IPool"}]}],"stateMutability":"view"},{"type":"function","name":"debtTokenAmountToCollateralTokenAmount","inputs":[{"name":"amount","type":"uint256","internalType":"uint256"}],"outputs":[{"name":"","type":"uint256","internalType":"uint256"}],"stateMutability":"view"},{"type":"function","name":"deposit","inputs":[{"name":"params","type":"tuple","internalType":"struct DepositParams","components":[{"name":"token","type":"address","internalType":"address"},{"name":"amount","type":"uint256","internalType":"uint256"},{"name":"to","type":"address","internalType":"address"}]}],"outputs":[],"stateMutability":"payable"},{"type":"function","name":"depositOnBehalfOf","inputs":[{"name":"params","type":"tuple","internalType":"struct DepositOnBehalfOfParams","components":[{"name":"params","type":"tuple","internalType":"struct DepositParams","components":[{"name":"token","type":"address","internalType":"address"},{"name":"amount","type":"uint256","internalType":"uint256"},{"name":"to","type":"address","internalType":"address"}]},{"name":"onBehalfOf","type":"address","internalType":"address"}]}],"outputs":[],"stateMutability":"payable"},{"type":"function","name":"extSload","inputs":[{"name":"key","type":"bytes32","internalType":"bytes32"}],"outputs":[{"name":"result","type":"bytes32","internalType":"bytes32"}],"stateMutability":"view"},{"type":"function","name":"feeConfig","inputs":[],"outputs":[{"name":"","type":"tuple","internalType":"struct InitializeFeeConfigParams","components":[{"name":"swapFeeAPR","type":"uint256","internalType":"uint256"},{"name":"fragmentationFee","type":"uint256","internalType":"uint256"},{"name":"liquidationRewardPercent","type":"uint256","internalType":"uint256"},{"name":"overdueCollateralProtocolPercent","type":"uint256","internalType":"uint256"},{"name":"collateralProtocolPercent","type":"uint256","internalType":"uint256"},{"name":"feeRecipient","type":"address","internalType":"address"}]}],"stateMutability":"view"},{"type":"function","name":"getBorrowOfferAPR","inputs":[{"name":"user","type":"address","internalType":"address"},{"name":"collectionId","type":"uint256","internalType":"uint256"},{"name":"rateProvider","type":"address","internalType":"address"},{"name":"maturity","type":"uint256","internalType":"uint256"}],"outputs":[{"name":"","type":"uint256","internalType":"uint256"}],"stateMutability":"view"},{"type":"function","name":"getBuyCreditMarketSwapData","inputs":[{"name":"params","type":"tuple","internalType":"struct BuyCreditMarketParams","components":[{"name":"borrower","type":"address","internalType":"address"},{"name":"creditPositionId","type":"uint256","internalType":"uint256"},{"name":"amount","type":"uint256","internalType":"uint256"},{"name":"maturity","type":"uint256","internalType":"uint256"},{"name":"deadline","type":"uint256","internalType":"uint256"},{"name":"minAPR","type":"uint256","internalType":"uint256"},{"name":"exactAmountIn","type":"bool","internalType":"bool"},{"name":"collectionId","type":"uint256","internalType":"uint256"},{"name":"rateProvider","type":"address","internalType":"address"}]}],"outputs":[{"name":"","type":"tuple","internalType":"struct BuyCreditMarket.SwapDataBuyCreditMarket","components":[{"name":"creditPosition","type":"tuple","internalType":"struct CreditPosition","components":[{"name":"lender","type":"address","internalType":"address"},{"name":"forSale","type":"bool","internalType":"bool"},{"name":"credit","type":"uint256","internalType":"uint256"},{"name":"debtPositionId","type":"uint256","internalType":"uint256"}]},{"name":"borrower","type":"address","internalType":"address"},{"name":"creditAmountOut","type":"uint256","internalType":"uint256"},{"name":"cashAmountIn","type":"uint256","internalType":"uint256"},{"name":"swapFee","type":"uint256","internalType":"uint256"},{"name":"fragmentationFee","type":"uint256","internalType":"uint256"},{"name":"maturity","type":"uint256","internalType":"uint256"}]}],"stateMutability":"view"},{"type":"function","name":"getCreditPosition","inputs":[{"name":"creditPositionId","type":"uint256","internalType":"uint256"}],"outputs":[{"name":"","type":"tuple","internalType":"struct CreditPosition","components":[{"name":"lender","type":"address","internalType":"address"},{"name":"forSale","type":"bool","internalType":"bool"},{"name":"credit","type":"uint256","internalType":"uint256"},{"name":"debtPositionId","type":"uint256","internalType":"uint256"}]}],"stateMutability":"view"},{"type":"function","name":"getDebtPosition","inputs":[{"name":"debtPositionId","type":"uint256","internalType":"uint256"}],"outputs":[{"name":"","type":"tuple","internalType":"struct DebtPosition","components":[{"name":"borrower","type":"address","internalType":"address"},{"name":"futureValue","type":"uint256","internalType":"uint256"},{"name":"dueDate","type":"uint256","internalType":"uint256"},{"name":"liquidityIndexAtRepayment","type":"uint256","internalType":"uint256"}]}],"stateMutability":"view"},{"type":"function","name":"getLoanOfferAPR","inputs":[{"name":"user","type":"address","internalType":"address"},{"name":"collectionId","type":"uint256","internalType":"uint256"},{"name":"rateProvider","type":"address","internalType":"address"},{"name":"maturity","type":"uint256","internalType":"uint256"}],"outputs":[{"name":"","type":"uint256","internalType":"uint256"}],"stateMutability":"view"},{"type":"function","name":"getRoleAdmin","inputs":[{"name":"role","type":"bytes32","internalType":"bytes32"}],"outputs":[{"name":"","type":"bytes32","internalType":"bytes32"}],"stateMutability":"view"},{"type":"function","name":"getSellCreditMarketSwapData","inputs":[{"name":"params","type":"tuple","internalType":"struct SellCreditMarketParams","components":[{"name":"lender","type":"address","internalType":"address"},{"name":"creditPositionId","type":"uint256","internalType":"uint256"},{"name":"amount","type":"uint256","internalType":"uint256"},{"name":"maturity","type":"uint256","internalType":"uint256"},{"name":"deadline","type":"uint256","internalType":"uint256"},{"name":"maxAPR","type":"uint256","internalType":"uint256"},{"name":"exactAmountIn","type":"bool","internalType":"bool"},{"name":"collectionId","type":"uint256","internalType":"uint256"},{"name":"rateProvider","type":"address","internalType":"address"}]}],"outputs":[{"name":"","type":"tuple","internalType":"struct SellCreditMarket.SwapDataSellCreditMarket","components":[{"name":"creditPosition","type":"tuple","internalType":"struct CreditPosition","components":[{"name":"lender","type":"address","internalType":"address"},{"name":"forSale","type":"bool","internalType":"bool"},{"name":"credit","type":"uint256","internalType":"uint256"},{"name":"debtPositionId","type":"uint256","internalType":"uint256"}]},{"name":"creditAmountIn","type":"uint256","internalType":"uint256"},{"name":"cashAmountOut","type":"uint256","internalType":"uint256"},{"name":"swapFee","type":"uint256","internalType":"uint256"},{"name":"fragmentationFee","type":"uint256","internalType":"uint256"},{"name":"maturity","type":"uint256","internalType":"uint256"}]}],"stateMutability":"view"},{"type":"function","name":"getUserDefinedBorrowOfferAPR","inputs":[{"name":"borrower","type":"address","internalType":"address"},{"name":"maturity","type":"uint256","internalType":"uint256"}],"outputs":[{"name":"","type":"uint256","internalType":"uint256"}],"stateMutability":"view"},{"type":"function","name":"getUserDefinedCopyLimitOrderConfigs","inputs":[{"name":"user","type":"address","internalType":"address"}],"outputs":[{"name":"","type":"tuple","internalType":"struct CopyLimitOrderConfig","components":[{"name":"minTenor","type":"uint256","internalType":"uint256"},{"name":"maxTenor","type":"uint256","internalType":"uint256"},{"name":"minAPR","type":"uint256","internalType":"uint256"},{"name":"maxAPR","type":"uint256","internalType":"uint256"},{"name":"offsetAPR","type":"int256","internalType":"int256"}]},{"name":"","type":"tuple","internalType":"struct CopyLimitOrderConfig","components":[{"name":"minTenor","type":"uint256","internalType":"uint256"},{"name":"maxTenor","type":"uint256","internalType":"uint256"},{"name":"minAPR","type":"uint256","internalType":"uint256"},{"name":"maxAPR","type":"uint256","internalType":"uint256"},{"name":"offsetAPR","type":"int256","internalType":"int256"}]}],"stateMutability":"view"},{"type":"function","name":"getUserDefinedLoanOfferAPR","inputs":[{"name":"lender","type":"address","internalType":"address"},{"name":"maturity","type":"uint256","internalType":"uint256"}],"outputs":[{"name":"","type":"uint256","internalType":"uint256"}],"stateMutability":"view"},{"type":"function","name":"getUserView","inputs":[{"name":"user","type":"address","internalType":"address"}],"outputs":[{"name":"","type":"tuple","internalType":"struct UserView","components":[{"name":"user","type":"tuple","internalType":"struct User","components":[{"name":"loanOffer","type":"tuple","internalType":"struct FixedMaturityLimitOrder","components":[{"name":"maturities","type":"uint256[]","internalType":"uint256[]"},{"name":"aprs","type":"uint256[]","internalType":"uint256[]"}]},{"name":"borrowOffer","type":"tuple","internalType":"struct FixedMaturityLimitOrder","components":[{"name":"maturities","type":"uint256[]","internalType":"uint256[]"},{"name":"aprs","type":"uint256[]","internalType":"uint256[]"}]},{"name":"openingLimitBorrowCR","type":"uint256","internalType":"uint256"},{"name":"allCreditPositionsForSaleDisabled","type":"bool","internalType":"bool"}]},{"name":"account","type":"address","internalType":"address"},{"name":"collateralTokenBalance","type":"uint256","internalType":"uint256"},{"name":"borrowTokenBalance","type":"uint256","internalType":"uint256"},{"name":"debtBalance","type":"uint256","internalType":"uint256"}]}],"stateMutability":"view"},{"type":"function","name":"grantRole","inputs":[{"name":"role","type":"bytes32","internalType":"bytes32"},{"name":"account","type":"address","internalType":"address"}],"outputs":[],"stateMutability":"nonpayable"},{"type":"function","name":"hasRole","inputs":[{"name":"role","type":"bytes32","internalType":"bytes32"},{"name":"account","type":"address","internalType":"address"}],"outputs":[{"name":"","type":"bool","internalType":"bool"}],"stateMutability":"view"},{"type":"function","name":"initialize","inputs":[{"name":"owner","type":"address","internalType":"address"},{"name":"f","type":"tuple","internalType":"struct InitializeFeeConfigParams","components":[{"name":"swapFeeAPR","type":"uint256","internalType":"uint256"},{"name":"fragmentationFee","type":"uint256","internalType":"uint256"},{"name":"liquidationRewardPercent","type":"uint256","internalType":"uint256"},{"name":"overdueCollateralProtocolPercent","type":"uint256","internalType":"uint256"},{"name":"collateralProtocolPercent","type":"uint256","internalType":"uint256"},{"name":"feeRecipient","type":"address","internalType":"address"}]},{"name":"r","type":"tuple","internalType":"struct InitializeRiskConfigParams","components":[{"name":"crOpening","type":"uint256","internalType":"uint256"},{"name":"crLiquidation","type":"uint256","internalType":"uint256"},{"name":"minimumCreditBorrowToken","type":"uint256","internalType":"uint256"},{"name":"minTenor","type":"uint256","internalType":"uint256"},{"name":"maxTenor","type":"uint256","internalType":"uint256"},{"name":"maturities","type":"uint256[]","internalType":"uint256[]"}]},{"name":"o","type":"tuple","internalType":"struct InitializeOracleParams","components":[{"name":"priceFeed","type":"address","internalType":"address"}]},{"name":"d","type":"tuple","internalType":"struct InitializeDataParams","components":[{"name":"weth","type":"address","internalType":"address"},{"name":"underlyingCollateralToken","type":"address","internalType":"address"},{"name":"underlyingBorrowToken","type":"address","internalType":"address"},{"name":"variablePool","type":"address","internalType":"address"},{"name":"borrowTokenVault","type":"address","internalType":"address"},{"name":"sizeFactory","type":"address","internalType":"address"}]}],"outputs":[],"stateMutability":"nonpayable"},{"type":"function","name":"isUserDefinedLimitOrdersNull","inputs":[{"name":"user","type":"address","internalType":"address"}],"outputs":[{"name":"isLoanOfferNull","type":"bool","internalType":"bool"},{"name":"isBorrowOfferNull","type":"bool","internalType":"bool"}],"stateMutability":"view"},{"type":"function","name":"liquidate","inputs":[{"name":"params","type":"tuple","internalType":"struct LiquidateParams","components":[{"name":"debtPositionId","type":"uint256","internalType":"uint256"},{"name":"minimumCollateralProfit","type":"uint256","internalType":"uint256"},{"name":"deadline","type":"uint256","internalType":"uint256"}]}],"outputs":[{"name":"liquidatorProfitCollateralToken","type":"uint256","internalType":"uint256"}],"stateMutability":"payable"},{"type":"function","name":"marketShutdown","inputs":[{"name":"params","type":"tuple","internalType":"struct MarketShutdownParams","components":[{"name":"debtPositionIdsToForceLiquidate","type":"uint256[]","internalType":"uint256[]"},{"name":"creditPositionIdsToClaim","type":"uint256[]","internalType":"uint256[]"},{"name":"usersToForceWithdraw","type":"address[]","internalType":"address[]"},{"name":"shouldCheckSupply","type":"bool","internalType":"bool"}]}],"outputs":[],"stateMutability":"nonpayable"},{"type":"function","name":"multicall","inputs":[{"name":"_data","type":"bytes[]","internalType":"bytes[]"}],"outputs":[{"name":"results","type":"bytes[]","internalType":"bytes[]"}],"stateMutability":"payable"},{"type":"function","name":"oracle","inputs":[],"outputs":[{"name":"","type":"tuple","internalType":"struct InitializeOracleParams","components":[{"name":"priceFeed","type":"address","internalType":"address"}]}],"stateMutability":"view"},{"type":"function","name":"partialRepay","inputs":[{"name":"params","type":"tuple","internalType":"struct PartialRepayParams","components":[{"name":"creditPositionWithDebtToRepayId","type":"uint256","internalType":"uint256"},{"name":"amount","type":"uint256","internalType":"uint256"},{"name":"borrower","type":"address","internalType":"address"}]}],"outputs":[],"stateMutability":"payable"},{"type":"function","name":"pause","inputs":[],"outputs":[],"stateMutability":"nonpayable"},{"type":"function","name":"paused","inputs":[],"outputs":[{"name":"","type":"bool","internalType":"bool"}],"stateMutability":"view"},{"type":"function","name":"proxiableUUID","inputs":[],"outputs":[{"name":"","type":"bytes32","internalType":"bytes32"}],"stateMutability":"view"},{"type":"function","name":"renounceRole","inputs":[{"name":"role","type":"bytes32","internalType":"bytes32"},{"name":"callerConfirmation","type":"address","internalType":"address"}],"outputs":[],"stateMutability":"nonpayable"},{"type":"function","name":"repay","inputs":[{"name":"params","type":"tuple","internalType":"struct RepayParams","components":[{"name":"debtPositionId","type":"uint256","internalType":"uint256"},{"name":"borrower","type":"address","internalType":"address"}]}],"outputs":[],"stateMutability":"payable"},{"type":"function","name":"revokeRole","inputs":[{"name":"role","type":"bytes32","internalType":"bytes32"},{"name":"account","type":"address","internalType":"address"}],"outputs":[],"stateMutability":"nonpayable"},{"type":"function","name":"riskConfig","inputs":[],"outputs":[{"name":"","type":"tuple","internalType":"struct InitializeRiskConfigParams","components":[{"name":"crOpening","type":"uint256","internalType":"uint256"},{"name":"crLiquidation","type":"uint256","internalType":"uint256"},{"name":"minimumCreditBorrowToken","type":"uint256","internalType":"uint256"},{"name":"minTenor","type":"uint256","internalType":"uint256"},{"name":"maxTenor","type":"uint256","internalType":"uint256"},{"name":"maturities","type":"uint256[]","internalType":"uint256[]"}]}],"stateMutability":"view"},{"type":"function","name":"selfLiquidate","inputs":[{"name":"params","type":"tuple","internalType":"struct SelfLiquidateParams","components":[{"name":"creditPositionId","type":"uint256","internalType":"uint256"}]}],"outputs":[],"stateMutability":"payable"},{"type":"function","name":"selfLiquidateOnBehalfOf","inputs":[{"name":"externalParams","type":"tuple","internalType":"struct SelfLiquidateOnBehalfOfParams","components":[{"name":"params","type":"tuple","internalType":"struct SelfLiquidateParams","components":[{"name":"creditPositionId","type":"uint256","internalType":"uint256"}]},{"name":"onBehalfOf","type":"address","internalType":"address"},{"name":"recipient","type":"address","internalType":"address"}]}],"outputs":[],"stateMutability":"payable"},{"type":"function","name":"sellCreditLimit","inputs":[{"name":"params","type":"tuple","internalType":"struct SellCreditLimitParams","components":[{"name":"maturities","type":"uint256[]","internalType":"uint256[]"},{"name":"aprs","type":"uint256[]","internalType":"uint256[]"}]}],"outputs":[],"stateMutability":"payable"},{"type":"function","name":"sellCreditLimitOnBehalfOf","inputs":[{"name":"externalParams","type":"tuple","internalType":"struct SellCreditLimitOnBehalfOfParams","components":[{"name":"params","type":"tuple","internalType":"struct SellCreditLimitParams","components":[{"name":"maturities","type":"uint256[]","internalType":"uint256[]"},{"name":"aprs","type":"uint256[]","internalType":"uint256[]"}]},{"name":"onBehalfOf","type":"address","internalType":"address"}]}],"outputs":[],"stateMutability":"payable"},{"type":"function","name":"sellCreditMarket","inputs":[{"name":"params","type":"tuple","internalType":"struct SellCreditMarketParams","components":[{"name":"lender","type":"address","internalType":"address"},{"name":"creditPositionId","type":"uint256","internalType":"uint256"},{"name":"amount","type":"uint256","internalType":"uint256"},{"name":"maturity","type":"uint256","internalType":"uint256"},{"name":"deadline","type":"uint256","internalType":"uint256"},{"name":"maxAPR","type":"uint256","internalType":"uint256"},{"name":"exactAmountIn","type":"bool","internalType":"bool"},{"name":"collectionId","type":"uint256","internalType":"uint256"},{"name":"rateProvider","type":"address","internalType":"address"}]}],"outputs":[],"stateMutability":"payable"},{"type":"function","name":"sellCreditMarketOnBehalfOf","inputs":[{"name":"externalParams","type":"tuple","internalType":"struct SellCreditMarketOnBehalfOfParams","components":[{"name":"params","type":"tuple","internalType":"struct SellCreditMarketParams","components":[{"name":"lender","type":"address","internalType":"address"},{"name":"creditPositionId","type":"uint256","internalType":"uint256"},{"name":"amount","type":"uint256","internalType":"uint256"},{"name":"maturity","type":"uint256","internalType":"uint256"},{"name":"deadline","type":"uint256","internalType":"uint256"},{"name":"maxAPR","type":"uint256","internalType":"uint256"},{"name":"exactAmountIn","type":"bool","internalType":"bool"},{"name":"collectionId","type":"uint256","internalType":"uint256"},{"name":"rateProvider","type":"address","internalType":"address"}]},{"name":"onBehalfOf","type":"address","internalType":"address"},{"name":"recipient","type":"address","internalType":"address"}]}],"outputs":[],"stateMutability":"payable"},{"type":"function","name":"setCopyLimitOrderConfigs","inputs":[{"name":"params","type":"tuple","internalType":"struct SetCopyLimitOrderConfigsParams","components":[{"name":"copyLoanOfferConfig","type":"tuple","internalType":"struct CopyLimitOrderConfig","components":[{"name":"minTenor","type":"uint256","internalType":"uint256"},{"name":"maxTenor","type":"uint256","internalType":"uint256"},{"name":"minAPR","type":"uint256","internalType":"uint256"},{"name":"maxAPR","type":"uint256","internalType":"uint256"},{"name":"offsetAPR","type":"int256","internalType":"int256"}]},{"name":"copyBorrowOfferConfig","type":"tuple","internalType":"struct CopyLimitOrderConfig","components":[{"name":"minTenor","type":"uint256","internalType":"uint256"},{"name":"maxTenor","type":"uint256","internalType":"uint256"},{"name":"minAPR","type":"uint256","internalType":"uint256"},{"name":"maxAPR","type":"uint256","internalType":"uint256"},{"name":"offsetAPR","type":"int256","internalType":"int256"}]}]}],"outputs":[],"stateMutability":"payable"},{"type":"function","name":"setCopyLimitOrderConfigsOnBehalfOf","inputs":[{"name":"externalParams","type":"tuple","internalType":"struct SetCopyLimitOrderConfigsOnBehalfOfParams","components":[{"name":"params","type":"tuple","internalType":"struct SetCopyLimitOrderConfigsParams","components":[{"name":"copyLoanOfferConfig","type":"tuple","internalType":"struct CopyLimitOrderConfig","components":[{"name":"minTenor","type":"uint256","internalType":"uint256"},{"name":"maxTenor","type":"uint256","internalType":"uint256"},{"name":"minAPR","type":"uint256","internalType":"uint256"},{"name":"maxAPR","type":"uint256","internalType":"uint256"},{"name":"offsetAPR","type":"int256","internalType":"int256"}]},{"name":"copyBorrowOfferConfig","type":"tuple","internalType":"struct CopyLimitOrderConfig","components":[{"name":"minTenor","type":"uint256","internalType":"uint256"},{"name":"maxTenor","type":"uint256","internalType":"uint256"},{"name":"minAPR","type":"uint256","internalType":"uint256"},{"name":"maxAPR","type":"uint256","internalType":"uint256"},{"name":"offsetAPR","type":"int256","internalType":"int256"}]}]},{"name":"onBehalfOf","type":"address","internalType":"address"}]}],"outputs":[],"stateMutability":"payable"},{"type":"function","name":"setUserConfiguration","inputs":[{"name":"params","type":"tuple","internalType":"struct SetUserConfigurationParams","components":[{"name":"openingLimitBorrowCR","type":"uint256","internalType":"uint256"},{"name":"allCreditPositionsForSaleDisabled","type":"bool","internalType":"bool"},{"name":"creditPositionIdsForSale","type":"bool","internalType":"bool"},{"name":"creditPositionIds","type":"uint256[]","internalType":"uint256[]"}]}],"outputs":[],"stateMutability":"payable"},{"type":"function","name":"setUserConfigurationOnBehalfOf","inputs":[{"name":"externalParams","type":"tuple","internalType":"struct SetUserConfigurationOnBehalfOfParams","components":[{"name":"params","type":"tuple","internalType":"struct SetUserConfigurationParams","components":[{"name":"openingLimitBorrowCR","type":"uint256","internalType":"uint256"},{"name":"allCreditPositionsForSaleDisabled","type":"bool","internalType":"bool"},{"name":"creditPositionIdsForSale","type":"bool","internalType":"bool"},{"name":"creditPositionIds","type":"uint256[]","internalType":"uint256[]"}]},{"name":"onBehalfOf","type":"address","internalType":"address"}]}],"outputs":[],"stateMutability":"payable"},{"type":"function","name":"setVault","inputs":[{"name":"params","type":"tuple","internalType":"struct SetVaultParams","components":[{"name":"vault","type":"address","internalType":"address"},{"name":"forfeitOldShares","type":"bool","internalType":"bool"}]}],"outputs":[],"stateMutability":"payable"},{"type":"function","name":"setVaultOnBehalfOf","inputs":[{"name":"externalParams","type":"tuple","internalType":"struct SetVaultOnBehalfOfParams","components":[{"name":"params","type":"tuple","internalType":"struct SetVaultParams","components":[{"name":"vault","type":"address","internalType":"address"},{"name":"forfeitOldShares","type":"bool","internalType":"bool"}]},{"name":"onBehalfOf","type":"address","internalType":"address"}]}],"outputs":[],"stateMutability":"payable"},{"type":"function","name":"supportsInterface","inputs":[{"name":"interfaceId","type":"bytes4","internalType":"bytes4"}],"outputs":[{"name":"","type":"bool","internalType":"bool"}],"stateMutability":"view"},{"type":"function","name":"unpause","inputs":[],"outputs":[],"stateMutability":"nonpayable"},{"type":"function","name":"updateConfig","inputs":[{"name":"params","type":"tuple","internalType":"struct UpdateConfigParams","components":[{"name":"key","type":"string","internalType":"string"},{"name":"value","type":"uint256","internalType":"uint256"}]}],"outputs":[],"stateMutability":"nonpayable"},{"type":"function","name":"upgradeToAndCall","inputs":[{"name":"newImplementation","type":"address","internalType":"address"},{"name":"data","type":"bytes","internalType":"bytes"}],"outputs":[],"stateMutability":"payable"},{"type":"function","name":"version","inputs":[],"outputs":[{"name":"","type":"string","internalType":"string"}],"stateMutability":"pure"},{"type":"function","name":"withdraw","inputs":[{"name":"params","type":"tuple","internalType":"struct WithdrawParams","components":[{"name":"token","type":"address","internalType":"address"},{"name":"amount","type":"uint256","internalType":"uint256"},{"name":"to","type":"address","internalType":"address"}]}],"outputs":[],"stateMutability":"payable"},{"type":"function","name":"withdrawOnBehalfOf","inputs":[{"name":"externalParams","type":"tuple","internalType":"struct WithdrawOnBehalfOfParams","components":[{"name":"params","type":"tuple","internalType":"struct WithdrawParams","components":[{"name":"token","type":"address","internalType":"address"},{"name":"amount","type":"uint256","internalType":"uint256"},{"name":"to","type":"address","internalType":"address"}]},{"name":"onBehalfOf","type":"address","internalType":"address"}]}],"outputs":[],"stateMutability":"payable"},{"type":"event","name":"Initialized","inputs":[{"name":"version","type":"uint64","indexed":false,"internalType":"uint64"}],"anonymous":false},{"type":"event","name":"Paused","inputs":[{"name":"account","type":"address","indexed":false,"internalType":"address"}],"anonymous":false},{"type":"event","name":"RoleAdminChanged","inputs":[{"name":"role","type":"bytes32","indexed":true,"internalType":"bytes32"},{"name":"previousAdminRole","type":"bytes32","indexed":true,"internalType":"bytes32"},{"name":"newAdminRole","type":"bytes32","indexed":true,"internalType":"bytes32"}],"anonymous":false},{"type":"event","name":"RoleGranted","inputs":[{"name":"role","type":"bytes32","indexed":true,"internalType":"bytes32"},{"name":"account","type":"address","indexed":true,"internalType":"address"},{"name":"sender","type":"address","indexed":true,"internalType":"address"}],"anonymous":false},{"type":"event","name":"RoleRevoked","inputs":[{"name":"role","type":"bytes32","indexed":true,"internalType":"bytes32"},{"name":"account","type":"address","indexed":true,"internalType":"address"},{"name":"sender","type":"address","indexed":true,"internalType":"address"}],"anonymous":false},{"type":"event","name":"Unpaused","inputs":[{"name":"account","type":"address","indexed":false,"internalType":"address"}],"anonymous":false},{"type":"event","name":"Upgraded","inputs":[{"name":"implementation","type":"address","indexed":true,"internalType":"address"}],"anonymous":false},{"type":"error","name":"AccessControlBadConfirmation","inputs":[]},{"type":"error","name":"AccessControlUnauthorizedAccount","inputs":[{"name":"account","type":"address","internalType":"address"},{"name":"neededRole","type":"bytes32","internalType":"bytes32"}]},{"type":"error","name":"AddressEmptyCode","inputs":[{"name":"target","type":"address","internalType":"address"}]},{"type":"error","name":"ERC1967InvalidImplementation","inputs":[{"name":"implementation","type":"address","internalType":"address"}]},{"type":"error","name":"ERC1967NonPayable","inputs":[]},{"type":"error","name":"EnforcedPause","inputs":[]},{"type":"error","name":"ExpectedPause","inputs":[]},{"type":"error","name":"FailedCall","inputs":[]},{"type":"error","name":"INVALID_MATURITY","inputs":[{"name":"maturity","type":"uint256","internalType":"uint256"}]},{"type":"error","name":"INVALID_OFFER","inputs":[{"name":"account","type":"address","internalType":"address"}]},{"type":"error","name":"InvalidInitialization","inputs":[]},{"type":"error","name":"MUST_IMPROVE_COLLATERAL_RATIO","inputs":[{"name":"account","type":"address","internalType":"address"},{"name":"crBefore","type":"uint256","internalType":"uint256"},{"name":"crAfter","type":"uint256","internalType":"uint256"}]},{"type":"error","name":"NULL_MATURITY","inputs":[]},{"type":"error","name":"NotInitializing","inputs":[]},{"type":"error","name":"PAST_MATURITY","inputs":[{"name":"maturity","type":"uint256","internalType":"uint256"}]},{"type":"error","name":"ReentrancyGuardReentrantCall","inputs":[]},{"type":"error","name":"UUPSUnauthorizedCallContext","inputs":[]},{"type":"error","name":"UUPSUnsupportedProxiableUUID","inputs":[{"name":"slot","type":"bytes32","internalType":"bytes32"}]}],"bytecode":{"object":"0x60a06040523060805234801562000014575f80fd5b506200001f62000025565b620000d9565b7ff0c57e16840df040f15088dc2f81fe391c3923bec73e23a9662efc9c229c6a00805468010000000000000000900460ff1615620000765760405163f92ee8a960e01b815260040160405180910390fd5b80546001600160401b0390811614620000d65780546001600160401b0319166001600160401b0390811782556040519081527fc7f505b2f371ae2175ee4913f4499e1f2633a7b5936321eed1cdaeb6115181d29060200160405180910390a15b50565b6080516158b3620001005f395f81816133eb01528181613414015261357c01526158b35ff3fe60806040526004361061039d575f3560e01c806373d4a13a116101de578063aaaf97ab11610108578063d7de575e1161009d578063f54ae18b1161006d578063f54ae18b14610b9a578063fa823af514610bad578063fd17174a14610bc0578063fd316f0b14610bd3575f80fd5b8063d7de575e14610b34578063e05001f514610b61578063e236052b14610b74578063f45bf01c14610b87575f80fd5b8063b5ec7487116100d8578063b5ec748714610a88578063ca40742c14610ae3578063cb2e9bdc14610b02578063d547741f14610b15575f80fd5b8063aaaf97ab14610a07578063ac9650d814610a25578063accb807a14610a45578063ad3cb1cc14610a58575f80fd5b8063834dafb51161017e5780638ea68d7e1161014e5780638ea68d7e1461099657806391d14854146109a95780639ab80115146109c8578063a217fddf146109f4575f80fd5b8063834dafb5146109495780638456cb591461095c5780638ccad699146109705780638e57277614610983575f80fd5b80637a32376a116101b95780637a32376a146108d65780637c90a6ca146108e95780637dc0d1d01461090a5780637f417c0614610936575f80fd5b806373d4a13a1461077357806375829a361461089757806376c1b82f146108aa575f80fd5b80632e106f21116102ca578063510aeb391161025f5780635c975abb1161022f5780635c975abb146106e65780635cbc51eb1461070957806365e33f7d1461073557806373b683be14610754575f80fd5b8063510aeb391461067557806352d1902d14610688578063536b9c791461069c57806354fd4d50146106af575f80fd5b80633962a6861161029a5780633962a686146106285780633ae6d7c31461063b5780633f4ba83a1461064e5780634f1ef28614610662575f80fd5b80632e106f21146105c45780632f2ff15d146105d757806336568abe146105f65780633745afe914610615575f80fd5b8063134f3f96116103405780631ff75b0b116103105780631ff75b0b14610554578063248a9ca3146105735780632b4c9a20146105925780632b59bd99146105a5575f80fd5b8063134f3f96146104ab5780631970e5ea146104be5780631df0b63b146104dd5780631e5eb1d0146104f0575f80fd5b80630317b9df1161037b5780630317b9df1461041657806306be2e49146104355780630cf8542f1461046b5780630d37ab001461047e575f80fd5b806301ffc9a7146103a157806302088c51146103d557806302f2855a14610401575b5f80fd5b3480156103ac575f80fd5b506103c06103bb366004613cec565b610bf2565b60405190151581526020015b60405180910390f35b3480156103e0575f80fd5b506103f46103ef366004613eec565b610c28565b6040516103cc9190613f35565b61041461040f366004613faa565b610ca9565b005b348015610421575f80fd5b50610414610430366004613fd4565b610d9c565b348015610440575f80fd5b5061045461044f366004614005565b610e3b565b6040805192151583529015156020830152016103cc565b610414610479366004613faa565b610fe2565b348015610489575f80fd5b5061049d610498366004614020565b61100f565b6040519081526020016103cc565b6104146104b936600461414c565b611022565b3480156104c9575f80fd5b5061049d6104d83660046141ca565b6110d0565b6104146104eb3660046142a2565b6110db565b3480156104fb575f80fd5b50610504611189565b6040516103cc9190815181526020808301519082015260408083015190820152606080830151908201526080808301519082015260a0918201516001600160a01b03169181019190915260c00190565b34801561055f575f80fd5b5061049d61056e3660046142d3565b61123b565b34801561057e575f80fd5b5061049d61058d3660046141ca565b6112de565b6104146105a0366004613faa565b6112fe565b3480156105b0575f80fd5b5061049d6105bf366004614020565b61132b565b6104146105d2366004614328565b611337565b3480156105e2575f80fd5b506104146105f1366004614359565b61135d565b348015610601575f80fd5b50610414610610366004614359565b61137f565b610414610623366004613fd4565b6113b7565b6104146106363660046143dc565b6113dd565b61041461064936600461442f565b611528565b348015610659575f80fd5b5061041461176e565b61041461067036600461446d565b6117c7565b61041461068336600461450e565b6117e6565b348015610693575f80fd5b5061049d611813565b6104146106aa36600461454a565b61182e565b3480156106ba575f80fd5b506040805180820190915260068152651d8c4b8e0b8d60d21b60208201525b6040516103cc91906145e8565b3480156106f1575f80fd5b505f8051602061583e8339815191525460ff166103c0565b348015610714575f80fd5b50610728610723366004614005565b611927565b6040516103cc9190614661565b348015610740575f80fd5b5061041461074f366004614723565b611c4f565b34801561075f575f80fd5b5061049d61076e3660046142d3565b611e71565b34801561077e575f80fd5b5061082660408051610100810182525f80825260208201819052918101829052606081018290526080810182905260a0810182905260c0810182905260e0810191909152506040805161010081018252601154815260125460208201526014546001600160a01b03908116928201929092526015548216606082015260165482166080820152601954821660a0820152601754821660c082015260185490911660e082015290565b604080518251815260208084015190820152828201516001600160a01b039081169282019290925260608084015183169082015260808084015183169082015260a08084015183169082015260c08084015183169082015260e09283015190911691810191909152610100016103cc565b6104146108a53660046147da565b611ed0565b3480156108b5575f80fd5b506108c96108c43660046141ca565b611fc9565b6040516103cc919061480c565b6104146108e43660046148bb565b61208f565b3480156108f4575f80fd5b506108fd61213d565b6040516103cc91906148ef565b348015610915575f80fd5b5061091e6121e4565b60405190516001600160a01b031681526020016103cc565b61041461094436600461450e565b612263565b6104146109573660046143dc565b61230f565b348015610967575f80fd5b50610414612442565b61041461097e3660046142a2565b61249b565b610414610991366004613faa565b612549565b6104146109a4366004613eec565b612576565b3480156109b4575f80fd5b506103c06109c3366004614359565b6125ab565b3480156109d3575f80fd5b506109e76109e2366004613eec565b6125e1565b6040516103cc919061493b565b3480156109ff575f80fd5b5061049d5f81565b348015610a12575f80fd5b5061049d610a213660046141ca565b5490565b610a38610a33366004614987565b612662565b6040516103cc91906149f5565b610414610a53366004613fd4565b61266f565b348015610a63575f80fd5b506106d9604051806040016040528060058152602001640352e302e360dc1b81525081565b348015610a93575f80fd5b50610aa7610aa23660046141ca565b612695565b6040516103cc919081516001600160a01b0316815260208083015190820152604080830151908201526060918201519181019190915260800190565b348015610aee575f80fd5b5061049d610afd366004614005565b61277b565b610414610b10366004614a57565b6127fe565b348015610b20575f80fd5b50610414610b2f366004614359565b61282b565b348015610b3f575f80fd5b50610b53610b4e366004614005565b612847565b6040516103cc929190614a98565b61049d610b6f366004613faa565b61293a565b610414610b82366004614ab4565b612aad565b610414610b95366004614ac5565b612ae1565b610414610ba8366004614b52565b612b94565b610414610bbb366004614b52565b612c42565b610414610bce366004614ac5565b612cf0565b348015610bde575f80fd5b50610414610bed366004614328565b612d24565b5f6001600160e01b03198216637965db0b60e01b1480610c2257506301ffc9a760e01b6001600160e01b03198316145b92915050565b610c30613bb3565b604051631c81982560e11b815273__$909b104b05b98ab9b02bd00c4a2f54926d$__90633903304a90610c69905f908690600401614bdb565b61014060405180830381865af4158015610c85573d5f803e3d5ffd5b505050506040513d601f19601f82011682018060405250810190610c229190614c46565b610cb1612d8e565b610cb9612dc5565b604051635fed4de960e01b815273__$1ffb1d284a100711dc8ce94ffbdfd13eea$__90635fed4de990610cf2905f908590600401614cdb565b5f6040518083038186803b158015610d08575f80fd5b505af4158015610d1a573d5f803e3d5ffd5b505060405163d96aec4360e01b815273__$1ffb1d284a100711dc8ce94ffbdfd13eea$__925063d96aec439150610d57905f908590600401614cdb565b5f6040518083038186803b158015610d6d575f80fd5b505af4158015610d7f573d5f803e3d5ffd5b50505050610d9960015f8051602061585e83398151915255565b50565b5f610da78133612e0a565b610dd25760405163e2517d3f60e01b8152336004820152602481018290526044015b60405180910390fd5b604051634752b3b360e01b815273__$72c16261390208f563094e6a4fc9f74031$__90634752b3b390610e0b905f908690600401614d1d565b5f6040518083038186803b158015610e21575f80fd5b505af4158015610e33573d5f803e3d5ffd5b505050505050565b6001600160a01b0381165f908152600e602090815260408083208151815460609481028201850184529281018381528594610f0a94929392849291849190840182828015610ea657602002820191905f5260205f20905b815481526020019060010190808311610e92575b5050505050815260200160018201805480602002602001604051908101604052809291908181526020018280548015610efc57602002820191905f5260205f20905b815481526020019060010190808311610ee8575b505050505081525050612e9c565b6001600160a01b0384165f908152600e60209081526040918290208251600290910180546060938102830184018552938201848152610fd994929391928492849190840182828015610ea657602002820191905f5260205f2090815481526020019060010190808311610e92575050505050815260200160018201805480602002602001604051908101604052809291908181526020018280548015610efc57602002820191905f5260205f2090815481526020019060010190808311610ee857505050505081525050612e9c565b91509150915091565b610d996040518060400160405280838036038101906110019190614da1565b815233602090910152612c42565b5f61101b818484612eb3565b9392505050565b61102a612d8e565b611032612dc5565b6040516333d4ade560e01b815273__$f56cb86c34e0dd0dca51f5a3538433e18c$__906333d4ade59061106b905f908590600401614dbb565b5f6040518083038186803b158015611081575f80fd5b505af4158015611093573d5f803e3d5ffd5b505060405163178bcac760e11b815273__$f56cb86c34e0dd0dca51f5a3538433e18c$__9250632f17958e9150610d57905f908590600401614dbb565b5f610c228183612f8d565b6110e3612d8e565b6110eb612dc5565b604051637125eda960e11b815273__$339bef8b42d49ef7fc0392a1b9554f9551$__9063e24bdb5290611124905f908590600401614e85565b5f6040518083038186803b15801561113a575f80fd5b505af415801561114c573d5f803e3d5ffd5b505060405163184d91f360e31b815273__$339bef8b42d49ef7fc0392a1b9554f9551$__925063c26c8f989150610d57905f908590600401614e85565b6111c56040518060c001604052805f81526020015f81526020015f81526020015f81526020015f81526020015f6001600160a01b031681525090565b6040516386617e7760e01b81525f600482015273__$72c16261390208f563094e6a4fc9f74031$__906386617e779060240160c060405180830381865af4158015611212573d5f803e3d5ffd5b505050506040513d601f19601f820116820180604052508101906112369190614e9d565b905090565b60405163897bce1f60e01b81525f600482018190526001600160a01b0380871660248401526044830186905284166064830152608482018390529073__$fad1da84a532053b53119316a58e977f10$__9063897bce1f9060a4015b602060405180830381865af41580156112b1573d5f803e3d5ffd5b505050506040513d601f19601f820116820180604052508101906112d59190614efb565b95945050505050565b5f9081525f8051602061581e833981519152602052604090206001015490565b610d9960405180604001604052808380360381019061131d9190614da1565b815233602090910152612b94565b5f61101b81848461318d565b610d9960405180604001604052808361134f90614f12565b815233602090910152611022565b611366826112de565b61136f8161325d565b6113798383613267565b50505050565b6001600160a01b03811633146113a85760405163334bd91960e11b815260040160405180910390fd5b6113b28282613308565b505050565b610d996040518060400160405280836113cf90614f1d565b81523360209091015261249b565b6113e5612d8e565b6113ed612dc5565b60405163160b9e6b60e31b815273__$c58e2605104bb31274ad8c04841b6a7550$__9063b05cf35890611426905f908590600401614f59565b5f6040518083038186803b15801561143c575f80fd5b505af415801561144e573d5f803e3d5ffd5b5050604051639f46aa4160e01b815273__$c58e2605104bb31274ad8c04841b6a7550$__9250639f46aa41915061148b905f908590600401614f59565b5f6040518083038186803b1580156114a1575f80fd5b505af41580156114b3573d5f803e3d5ffd5b505050505f19815f015160200151036115125760208101516040516316bbd7db60e11b81525f60048201526001600160a01b03909116602482015273__$b44e0fdf2f6bdeffc1681a5a467d23dde6$__90632d77afb690604401610d57565b610d9960015f8051602061585e83398151915255565b611530612d8e565b611538612dc5565b602081015160405163046dbd1360e11b81525f600482018190526001600160a01b03909216602482015273__$b44e0fdf2f6bdeffc1681a5a467d23dde6$__906308db7a2690604401602060405180830381865af415801561159c573d5f803e3d5ffd5b505050506040513d601f19601f820116820180604052508101906115c09190614efb565b60405163f9c417bd60e01b815290915073__$7fa168b5d238863382c2bf886894022425$__9063f9c417bd906115fc905f908690600401614f6e565b5f6040518083038186803b158015611612575f80fd5b505af4158015611624573d5f803e3d5ffd5b5050604051634971bf9960e01b815273__$7fa168b5d238863382c2bf886894022425$__9250634971bf999150611661905f908690600401614f6e565b5f6040518083038186803b158015611677575f80fd5b505af4158015611689573d5f803e3d5ffd5b50505050602082015160405163046dbd1360e11b81525f600482018190526001600160a01b03909216602482015273__$b44e0fdf2f6bdeffc1681a5a467d23dde6$__906308db7a2690604401602060405180830381865af41580156116f1573d5f803e3d5ffd5b505050506040513d601f19601f820116820180604052508101906117159190614efb565b905081811161175657602083015160405163625a84dd60e01b81526001600160a01b0390911660048201526024810183905260448101829052606401610dc9565b5050610d9960015f8051602061585e83398151915255565b7f65d7a28e3265b37a6474929f336521b332c1681b933f6cb9f3376673440d862a6117998133612e0a565b6117bf5760405163e2517d3f60e01b815233600482015260248101829052604401610dc9565b610d99613381565b6117cf6133e0565b6117d882613484565b6117e282826134b5565b5050565b610d996040518060400160405280838036038101906118059190614faa565b815233602090910152611ed0565b5f61181c613571565b505f805160206157fe83398151915290565b611836612d8e565b61183e612dc5565b604080516325f2df6f60e01b81525f6004820152825151602482015260208301516001600160a01b03908116604483015291830151909116606482015273__$c19cfa413da1baf02a2307c9fe3d8deda6$__906325f2df6f906084015f6040518083038186803b1580156118b0575f80fd5b505af41580156118c2573d5f803e3d5ffd5b5050604080516330e78a9160e11b81525f6004820152845151602482015260208501516001600160a01b03908116604483015291850151909116606482015273__$c19cfa413da1baf02a2307c9fe3d8deda6$__92506361cf15229150608401610d57565b61192f613bf9565b604080516001600160a01b0384165f908152600e60209081529083902080546101809281028401830190945261016083018481529293849360a085019384926101208701928592849284918a01828280156119a757602002820191905f5260205f20905b815481526020019060010190808311611993575b50505050508152602001600182018054806020026020016040519081016040528092919081815260200182805480156119fd57602002820191905f5260205f20905b8154815260200190600101908083116119e9575b5050505050815250508152602001600282016040518060400160405290815f8201805480602002602001604051908101604052809291908181526020018280548015611a6657602002820191905f5260205f20905b815481526020019060010190808311611a52575b5050505050815260200160018201805480602002602001604051908101604052809291908181526020018280548015611abc57602002820191905f5260205f20905b815481526020019060010190808311611aa8575b50505091909252505050815260048281015460208084019190915260059093015460ff1615156040928301529284526001600160a01b0387811692850183905260165482516370a0823160e01b81529485019390935293019216906370a0823190602401602060405180830381865afa158015611b3b573d5f803e3d5ffd5b505050506040513d601f19601f82011682018060405250810190611b5f9190614efb565b81526019546040516370a0823160e01b81526001600160a01b038681166004830152602090930192909116906370a0823190602401602060405180830381865afa158015611baf573d5f803e3d5ffd5b505050506040513d601f19601f82011682018060405250810190611bd39190614efb565b81526017546040516370a0823160e01b81526001600160a01b038681166004830152602090930192909116906370a0823190602401602060405180830381865afa158015611c23573d5f803e3d5ffd5b505050506040513d601f19601f82011682018060405250810190611c479190614efb565b905292915050565b5f611c586135ba565b805490915060ff600160401b82041615906001600160401b03165f81158015611c7e5750825b90505f826001600160401b03166001148015611c995750303b155b905081158015611ca7575080155b15611cc55760405163f92ee8a960e01b815260040160405180910390fd5b845467ffffffffffffffff191660011785558315611cef57845460ff60401b1916600160401b1785555b6040516369777eb960e01b815273__$d02cb2608d6f3ad3f53f4dd3f26f81b8ea$__906369777eb990611d30905f908e908e908e908e908e90600401615168565b5f6040518083038186803b158015611d46575f80fd5b505af4158015611d58573d5f803e3d5ffd5b50505050611d646135e2565b611d6c6135e2565b611d746135ea565b611d7c6135e2565b604051632ffdac7160e21b815273__$d02cb2608d6f3ad3f53f4dd3f26f81b8ea$__9063bff6b1c490611dbb905f908d908d908d908d906004016151d0565b5f6040518083038186803b158015611dd1575f80fd5b505af4158015611de3573d5f803e3d5ffd5b50505050611df35f801b8b613267565b50611e1e7f65d7a28e3265b37a6474929f336521b332c1681b933f6cb9f3376673440d862a8b613267565b508315611e6557845460ff60401b19168555604051600181527fc7f505b2f371ae2175ee4913f4499e1f2633a7b5936321eed1cdaeb6115181d29060200160405180910390a15b50505050505050505050565b604051637574b6e360e01b81525f600482018190526001600160a01b0380871660248401526044830186905284166064830152608482018390529073__$fad1da84a532053b53119316a58e977f10$__90637574b6e39060a401611296565b611ed8612d8e565b611ee0612dc5565b604051623fe27360e01b81525f6004820152815180516001600160a01b039081166024840152602091820151151560448401529083015116606482015273__$c6aecf0de9c97d330c260596cb45f01743$__90623fe273906084015f6040518083038186803b158015611f51575f80fd5b505af4158015611f63573d5f803e3d5ffd5b505060405163724e2b6f60e01b81525f6004820152835180516001600160a01b039081166024840152602091820151151560448401529085015116606482015273__$c6aecf0de9c97d330c260596cb45f01743$__925063724e2b6f9150608401610d57565b611fd1613c33565b604051633978289f60e01b81525f60048201526024810183905273__$674c94602fbdb88ca53d9ba4295c8813fa$__90633978289f90604401602060405180830381865af4158015612025573d5f803e3d5ffd5b505050506040513d601f19601f820116820180604052508101906120499190614efb565b6040805160808101825282546001600160a01b0381168252600160a01b900460ff1615156020820152600183015491810191909152600290910154606082015292915050565b612097612d8e565b61209f612dc5565b60405163da25f11760e01b815273__$e9ef7182266124a833dac7dfa55fc79e51$__9063da25f117906120d8905f90859060040161522b565b5f6040518083038186803b1580156120ee575f80fd5b505af4158015612100573d5f803e3d5ffd5b50506040516388fb1b6760e01b815273__$e9ef7182266124a833dac7dfa55fc79e51$__92506388fb1b679150610d57905f90859060040161522b565b6121716040518060c001604052805f81526020015f81526020015f81526020015f81526020015f8152602001606081525090565b604051636e9bc7eb60e11b81525f600482015273__$72c16261390208f563094e6a4fc9f74031$__9063dd378fd6906024015f60405180830381865af41580156121bd573d5f803e3d5ffd5b505050506040513d5f823e601f3d908101601f191682016040526112369190810190615275565b60408051602081019091525f8152604051631ae5e80160e31b81525f600482015273__$72c16261390208f563094e6a4fc9f74031$__9063d72f400890602401602060405180830381865af415801561223f573d5f803e3d5ffd5b505050506040513d601f19601f820116820180604052508101906112369190615362565b61226b612d8e565b612273612dc5565b6040516210aa0b60e31b815273__$45d7492db284be01938913cb41b9cac2a6$__9062855058906122aa905f90859060040161538e565b5f6040518083038186803b1580156122c0575f80fd5b505af41580156122d2573d5f803e3d5ffd5b50506040516364140a8360e01b815273__$45d7492db284be01938913cb41b9cac2a6$__92506364140a839150610d57905f90859060040161538e565b612317612d8e565b61231f612dc5565b604051631e55c20b60e31b815273__$909b104b05b98ab9b02bd00c4a2f54926d$__9063f2ae105890612358905f908590600401614f59565b5f6040518083038186803b15801561236e575f80fd5b505af4158015612380573d5f803e3d5ffd5b5050604051630f6470bd60e01b815273__$909b104b05b98ab9b02bd00c4a2f54926d$__9250630f6470bd91506123bd905f908590600401614f59565b5f6040518083038186803b1580156123d3575f80fd5b505af41580156123e5573d5f803e3d5ffd5b505050505f19815f01516020015103611512578051516040516316bbd7db60e11b81525f60048201526001600160a01b03909116602482015273__$b44e0fdf2f6bdeffc1681a5a467d23dde6$__90632d77afb690604401610d57565b7f65d7a28e3265b37a6474929f336521b332c1681b933f6cb9f3376673440d862a61246d8133612e0a565b6124935760405163e2517d3f60e01b815233600482015260248101829052604401610dc9565b610d996135fa565b6124a3612d8e565b6124ab612dc5565b604051632d0c1e8b60e01b815273__$f215670302542f95b8fc754ac02a4bfcb4$__90632d0c1e8b906124e4905f908590600401614e85565b5f6040518083038186803b1580156124fa575f80fd5b505af415801561250c573d5f803e3d5ffd5b505060405163c0c66ed960e01b815273__$f215670302542f95b8fc754ac02a4bfcb4$__925063c0c66ed99150610d57905f908590600401614e85565b610d9960405180604001604052808380360381019061256891906153c6565b815233602090910152611528565b610d996040518060600160405280838152602001336001600160a01b03168152602001336001600160a01b03168152506113dd565b5f9182525f8051602061581e833981519152602090815260408084206001600160a01b0393909316845291905290205460ff1690565b6125e9613c62565b60405163301d1d1560e21b815273__$c58e2605104bb31274ad8c04841b6a7550$__9063c074745490612622905f908690600401614bdb565b61012060405180830381865af415801561263e573d5f803e3d5ffd5b505050506040513d601f19601f82011682018060405250810190610c2291906153e0565b606061101b5f8484613642565b610d9960405180604001604052808361268790614f1d565b8152336020909101526110db565b6126c560405180608001604052805f6001600160a01b031681526020015f81526020015f81526020015f81525090565b604051634c9829bf60e11b81525f60048201526024810183905273__$674c94602fbdb88ca53d9ba4295c8813fa$__90639930537e90604401602060405180830381865af4158015612719573d5f803e3d5ffd5b505050506040513d601f19601f8201168201806040525081019061273d9190614efb565b6040805160808101825282546001600160a01b0316815260018301546020820152600283015491810191909152600390910154606082015292915050565b60405163046dbd1360e11b81525f600482018190526001600160a01b03831660248301529073__$b44e0fdf2f6bdeffc1681a5a467d23dde6$__906308db7a2690604401602060405180830381865af41580156127da573d5f803e3d5ffd5b505050506040513d601f19601f82011682018060405250810190610c229190614efb565b610d9960405180604001604052808380360381019061281d9190615442565b81523360209091015261208f565b612834826112de565b61283d8161325d565b6113798383613308565b6128746040518060a001604052805f81526020015f81526020015f81526020015f81526020015f81525090565b6128a16040518060a001604052805f81526020015f81526020015f81526020015f81526020015f81525090565b50506001600160a01b03165f908152601a6020908152604091829020825160a08082018552825482526001830154828501526002830154828601526003830154606080840191909152600484015460808085019190915286519283018752600585015483526006850154958301959095526007840154958201959095526008830154948101949094526009909101549183019190915291565b5f612943612d8e565b61294b612dc5565b6040516320b5435f60e11b815273__$04d32033081e1e9356971d8f4b5098bcad$__9063416a86be90612984905f90869060040161545d565b5f6040518083038186803b15801561299a575f80fd5b505af41580156129ac573d5f803e3d5ffd5b5050604051630d0699cb60e21b815273__$04d32033081e1e9356971d8f4b5098bcad$__925063341a672c91506129e9905f90869060040161545d565b602060405180830381865af4158015612a04573d5f803e3d5ffd5b505050506040513d601f19601f82011682018060405250810190612a289190614efb565b60405163489d188160e01b815290915073__$04d32033081e1e9356971d8f4b5098bcad$__9063489d188190612a66905f9086908690600401615485565b5f6040518083038186803b158015612a7c575f80fd5b505af4158015612a8e573d5f803e3d5ffd5b50505050612aa860015f8051602061585e83398151915255565b919050565b610d99604051806060016040528083803603810190612acc9190613eec565b8152336020820181905260409091015261230f565b612ae9612d8e565b612af1612dc5565b604051635792057f60e11b81525f60048201528135602482015273__$ebce6ba8505acc62d937fb713060c40a3c$__9063af240afe906044015f6040518083038186803b158015612b40575f80fd5b505af4158015612b52573d5f803e3d5ffd5b50506040516320e9b9f960e11b81525f60048201528335602482015273__$ebce6ba8505acc62d937fb713060c40a3c$__92506341d373f29150604401610d57565b612b9c612d8e565b612ba4612dc5565b604051631005beb160e31b815273__$7947dedfaba9c59621bd8bcc87e3fb80f1$__9063802df58890612bdd905f9085906004016154bb565b5f6040518083038186803b158015612bf3575f80fd5b505af4158015612c05573d5f803e3d5ffd5b5050604051631cc17ae560e31b815273__$7947dedfaba9c59621bd8bcc87e3fb80f1$__925063e60bd7289150610d57905f9085906004016154bb565b612c4a612d8e565b612c52612dc5565b60405163024889b160e51b815273__$d49e499a4608ab3aca09b91fe5950492b6$__90634911362090612c8b905f9085906004016154bb565b5f6040518083038186803b158015612ca1575f80fd5b505af4158015612cb3573d5f803e3d5ffd5b505060405163a083c0ab60e01b815273__$d49e499a4608ab3aca09b91fe5950492b6$__925063a083c0ab9150610d57905f9085906004016154bb565b610d99604051806060016040528083803603810190612d0f9190615500565b8152336020820181905260409091015261182e565b5f612d2f8133612e0a565b612d555760405163e2517d3f60e01b815233600482015260248101829052604401610dc9565b6040516356e79f8560e01b815273__$f86254f79636e35350b1b645c6388199de$__906356e79f8590610e0b905f90869060040161551a565b5f8051602061585e833981519152805460011901612dbf57604051633ee5aeb560e01b815260040160405180910390fd5b60029055565b5f8051602061583e8339815191525460ff1615612df55760405163d93c066560e01b815260040160405180910390fd5b565b60015f8051602061585e83398151915255565b5f612e1583836125ab565b15612e2257506001610c22565b601b54604051632474521560e21b8152600481018590526001600160a01b038481166024830152909116906391d1485490604401602060405180830381865afa158015612e71573d5f803e3d5ffd5b505050506040513d601f19601f82011682018060405250810190612e9591906155e8565b9050610c22565b8051515f90158015610c2257505060200151511590565b6001600160a01b0382165f908152600e840160209081526040808320815181546060948102820185018452928101838152612f85948894929392849291849190840182828015612f2057602002820191905f5260205f20905b815481526020019060010190808311612f0c575b5050505050815260200160018201805480602002602001604051908101604052809291908181526020018280548015612f7657602002820191905f5260205f20905b815481526020019060010190808311612f62575b5050505050815250508461372a565b949350505050565b5f61101b83600d015f015f9054906101000a90046001600160a01b03166001600160a01b031663313ce5676040518163ffffffff1660e01b8152600401602060405180830381865afa158015612fe5573d5f803e3d5ffd5b505050506040513d601f19601f820116820180604052508101906130099190614efb565b61301490600a6156f7565b61301e9084615702565b60148501546040805163313ce56760e01b815290516001600160a01b039092169163313ce567916004808201926020929091908290030181865afa158015613068573d5f803e3d5ffd5b505050506040513d601f19601f8201168201806040525081019061308c9190615719565b61309790600a615739565b60158601546040805163313ce56760e01b815290516001600160a01b039092169163313ce567916004808201926020929091908290030181865afa1580156130e1573d5f803e3d5ffd5b505050506040513d601f19601f820116820180604052508101906131059190615719565b61311090600a615739565b600d87015460408051634c6afee560e11b815290516001600160a01b03909216916398d5fdca916004808201926020929091908290030181865afa15801561315a573d5f803e3d5ffd5b505050506040513d601f19601f8201168201806040525081019061317e9190614efb565b6131889190615702565b61380b565b6001600160a01b0382165f908152600e8401602090815260408083208151600290910180546060948102830185018452928201838152612f85948894849291849190840182828015612f2057602002820191905f5260205f2090815481526020019060010190808311612f0c575050505050815260200160018201805480602002602001604051908101604052809291908181526020018280548015612f7657602002820191905f5260205f2090815481526020019060010190808311612f62575050505050815250508461372a565b610d998133613817565b5f5f8051602061581e83398151915261328084846125ab565b6132ff575f848152602082815260408083206001600160a01b03871684529091529020805460ff191660011790556132b53390565b6001600160a01b0316836001600160a01b0316857f2f8788117e7eff1d82e926ec794901d17c78024a50270940304540a733656f0d60405160405180910390a46001915050610c22565b5f915050610c22565b5f5f8051602061581e83398151915261332184846125ab565b156132ff575f848152602082815260408083206001600160a01b0387168085529252808320805460ff1916905551339287917ff6391f5c32d9c69d2a47ea670b442974b53935d1edc7fd64eb21e047a839171b9190a46001915050610c22565b613389613850565b5f8051602061583e833981519152805460ff191681557f5db9ee0a495bf2e6ff9c91a7834c1ba4fdd244a5e8aa4e537bd38aeae4b073aa335b6040516001600160a01b03909116815260200160405180910390a150565b306001600160a01b037f000000000000000000000000000000000000000000000000000000000000000016148061346657507f00000000000000000000000000000000000000000000000000000000000000006001600160a01b031661345a5f805160206157fe833981519152546001600160a01b031690565b6001600160a01b031614155b15612df55760405163703e46dd60e11b815260040160405180910390fd5b5f61348f8133612e0a565b6117e25760405163e2517d3f60e01b815233600482015260248101829052604401610dc9565b816001600160a01b03166352d1902d6040518163ffffffff1660e01b8152600401602060405180830381865afa92505050801561350f575060408051601f3d908101601f1916820190925261350c91810190614efb565b60015b61353757604051634c9c8ce360e01b81526001600160a01b0383166004820152602401610dc9565b5f805160206157fe833981519152811461356757604051632a87526960e21b815260048101829052602401610dc9565b6113b2838361387f565b306001600160a01b037f00000000000000000000000000000000000000000000000000000000000000001614612df55760405163703e46dd60e11b815260040160405180910390fd5b5f807ff0c57e16840df040f15088dc2f81fe391c3923bec73e23a9662efc9c229c6a00610c22565b612df56138d4565b6135f26138d4565b612df56138f9565b613602612dc5565b5f8051602061583e833981519152805460ff191660011781557f62e78cea01bee320cd4e420270b5ea74000d11b0c9f74754ebdbfc544b05a258336133c2565b6060816001600160401b0381111561365c5761365c613d13565b60405190808252806020026020018201604052801561368f57816020015b606081526020019060019003908161367a5790505b5090505f5b82811015613722576136fd308585848181106136b2576136b2615747565b90506020028101906136c4919061575b565b8080601f0160208091040260200160405190810160405280939291908181526020018383808284375f9201919091525061390192505050565b82828151811061370f5761370f615747565b6020908102919091010152600101613694565b509392505050565b5f815f0361374b5760405163e8b3806b60e01b815260040160405180910390fd5b61375483612e9c565b1561377c5760405162b04ee160e61b81526001600160a01b0385166004820152602401610dc9565b42821161379f576040516317a6a68360e21b815260048101839052602401610dc9565b5f806137ae855f01518561396a565b915091505f198214806137c15750808214155b156137e25760405163068ebaa360e41b815260048101859052602401610dc9565b846020015182815181106137f8576137f8615747565b6020026020010151925050509392505050565b5f612f85848484613a67565b61382182826125ab565b6117e25760405163e2517d3f60e01b81526001600160a01b038216600482015260248101839052604401610dc9565b5f8051602061583e8339815191525460ff16612df557604051638dfc202b60e01b815260040160405180910390fd5b61388882613a93565b6040516001600160a01b038316907fbc7cd75a20ee27fd9adebab32041f755214dbc6bffa90cc0225b39da2e5c2d3b905f90a28051156138cc576113b28282613901565b6117e2613af6565b6138dc613b15565b612df557604051631afcd79f60e31b815260040160405180910390fd5b612df76138d4565b60605f80846001600160a01b03168460405161391d919061579d565b5f60405180830381855af49150503d805f8114613955576040519150601f19603f3d011682016040523d82523d5f602084013e61395a565b606091505b50915091506112d5858383613b2e565b81515f90819061397c906001906157b8565b905083828151811061399057613990615747565b60200260200101518310806139bd57508381815181106139b2576139b2615747565b602002602001015183115b156139cd57505f19905080613a60565b808211613a5e575f60026139e183856157cb565b6139eb91906157de565b905083858281518110613a0057613a00615747565b602002602001015103613a17579150819050613a60565b83858281518110613a2a57613a2a615747565b60200260200101511015613a4a57613a438160016157cb565b9250613a58565b613a556001826157b8565b91505b506139cd565b905b9250929050565b5f825f190484118302158202613a845763ad251c275f526004601cfd5b50910281810615159190040190565b806001600160a01b03163b5f03613ac857604051634c9c8ce360e01b81526001600160a01b0382166004820152602401610dc9565b5f805160206157fe83398151915280546001600160a01b0319166001600160a01b0392909216919091179055565b3415612df55760405163b398979f60e01b815260040160405180910390fd5b5f613b1e6135ba565b54600160401b900460ff16919050565b606082613b4357613b3e82613b8a565b61101b565b8151158015613b5a57506001600160a01b0384163b155b15613b8357604051639996b31560e01b81526001600160a01b0385166004820152602401610dc9565b508061101b565b805115613b9a5780518082602001fd5b60405163d6bda27560e01b815260040160405180910390fd5b6040518060e00160405280613bc6613c33565b81526020015f6001600160a01b031681526020015f81526020015f81526020015f81526020015f81526020015f81525090565b6040518060a00160405280613c0c613c99565b81526020015f6001600160a01b031681526020015f81526020015f81526020015f81525090565b60405180608001604052805f6001600160a01b031681526020015f151581526020015f81526020015f81525090565b6040518060c00160405280613c75613c33565b81526020015f81526020015f81526020015f81526020015f81526020015f81525090565b6040805160c0810190915260606080820181815260a083019190915281908152602001613cd9604051806040016040528060608152602001606081525090565b81525f6020820181905260409091015290565b5f60208284031215613cfc575f80fd5b81356001600160e01b03198116811461101b575f80fd5b634e487b7160e01b5f52604160045260245ffd5b60405161012081016001600160401b0381118282101715613d4a57613d4a613d13565b60405290565b604051608081016001600160401b0381118282101715613d4a57613d4a613d13565b604080519081016001600160401b0381118282101715613d4a57613d4a613d13565b604051606081016001600160401b0381118282101715613d4a57613d4a613d13565b604051602081016001600160401b0381118282101715613d4a57613d4a613d13565b60405160c081016001600160401b0381118282101715613d4a57613d4a613d13565b604051601f8201601f191681016001600160401b0381118282101715613e2257613e22613d13565b604052919050565b6001600160a01b0381168114610d99575f80fd5b8035612aa881613e2a565b8015158114610d99575f80fd5b8035612aa881613e49565b5f6101208284031215613e72575f80fd5b613e7a613d27565b9050613e8582613e3e565b81526020820135602082015260408201356040820152606082013560608201526080820135608082015260a082013560a0820152613ec560c08301613e56565b60c082015260e082013560e0820152610100613ee2818401613e3e565b9082015292915050565b5f6101208284031215613efd575f80fd5b61101b8383613e61565b80516001600160a01b0316825260208082015115159083015260408082015190830152606090810151910152565b5f61014082019050613f48828451613f07565b60018060a01b036020840151166080830152604083015160a0830152606083015160c0830152608083015160e083015260a083015161010083015260c083015161012083015292915050565b5f60608284031215613fa4575f80fd5b50919050565b5f60608284031215613fba575f80fd5b61101b8383613f94565b5f60408284031215613fa4575f80fd5b5f60208284031215613fe4575f80fd5b81356001600160401b03811115613ff9575f80fd5b612f8584828501613fc4565b5f60208284031215614015575f80fd5b813561101b81613e2a565b5f8060408385031215614031575f80fd5b823561403c81613e2a565b946020939093013593505050565b5f6001600160401b0382111561406257614062613d13565b5060051b60200190565b5f82601f83011261407b575f80fd5b8135602061409061408b8361404a565b613dfa565b8083825260208201915060208460051b8701019350868411156140b1575f80fd5b602086015b848110156140cd57803583529183019183016140b6565b509695505050505050565b5f608082840312156140e8575f80fd5b6140f0613d50565b905081358152602082013561410481613e49565b6020820152604082013561411781613e49565b604082015260608201356001600160401b03811115614134575f80fd5b6141408482850161406c565b60608301525092915050565b5f6020828403121561415c575f80fd5b81356001600160401b0380821115614172575f80fd5b9083019060408286031215614185575f80fd5b61418d613d72565b82358281111561419b575f80fd5b6141a7878286016140d8565b825250602083013592506141ba83613e2a565b6020810192909252509392505050565b5f602082840312156141da575f80fd5b5035919050565b5f604082840312156141f1575f80fd5b6141f9613d72565b905081356001600160401b0380821115614211575f80fd5b61421d8583860161406c565b83526020840135915080821115614232575f80fd5b5061423f8482850161406c565b60208301525092915050565b5f6040828403121561425b575f80fd5b614263613d72565b905081356001600160401b0381111561427a575f80fd5b614286848285016141e1565b825250602082013561429781613e2a565b602082015292915050565b5f602082840312156142b2575f80fd5b81356001600160401b038111156142c7575f80fd5b612f858482850161424b565b5f805f80608085870312156142e6575f80fd5b84356142f181613e2a565b935060208501359250604085013561430881613e2a565b9396929550929360600135925050565b5f60808284031215613fa4575f80fd5b5f60208284031215614338575f80fd5b81356001600160401b0381111561434d575f80fd5b612f8584828501614318565b5f806040838503121561436a575f80fd5b82359150602083013561437c81613e2a565b809150509250929050565b5f6101608284031215614398575f80fd5b6143a0613d94565b90506143ac8383613e61565b81526101208201356143bd81613e2a565b60208201526101408201356143d181613e2a565b604082015292915050565b5f61016082840312156143ed575f80fd5b61101b8383614387565b5f60608284031215614407575f80fd5b61440f613d94565b905081358152602082013560208201526040820135604082015292915050565b5f6080828403121561443f575f80fd5b614447613d72565b61445184846143f7565b8152606083013561446181613e2a565b60208201529392505050565b5f806040838503121561447e575f80fd5b823561448981613e2a565b91506020838101356001600160401b03808211156144a5575f80fd5b818601915086601f8301126144b8575f80fd5b8135818111156144ca576144ca613d13565b6144dc601f8201601f19168501613dfa565b915080825287848285010111156144f1575f80fd5b80848401858401375f848284010152508093505050509250929050565b5f6040828403121561451e575f80fd5b61101b8383613fc4565b5f60208284031215614538575f80fd5b614540613db6565b9135825250919050565b5f6060828403121561455a575f80fd5b614562613d94565b61456c8484614528565b8152602083013561457c81613e2a565b6020820152604083013561458f81613e2a565b60408201529392505050565b5f5b838110156145b557818101518382015260200161459d565b50505f910152565b5f81518084526145d481602086016020860161459b565b601f01601f19169290920160200192915050565b602081525f61101b60208301846145bd565b5f815180845260208085019450602084015f5b838110156146295781518752958201959082019060010161460d565b509495945050505050565b5f81516040845261464860408501826145fa565b9050602083015184820360208601526112d582826145fa565b602081525f825160a060208401528051608060c0850152614686610140850182614634565b9050602082015160bf198583030160e08601526146a38282614634565b915050604082015161010085015260608201511515610120850152602085015191506146da60408501836001600160a01b03169052565b6040850151606085015260608501516080850152608085015160a0850152809250505092915050565b5f60c08284031215613fa4575f80fd5b5f60208284031215613fa4575f80fd5b5f805f805f6101e08688031215614738575f80fd5b853561474381613e2a565b94506147528760208801614703565b935060e08601356001600160401b0381111561476c575f80fd5b61477888828901614703565b935050614789876101008801614713565b9150614799876101208801614703565b90509295509295909350565b5f604082840312156147b5575f80fd5b6147bd613d72565b905081356147ca81613e2a565b8152602082013561429781613e49565b5f606082840312156147ea575f80fd5b6147f2613d72565b6147fc84846147a5565b8152604083013561446181613e2a565b60808101610c228284613f07565b5f60a0828403121561482a575f80fd5b60405160a081018181106001600160401b038211171561484c5761484c613d13565b806040525080915082358152602083013560208201526040830135604082015260608301356060820152608083013560808201525092915050565b5f6101408284031215614898575f80fd5b6148a0613d72565b90506148ac838361481a565b81526142978360a0840161481a565b5f61016082840312156148cc575f80fd5b6148d4613d72565b6148de8484614887565b815261014083013561446181613e2a565b6020815281516020820152602082015160408201526040820151606082015260608201516080820152608082015160a08201525f60a083015160c080840152612f8560e08401826145fa565b5f6101208201905061494e828451613f07565b60208301516080830152604083015160a0830152606083015160c0830152608083015160e083015260a083015161010083015292915050565b5f8060208385031215614998575f80fd5b82356001600160401b03808211156149ae575f80fd5b818501915085601f8301126149c1575f80fd5b8135818111156149cf575f80fd5b8660208260051b85010111156149e3575f80fd5b60209290920196919550909350505050565b5f60208083016020845280855180835260408601915060408160051b8701019250602087015f5b82811015614a4a57603f19888603018452614a388583516145bd565b94509285019290850190600101614a1c565b5092979650505050505050565b5f6101408284031215613fa4575f80fd5b80518252602081015160208301526040810151604083015260608101516060830152608081015160808301525050565b6101408101614aa78285614a68565b61101b60a0830184614a68565b5f6101208284031215613fa4575f80fd5b5f60208284031215614ad5575f80fd5b61101b8383614713565b5f60608284031215614aef575f80fd5b614af7613d94565b90508135614b0481613e2a565b81526020828101359082015260408201356143d181613e2a565b5f60808284031215614b2e575f80fd5b614b36613d72565b9050614b428383614adf565b8152606082013561429781613e2a565b5f60808284031215614b62575f80fd5b61101b8383614b1e565b60018060a01b0381511682526020810151602083015260408101516040830152606081015160608301526080810151608083015260a081015160a083015260c0810151151560c083015260e081015160e083015261010080820151611379828501826001600160a01b03169052565b828152610140810161101b6020830184614b6c565b5f60808284031215614c00575f80fd5b614c08613d50565b90508151614c1581613e2a565b81526020820151614c2581613e49565b80602083015250604082015160408201526060820151606082015292915050565b5f6101408284031215614c57575f80fd5b60405160e081018181106001600160401b0382111715614c7957614c79613d13565b604052614c868484614bf0565b81526080830151614c9681613e2a565b8060208301525060a0830151604082015260c0830151606082015260e0830151608082015261010083015160a082015261012083015160c08201528091505092915050565b5f60808201905083825282356020830152602083013560408301526040830135614d0481613e2a565b6001600160a01b03166060929092019190915292915050565b828152604060208201525f8235601e19843603018112614d3b575f80fd5b83016020810190356001600160401b03811115614d56575f80fd5b803603821315614d64575f80fd5b604080850152806080850152808260a08601375f60a082860101526020850135606085015260a0601f19601f830116850101925050509392505050565b5f60608284031215614db1575f80fd5b61101b8383614adf565b828152604060208201525f8251604080840152805160808401526020810151151560a08401526040810151151560c084015260608101519050608060e0840152614e096101008401826145fa565b602094909401516001600160a01b031660609390930192909252509092915050565b5f8151604084528051604080860152614e4760808601826145fa565b905060208201519150603f19858203016060860152614e6681836145fa565b6020948501516001600160a01b03169590940194909452509092915050565b828152604060208201525f612f856040830184614e2b565b5f60c08284031215614ead575f80fd5b614eb5613dd8565b825181526020830151602082015260408301516040820152606083015160608201526080830151608082015260a0830151614eef81613e2a565b60a08201529392505050565b5f60208284031215614f0b575f80fd5b5051919050565b5f610c2236836140d8565b5f610c2236836141e1565b614f33828251614b6c565b60208101516001600160a01b039081166101208401526040909101511661014090910152565b828152610180810161101b6020830184614f28565b918252805180516020808501919091528082015160408086019190915290910151606084015201516001600160a01b0316608082015260a00190565b5f60408284031215614fba575f80fd5b61101b83836147a5565b803582526020810135602083015260408101356040830152606081013560608301526080810135608083015260a0810135614ffe81613e2a565b6001600160a01b031660a0929092019190915250565b5f808335601e19843603018112615029575f80fd5b83016020810192503590506001600160401b03811115615047575f80fd5b8060051b3603821315613a60575f80fd5b8183525f6001600160fb1b0383111561506f575f80fd5b8260051b80836020870137939093016020019392505050565b80358252602081013560208301526040810135604083015260608101356060830152608081013560808301525f6150c260a0830183615014565b60c060a08601526112d560c086018284615058565b80356150e281613e2a565b6001600160a01b0390811683526020820135906150fe82613e2a565b908116602084015260408201359061511582613e2a565b908116604084015260608201359061512c82613e2a565b908116606084015260808201359061514382613e2a565b908116608084015260a08201359061515a82613e2a565b80821660a085015250505050565b8681526001600160a01b0386811660208301525f906102009061518e6040850189614fc4565b816101008501526151a182850188615088565b9250853591506151b082613e2a565b166101208301526151c56101408301846150d7565b979650505050505050565b5f6101e08783526151e46020840188614fc4565b8060e08401526151f681840187615088565b915050833561520481613e2a565b6001600160a01b03166101008301526152216101208301846150d7565b9695505050505050565b5f610180820190508382528251615246602084018251614a68565b6020015161525760c0840182614a68565b50602092909201516001600160a01b03166101609190910152919050565b5f6020808385031215615286575f80fd5b82516001600160401b038082111561529c575f80fd5b9084019060c082870312156152af575f80fd5b6152b7613dd8565b82518152838301518482015260408301516040820152606083015160608201526080830151608082015260a0830151828111156152f2575f80fd5b80840193505086601f840112615306575f80fd5b8251915061531661408b8361404a565b82815260059290921b83018401918481019088841115615334575f80fd5b938501935b8385101561535257845182529385019390850190615339565b60a0830152509695505050505050565b5f60208284031215615372575f80fd5b61537a613db6565b825161538581613e2a565b81529392505050565b5f6060820190508382528235602083015260208301356153ad81613e2a565b6001600160a01b03166040929092019190915292915050565b5f606082840312156153d6575f80fd5b61101b83836143f7565b5f61012082840312156153f1575f80fd5b6153f9613dd8565b6154038484614bf0565b81526080830151602082015260a0830151604082015260c0830151606082015260e0830151608082015261010083015160a08201528091505092915050565b5f6101408284031215615453575f80fd5b61101b8383614887565b8281526080810161101b60208301848035825260208082013590830152604090810135910152565b83815260a081016154ad60208301858035825260208082013590830152604090810135910152565b826080830152949350505050565b82815260a0810161101b6020830184805180516001600160a01b0390811684526020808301518186015260409283015182169285019290925291015116606090910152565b5f60208284031215615510575f80fd5b61101b8383614528565b8281525f6020604060208401526155318485615014565b6080604086015261554660c086018284615058565b9150506155566020860186615014565b603f198087850301606088015261556e848385615058565b935061557d6040890189615014565b8886039092016080890152818552939092505f91506020015b828210156155c65783356155a981613e2a565b6001600160a01b0316815292840192600191909101908401615596565b6155d260608901613e56565b80151560a0890152945098975050505050505050565b5f602082840312156155f8575f80fd5b815161101b81613e49565b634e487b7160e01b5f52601160045260245ffd5b600181815b8085111561565157815f190482111561563757615637615603565b8085161561564457918102915b93841c939080029061561c565b509250929050565b5f8261566757506001610c22565b8161567357505f610c22565b81600181146156895760028114615693576156af565b6001915050610c22565b60ff8411156156a4576156a4615603565b50506001821b610c22565b5060208310610133831016604e8410600b84101617156156d2575081810a610c22565b6156dc8383615617565b805f19048211156156ef576156ef615603565b029392505050565b5f61101b8383615659565b8082028115828204841417610c2257610c22615603565b5f60208284031215615729575f80fd5b815160ff8116811461101b575f80fd5b5f61101b60ff841683615659565b634e487b7160e01b5f52603260045260245ffd5b5f808335601e19843603018112615770575f80fd5b8301803591506001600160401b03821115615789575f80fd5b602001915036819003821315613a60575f80fd5b5f82516157ae81846020870161459b565b9190910192915050565b81810381811115610c2257610c22615603565b80820180821115610c2257610c22615603565b5f826157f857634e487b7160e01b5f52601260045260245ffd5b50049056fe360894a13ba1a3210667c828492db98dca3e2076cc3735a920a3ca505d382bbc02dd7bc7dec4dceedda775e58dd541e08a116c6c53815c0bd028192f7b626800cd5ed15c6e187e77e9aee88184c21f4f2182ab5827cb3b7e07fbedcd63f033009b779b17422d0df92223018b32b4d1fa46e071723d6817e2486d003becc55f00a2646970667358221220b58c5da5f62436e7b236d551763f9eaedd329f075ecf02f1dcc61bb7554069b964736f6c63430008170033","linkReferences":{"src/market/libraries/LoanLibrary.sol":{"LoanLibrary":[{"start":8429,"length":20},{"start":10209,"length":20}]},"src/market/libraries/OfferLibrary.sol":{"OfferLibrary":[{"start":4984,"length":20},{"start":8110,"length":20}]},"src/market/libraries/RiskLibrary.sol":{"RiskLibrary":[{"start":5616,"length":20},{"start":5732,"length":20},{"start":6073,"length":20},{"start":9504,"length":20},{"start":10402,"length":20}]},"src/market/libraries/actions/BuyCreditLimit.sol":{"BuyCreditLimit":[{"start":9658,"length":20},{"start":9757,"length":20}]},"src/market/libraries/actions/BuyCreditMarket.sol":{"BuyCreditMarket":[{"start":3391,"length":20},{"start":9262,"length":20},{"start":9361,"length":20}]},"src/market/libraries/actions/Claim.sol":{"Claim":[{"start":11277,"length":20},{"start":11376,"length":20}]},"src/market/libraries/actions/Compensate.sol":{"Compensate":[{"start":5842,"length":20},{"start":5941,"length":20}]},"src/market/libraries/actions/Deposit.sol":{"Deposit":[{"start":11617,"length":20},{"start":11716,"length":20}]},"src/market/libraries/actions/Initialize.sol":{"Initialize":[{"start":7678,"length":20},{"start":7819,"length":20}]},"src/market/libraries/actions/Liquidate.sol":{"Liquidate":[{"start":10842,"length":20},{"start":10941,"length":20},{"start":11066,"length":20}]},"src/market/libraries/actions/MarketShutdown.sol":{"MarketShutdown":[{"start":11876,"length":20}]},"src/market/libraries/actions/PartialRepay.sol":{"PartialRepay":[{"start":3528,"length":20},{"start":3627,"length":20}]},"src/market/libraries/actions/Repay.sol":{"Repay":[{"start":9089,"length":20},{"start":9187,"length":20}]},"src/market/libraries/actions/SelfLiquidate.sol":{"SelfLiquidate":[{"start":6525,"length":20},{"start":6659,"length":20}]},"src/market/libraries/actions/SellCreditLimit.sol":{"SellCreditLimit":[{"start":4602,"length":20},{"start":4701,"length":20}]},"src/market/libraries/actions/SellCreditMarket.sol":{"SellCreditMarket":[{"start":5372,"length":20},{"start":5471,"length":20},{"start":9976,"length":20}]},"src/market/libraries/actions/SetCopyLimitOrderConfigs.sol":{"SetCopyLimitOrderConfigs":[{"start":8622,"length":20},{"start":8721,"length":20}]},"src/market/libraries/actions/SetUserConfiguration.sol":{"SetUserConfiguration":[{"start":4417,"length":20},{"start":4516,"length":20}]},"src/market/libraries/actions/SetVault.sol":{"SetVault":[{"start":8223,"length":20},{"start":8357,"length":20}]},"src/market/libraries/actions/UpdateConfig.sol":{"UpdateConfig":[{"start":3809,"length":20},{"start":4826,"length":20},{"start":8838,"length":20},{"start":8967,"length":20}]},"src/market/libraries/actions/Withdraw.sol":{"Withdraw":[{"start":11443,"length":20},{"start":11542,"length":20}]}}},"methodIdentifiers":{"DEFAULT_ADMIN_ROLE()":"a217fddf","UPGRADE_INTERFACE_VERSION()":"ad3cb1cc","buyCreditLimit((uint256[],uint256[]))":"3745afe9","buyCreditLimitOnBehalfOf(((uint256[],uint256[]),address))":"8ccad699","buyCreditMarket((address,uint256,uint256,uint256,uint256,uint256,bool,uint256,address))":"e236052b","buyCreditMarketOnBehalfOf(((address,uint256,uint256,uint256,uint256,uint256,bool,uint256,address),address,address))":"834dafb5","claim((uint256))":"f45bf01c","collateralRatio(address)":"ca40742c","compensate((uint256,uint256,uint256))":"8e572776","compensateOnBehalfOf(((uint256,uint256,uint256),address))":"3ae6d7c3","data()":"73d4a13a","debtTokenAmountToCollateralTokenAmount(uint256)":"1970e5ea","deposit((address,uint256,address))":"0cf8542f","depositOnBehalfOf(((address,uint256,address),address))":"fa823af5","extSload(bytes32)":"aaaf97ab","feeConfig()":"1e5eb1d0","getBorrowOfferAPR(address,uint256,address,uint256)":"1ff75b0b","getBuyCreditMarketSwapData((address,uint256,uint256,uint256,uint256,uint256,bool,uint256,address))":"02088c51","getCreditPosition(uint256)":"76c1b82f","getDebtPosition(uint256)":"b5ec7487","getLoanOfferAPR(address,uint256,address,uint256)":"73b683be","getRoleAdmin(bytes32)":"248a9ca3","getSellCreditMarketSwapData((address,uint256,uint256,uint256,uint256,uint256,bool,uint256,address))":"9ab80115","getUserDefinedBorrowOfferAPR(address,uint256)":"2b59bd99","getUserDefinedCopyLimitOrderConfigs(address)":"d7de575e","getUserDefinedLoanOfferAPR(address,uint256)":"0d37ab00","getUserView(address)":"5cbc51eb","grantRole(bytes32,address)":"2f2ff15d","hasRole(bytes32,address)":"91d14854","initialize(address,(uint256,uint256,uint256,uint256,uint256,address),(uint256,uint256,uint256,uint256,uint256,uint256[]),(address),(address,address,address,address,address,address))":"65e33f7d","isUserDefinedLimitOrdersNull(address)":"06be2e49","liquidate((uint256,uint256,uint256))":"e05001f5","marketShutdown((uint256[],uint256[],address[],bool))":"fd316f0b","multicall(bytes[])":"ac9650d8","oracle()":"7dc0d1d0","partialRepay((uint256,uint256,address))":"02f2855a","pause()":"8456cb59","paused()":"5c975abb","proxiableUUID()":"52d1902d","renounceRole(bytes32,address)":"36568abe","repay((uint256,address))":"7f417c06","revokeRole(bytes32,address)":"d547741f","riskConfig()":"7c90a6ca","selfLiquidate((uint256))":"fd17174a","selfLiquidateOnBehalfOf(((uint256),address,address))":"536b9c79","sellCreditLimit((uint256[],uint256[]))":"accb807a","sellCreditLimitOnBehalfOf(((uint256[],uint256[]),address))":"1df0b63b","sellCreditMarket((address,uint256,uint256,uint256,uint256,uint256,bool,uint256,address))":"8ea68d7e","sellCreditMarketOnBehalfOf(((address,uint256,uint256,uint256,uint256,uint256,bool,uint256,address),address,address))":"3962a686","setCopyLimitOrderConfigs(((uint256,uint256,uint256,uint256,int256),(uint256,uint256,uint256,uint256,int256)))":"cb2e9bdc","setCopyLimitOrderConfigsOnBehalfOf((((uint256,uint256,uint256,uint256,int256),(uint256,uint256,uint256,uint256,int256)),address))":"7a32376a","setUserConfiguration((uint256,bool,bool,uint256[]))":"2e106f21","setUserConfigurationOnBehalfOf(((uint256,bool,bool,uint256[]),address))":"134f3f96","setVault((address,bool))":"510aeb39","setVaultOnBehalfOf(((address,bool),address))":"75829a36","supportsInterface(bytes4)":"01ffc9a7","unpause()":"3f4ba83a","updateConfig((string,uint256))":"0317b9df","upgradeToAndCall(address,bytes)":"4f1ef286","version()":"54fd4d50","withdraw((address,uint256,address))":"2b4c9a20","withdrawOnBehalfOf(((address,uint256,address),address))":"f54ae18b"},"id":299}