{
  "abi": [
    {
      "type": "constructor",
      "inputs": [],
      "stateMutability": "nonpayable"
    },
    {
      "type": "function",
      "name": "UPGRADE_INTERFACE_VERSION",
      "inputs": [],
      "outputs": [
        {
          "name": "",
          "type": "string",
          "internalType": "string"
        }
      ],
      "stateMutability": "view"
    },
    {
      "type": "function",
      "name": "addMarketsToCollection",
      "inputs": [
        {
          "name": "collectionId",
          "type": "uint256",
          "internalType": "uint256"
        },
        {
          "name": "markets",
          "type": "address[]",
          "internalType": "contract IRheo[]"
        }
      ],
      "outputs": [],
      "stateMutability": "nonpayable"
    },
    {
      "type": "function",
      "name": "addRateProvidersToCollectionMarket",
      "inputs": [
        {
          "name": "collectionId",
          "type": "uint256",
          "internalType": "uint256"
        },
        {
          "name": "market",
          "type": "address",
          "internalType": "contract IRheo"
        },
        {
          "name": "rateProviders",
          "type": "address[]",
          "internalType": "address[]"
        }
      ],
      "outputs": [],
      "stateMutability": "nonpayable"
    },
    {
      "type": "function",
      "name": "approve",
      "inputs": [
        {
          "name": "to",
          "type": "address",
          "internalType": "address"
        },
        {
          "name": "tokenId",
          "type": "uint256",
          "internalType": "uint256"
        }
      ],
      "outputs": [],
      "stateMutability": "nonpayable"
    },
    {
      "type": "function",
      "name": "balanceOf",
      "inputs": [
        {
          "name": "owner",
          "type": "address",
          "internalType": "address"
        }
      ],
      "outputs": [
        {
          "name": "",
          "type": "uint256",
          "internalType": "uint256"
        }
      ],
      "stateMutability": "view"
    },
    {
      "type": "function",
      "name": "collectionContainsMarket",
      "inputs": [
        {
          "name": "collectionId",
          "type": "uint256",
          "internalType": "uint256"
        },
        {
          "name": "market",
          "type": "address",
          "internalType": "contract IRheo"
        }
      ],
      "outputs": [
        {
          "name": "",
          "type": "bool",
          "internalType": "bool"
        }
      ],
      "stateMutability": "view"
    },
    {
      "type": "function",
      "name": "createCollection",
      "inputs": [],
      "outputs": [
        {
          "name": "collectionId",
          "type": "uint256",
          "internalType": "uint256"
        }
      ],
      "stateMutability": "nonpayable"
    },
    {
      "type": "function",
      "name": "getApproved",
      "inputs": [
        {
          "name": "tokenId",
          "type": "uint256",
          "internalType": "uint256"
        }
      ],
      "outputs": [
        {
          "name": "",
          "type": "address",
          "internalType": "address"
        }
      ],
      "stateMutability": "view"
    },
    {
      "type": "function",
      "name": "getBorrowOfferAPR",
      "inputs": [
        {
          "name": "user",
          "type": "address",
          "internalType": "address"
        },
        {
          "name": "collectionId",
          "type": "uint256",
          "internalType": "uint256"
        },
        {
          "name": "market",
          "type": "address",
          "internalType": "contract IRheo"
        },
        {
          "name": "rateProvider",
          "type": "address",
          "internalType": "address"
        },
        {
          "name": "maturity",
          "type": "uint256",
          "internalType": "uint256"
        }
      ],
      "outputs": [
        {
          "name": "apr",
          "type": "uint256",
          "internalType": "uint256"
        }
      ],
      "stateMutability": "view"
    },
    {
      "type": "function",
      "name": "getCollectionMarketRateProviders",
      "inputs": [
        {
          "name": "collectionId",
          "type": "uint256",
          "internalType": "uint256"
        },
        {
          "name": "market",
          "type": "address",
          "internalType": "contract IRheo"
        }
      ],
      "outputs": [
        {
          "name": "",
          "type": "address[]",
          "internalType": "address[]"
        }
      ],
      "stateMutability": "view"
    },
    {
      "type": "function",
      "name": "getLimitOrderAPR",
      "inputs": [
        {
          "name": "user",
          "type": "address",
          "internalType": "address"
        },
        {
          "name": "collectionId",
          "type": "uint256",
          "internalType": "uint256"
        },
        {
          "name": "market",
          "type": "address",
          "internalType": "contract IRheo"
        },
        {
          "name": "rateProvider",
          "type": "address",
          "internalType": "address"
        },
        {
          "name": "maturity",
          "type": "uint256",
          "internalType": "uint256"
        },
        {
          "name": "isLoanOffer",
          "type": "bool",
          "internalType": "bool"
        }
      ],
      "outputs": [
        {
          "name": "apr",
          "type": "uint256",
          "internalType": "uint256"
        }
      ],
      "stateMutability": "view"
    },
    {
      "type": "function",
      "name": "getLoanOfferAPR",
      "inputs": [
        {
          "name": "user",
          "type": "address",
          "internalType": "address"
        },
        {
          "name": "collectionId",
          "type": "uint256",
          "internalType": "uint256"
        },
        {
          "name": "market",
          "type": "address",
          "internalType": "contract IRheo"
        },
        {
          "name": "rateProvider",
          "type": "address",
          "internalType": "address"
        },
        {
          "name": "maturity",
          "type": "uint256",
          "internalType": "uint256"
        }
      ],
      "outputs": [
        {
          "name": "apr",
          "type": "uint256",
          "internalType": "uint256"
        }
      ],
      "stateMutability": "view"
    },
    {
      "type": "function",
      "name": "getSubscribedCollections",
      "inputs": [
        {
          "name": "user",
          "type": "address",
          "internalType": "address"
        }
      ],
      "outputs": [
        {
          "name": "collectionIds",
          "type": "uint256[]",
          "internalType": "uint256[]"
        }
      ],
      "stateMutability": "view"
    },
    {
      "type": "function",
      "name": "getUserDefinedCollectionCopyBorrowOfferConfig",
      "inputs": [
        {
          "name": "user",
          "type": "address",
          "internalType": "address"
        },
        {
          "name": "collectionId",
          "type": "uint256",
          "internalType": "uint256"
        }
      ],
      "outputs": [
        {
          "name": "",
          "type": "tuple",
          "internalType": "struct CopyLimitOrderConfig",
          "components": [
            {
              "name": "minTenor",
              "type": "uint256",
              "internalType": "uint256"
            },
            {
              "name": "maxTenor",
              "type": "uint256",
              "internalType": "uint256"
            },
            {
              "name": "minAPR",
              "type": "uint256",
              "internalType": "uint256"
            },
            {
              "name": "maxAPR",
              "type": "uint256",
              "internalType": "uint256"
            },
            {
              "name": "offsetAPR",
              "type": "int256",
              "internalType": "int256"
            }
          ]
        }
      ],
      "stateMutability": "view"
    },
    {
      "type": "function",
      "name": "getUserDefinedCollectionCopyLoanOfferConfig",
      "inputs": [
        {
          "name": "user",
          "type": "address",
          "internalType": "address"
        },
        {
          "name": "collectionId",
          "type": "uint256",
          "internalType": "uint256"
        }
      ],
      "outputs": [
        {
          "name": "",
          "type": "tuple",
          "internalType": "struct CopyLimitOrderConfig",
          "components": [
            {
              "name": "minTenor",
              "type": "uint256",
              "internalType": "uint256"
            },
            {
              "name": "maxTenor",
              "type": "uint256",
              "internalType": "uint256"
            },
            {
              "name": "minAPR",
              "type": "uint256",
              "internalType": "uint256"
            },
            {
              "name": "maxAPR",
              "type": "uint256",
              "internalType": "uint256"
            },
            {
              "name": "offsetAPR",
              "type": "int256",
              "internalType": "int256"
            }
          ]
        }
      ],
      "stateMutability": "view"
    },
    {
      "type": "function",
      "name": "initialize",
      "inputs": [
        {
          "name": "_sizeFactory",
          "type": "address",
          "internalType": "contract IRheoFactory"
        }
      ],
      "outputs": [],
      "stateMutability": "nonpayable"
    },
    {
      "type": "function",
      "name": "isApprovedForAll",
      "inputs": [
        {
          "name": "owner",
          "type": "address",
          "internalType": "address"
        },
        {
          "name": "operator",
          "type": "address",
          "internalType": "address"
        }
      ],
      "outputs": [
        {
          "name": "",
          "type": "bool",
          "internalType": "bool"
        }
      ],
      "stateMutability": "view"
    },
    {
      "type": "function",
      "name": "isBorrowAPRLowerThanLoanOfferAPRs",
      "inputs": [
        {
          "name": "user",
          "type": "address",
          "internalType": "address"
        },
        {
          "name": "borrowAPR",
          "type": "uint256",
          "internalType": "uint256"
        },
        {
          "name": "market",
          "type": "address",
          "internalType": "contract IRheo"
        },
        {
          "name": "maturity",
          "type": "uint256",
          "internalType": "uint256"
        }
      ],
      "outputs": [
        {
          "name": "",
          "type": "bool",
          "internalType": "bool"
        }
      ],
      "stateMutability": "view"
    },
    {
      "type": "function",
      "name": "isCopyingCollectionMarketRateProvider",
      "inputs": [
        {
          "name": "user",
          "type": "address",
          "internalType": "address"
        },
        {
          "name": "collectionId",
          "type": "uint256",
          "internalType": "uint256"
        },
        {
          "name": "market",
          "type": "address",
          "internalType": "contract IRheo"
        },
        {
          "name": "rateProvider",
          "type": "address",
          "internalType": "address"
        }
      ],
      "outputs": [
        {
          "name": "",
          "type": "bool",
          "internalType": "bool"
        }
      ],
      "stateMutability": "view"
    },
    {
      "type": "function",
      "name": "isLoanAPRGreaterThanBorrowOfferAPRs",
      "inputs": [
        {
          "name": "user",
          "type": "address",
          "internalType": "address"
        },
        {
          "name": "loanAPR",
          "type": "uint256",
          "internalType": "uint256"
        },
        {
          "name": "market",
          "type": "address",
          "internalType": "contract IRheo"
        },
        {
          "name": "maturity",
          "type": "uint256",
          "internalType": "uint256"
        }
      ],
      "outputs": [
        {
          "name": "",
          "type": "bool",
          "internalType": "bool"
        }
      ],
      "stateMutability": "view"
    },
    {
      "type": "function",
      "name": "isSubscribedToCollection",
      "inputs": [
        {
          "name": "user",
          "type": "address",
          "internalType": "address"
        },
        {
          "name": "collectionId",
          "type": "uint256",
          "internalType": "uint256"
        }
      ],
      "outputs": [
        {
          "name": "",
          "type": "bool",
          "internalType": "bool"
        }
      ],
      "stateMutability": "view"
    },
    {
      "type": "function",
      "name": "isValidCollectionId",
      "inputs": [
        {
          "name": "collectionId",
          "type": "uint256",
          "internalType": "uint256"
        }
      ],
      "outputs": [
        {
          "name": "",
          "type": "bool",
          "internalType": "bool"
        }
      ],
      "stateMutability": "view"
    },
    {
      "type": "function",
      "name": "multicall",
      "inputs": [
        {
          "name": "data",
          "type": "bytes[]",
          "internalType": "bytes[]"
        }
      ],
      "outputs": [
        {
          "name": "results",
          "type": "bytes[]",
          "internalType": "bytes[]"
        }
      ],
      "stateMutability": "nonpayable"
    },
    {
      "type": "function",
      "name": "name",
      "inputs": [],
      "outputs": [
        {
          "name": "",
          "type": "string",
          "internalType": "string"
        }
      ],
      "stateMutability": "view"
    },
    {
      "type": "function",
      "name": "ownerOf",
      "inputs": [
        {
          "name": "tokenId",
          "type": "uint256",
          "internalType": "uint256"
        }
      ],
      "outputs": [
        {
          "name": "",
          "type": "address",
          "internalType": "address"
        }
      ],
      "stateMutability": "view"
    },
    {
      "type": "function",
      "name": "proxiableUUID",
      "inputs": [],
      "outputs": [
        {
          "name": "",
          "type": "bytes32",
          "internalType": "bytes32"
        }
      ],
      "stateMutability": "view"
    },
    {
      "type": "function",
      "name": "removeMarketsFromCollection",
      "inputs": [
        {
          "name": "collectionId",
          "type": "uint256",
          "internalType": "uint256"
        },
        {
          "name": "markets",
          "type": "address[]",
          "internalType": "contract IRheo[]"
        }
      ],
      "outputs": [],
      "stateMutability": "nonpayable"
    },
    {
      "type": "function",
      "name": "removeRateProvidersFromCollectionMarket",
      "inputs": [
        {
          "name": "collectionId",
          "type": "uint256",
          "internalType": "uint256"
        },
        {
          "name": "market",
          "type": "address",
          "internalType": "contract IRheo"
        },
        {
          "name": "rateProviders",
          "type": "address[]",
          "internalType": "address[]"
        }
      ],
      "outputs": [],
      "stateMutability": "nonpayable"
    },
    {
      "type": "function",
      "name": "safeTransferFrom",
      "inputs": [
        {
          "name": "from",
          "type": "address",
          "internalType": "address"
        },
        {
          "name": "to",
          "type": "address",
          "internalType": "address"
        },
        {
          "name": "tokenId",
          "type": "uint256",
          "internalType": "uint256"
        }
      ],
      "outputs": [],
      "stateMutability": "nonpayable"
    },
    {
      "type": "function",
      "name": "safeTransferFrom",
      "inputs": [
        {
          "name": "from",
          "type": "address",
          "internalType": "address"
        },
        {
          "name": "to",
          "type": "address",
          "internalType": "address"
        },
        {
          "name": "tokenId",
          "type": "uint256",
          "internalType": "uint256"
        },
        {
          "name": "data",
          "type": "bytes",
          "internalType": "bytes"
        }
      ],
      "outputs": [],
      "stateMutability": "nonpayable"
    },
    {
      "type": "function",
      "name": "setApprovalForAll",
      "inputs": [
        {
          "name": "operator",
          "type": "address",
          "internalType": "address"
        },
        {
          "name": "approved",
          "type": "bool",
          "internalType": "bool"
        }
      ],
      "outputs": [],
      "stateMutability": "nonpayable"
    },
    {
      "type": "function",
      "name": "setUserCollectionCopyLimitOrderConfigs",
      "inputs": [
        {
          "name": "user",
          "type": "address",
          "internalType": "address"
        },
        {
          "name": "collectionId",
          "type": "uint256",
          "internalType": "uint256"
        },
        {
          "name": "copyLoanOfferConfig",
          "type": "tuple",
          "internalType": "struct CopyLimitOrderConfig",
          "components": [
            {
              "name": "minTenor",
              "type": "uint256",
              "internalType": "uint256"
            },
            {
              "name": "maxTenor",
              "type": "uint256",
              "internalType": "uint256"
            },
            {
              "name": "minAPR",
              "type": "uint256",
              "internalType": "uint256"
            },
            {
              "name": "maxAPR",
              "type": "uint256",
              "internalType": "uint256"
            },
            {
              "name": "offsetAPR",
              "type": "int256",
              "internalType": "int256"
            }
          ]
        },
        {
          "name": "copyBorrowOfferConfig",
          "type": "tuple",
          "internalType": "struct CopyLimitOrderConfig",
          "components": [
            {
              "name": "minTenor",
              "type": "uint256",
              "internalType": "uint256"
            },
            {
              "name": "maxTenor",
              "type": "uint256",
              "internalType": "uint256"
            },
            {
              "name": "minAPR",
              "type": "uint256",
              "internalType": "uint256"
            },
            {
              "name": "maxAPR",
              "type": "uint256",
              "internalType": "uint256"
            },
            {
              "name": "offsetAPR",
              "type": "int256",
              "internalType": "int256"
            }
          ]
        }
      ],
      "outputs": [],
      "stateMutability": "nonpayable"
    },
    {
      "type": "function",
      "name": "subscribeUserToCollections",
      "inputs": [
        {
          "name": "user",
          "type": "address",
          "internalType": "address"
        },
        {
          "name": "collectionIds",
          "type": "uint256[]",
          "internalType": "uint256[]"
        }
      ],
      "outputs": [],
      "stateMutability": "nonpayable"
    },
    {
      "type": "function",
      "name": "supportsInterface",
      "inputs": [
        {
          "name": "interfaceId",
          "type": "bytes4",
          "internalType": "bytes4"
        }
      ],
      "outputs": [
        {
          "name": "",
          "type": "bool",
          "internalType": "bool"
        }
      ],
      "stateMutability": "view"
    },
    {
      "type": "function",
      "name": "symbol",
      "inputs": [],
      "outputs": [
        {
          "name": "",
          "type": "string",
          "internalType": "string"
        }
      ],
      "stateMutability": "view"
    },
    {
      "type": "function",
      "name": "tokenByIndex",
      "inputs": [
        {
          "name": "index",
          "type": "uint256",
          "internalType": "uint256"
        }
      ],
      "outputs": [
        {
          "name": "",
          "type": "uint256",
          "internalType": "uint256"
        }
      ],
      "stateMutability": "view"
    },
    {
      "type": "function",
      "name": "tokenOfOwnerByIndex",
      "inputs": [
        {
          "name": "owner",
          "type": "address",
          "internalType": "address"
        },
        {
          "name": "index",
          "type": "uint256",
          "internalType": "uint256"
        }
      ],
      "outputs": [
        {
          "name": "",
          "type": "uint256",
          "internalType": "uint256"
        }
      ],
      "stateMutability": "view"
    },
    {
      "type": "function",
      "name": "tokenURI",
      "inputs": [
        {
          "name": "tokenId",
          "type": "uint256",
          "internalType": "uint256"
        }
      ],
      "outputs": [
        {
          "name": "",
          "type": "string",
          "internalType": "string"
        }
      ],
      "stateMutability": "view"
    },
    {
      "type": "function",
      "name": "totalSupply",
      "inputs": [],
      "outputs": [
        {
          "name": "",
          "type": "uint256",
          "internalType": "uint256"
        }
      ],
      "stateMutability": "view"
    },
    {
      "type": "function",
      "name": "transferFrom",
      "inputs": [
        {
          "name": "from",
          "type": "address",
          "internalType": "address"
        },
        {
          "name": "to",
          "type": "address",
          "internalType": "address"
        },
        {
          "name": "tokenId",
          "type": "uint256",
          "internalType": "uint256"
        }
      ],
      "outputs": [],
      "stateMutability": "nonpayable"
    },
    {
      "type": "function",
      "name": "unsubscribeUserFromCollections",
      "inputs": [
        {
          "name": "user",
          "type": "address",
          "internalType": "address"
        },
        {
          "name": "collectionIds",
          "type": "uint256[]",
          "internalType": "uint256[]"
        }
      ],
      "outputs": [],
      "stateMutability": "nonpayable"
    },
    {
      "type": "function",
      "name": "upgradeToAndCall",
      "inputs": [
        {
          "name": "newImplementation",
          "type": "address",
          "internalType": "address"
        },
        {
          "name": "data",
          "type": "bytes",
          "internalType": "bytes"
        }
      ],
      "outputs": [],
      "stateMutability": "payable"
    },
    {
      "type": "event",
      "name": "Approval",
      "inputs": [
        {
          "name": "owner",
          "type": "address",
          "indexed": true,
          "internalType": "address"
        },
        {
          "name": "approved",
          "type": "address",
          "indexed": true,
          "internalType": "address"
        },
        {
          "name": "tokenId",
          "type": "uint256",
          "indexed": true,
          "internalType": "uint256"
        }
      ],
      "anonymous": false
    },
    {
      "type": "event",
      "name": "ApprovalForAll",
      "inputs": [
        {
          "name": "owner",
          "type": "address",
          "indexed": true,
          "internalType": "address"
        },
        {
          "name": "operator",
          "type": "address",
          "indexed": true,
          "internalType": "address"
        },
        {
          "name": "approved",
          "type": "bool",
          "indexed": false,
          "internalType": "bool"
        }
      ],
      "anonymous": false
    },
    {
      "type": "event",
      "name": "Initialized",
      "inputs": [
        {
          "name": "version",
          "type": "uint64",
          "indexed": false,
          "internalType": "uint64"
        }
      ],
      "anonymous": false
    },
    {
      "type": "event",
      "name": "MarketAddedToCollection",
      "inputs": [
        {
          "name": "collectionId",
          "type": "uint256",
          "indexed": true,
          "internalType": "uint256"
        },
        {
          "name": "market",
          "type": "address",
          "indexed": true,
          "internalType": "address"
        }
      ],
      "anonymous": false
    },
    {
      "type": "event",
      "name": "MarketRemovedFromCollection",
      "inputs": [
        {
          "name": "collectionId",
          "type": "uint256",
          "indexed": true,
          "internalType": "uint256"
        },
        {
          "name": "market",
          "type": "address",
          "indexed": true,
          "internalType": "address"
        }
      ],
      "anonymous": false
    },
    {
      "type": "event",
      "name": "RateProviderAddedToMarket",
      "inputs": [
        {
          "name": "collectionId",
          "type": "uint256",
          "indexed": true,
          "internalType": "uint256"
        },
        {
          "name": "market",
          "type": "address",
          "indexed": true,
          "internalType": "address"
        },
        {
          "name": "rateProvider",
          "type": "address",
          "indexed": true,
          "internalType": "address"
        }
      ],
      "anonymous": false
    },
    {
      "type": "event",
      "name": "RateProviderRemovedFromMarket",
      "inputs": [
        {
          "name": "collectionId",
          "type": "uint256",
          "indexed": true,
          "internalType": "uint256"
        },
        {
          "name": "market",
          "type": "address",
          "indexed": true,
          "internalType": "address"
        },
        {
          "name": "rateProvider",
          "type": "address",
          "indexed": true,
          "internalType": "address"
        }
      ],
      "anonymous": false
    },
    {
      "type": "event",
      "name": "SetUserCollectionCopyLimitOrderConfigs",
      "inputs": [
        {
          "name": "user",
          "type": "address",
          "indexed": true,
          "internalType": "address"
        },
        {
          "name": "collectionId",
          "type": "uint256",
          "indexed": true,
          "internalType": "uint256"
        },
        {
          "name": "copyLoanOfferConfig",
          "type": "tuple",
          "indexed": false,
          "internalType": "struct CopyLimitOrderConfig",
          "components": [
            {
              "name": "minTenor",
              "type": "uint256",
              "internalType": "uint256"
            },
            {
              "name": "maxTenor",
              "type": "uint256",
              "internalType": "uint256"
            },
            {
              "name": "minAPR",
              "type": "uint256",
              "internalType": "uint256"
            },
            {
              "name": "maxAPR",
              "type": "uint256",
              "internalType": "uint256"
            },
            {
              "name": "offsetAPR",
              "type": "int256",
              "internalType": "int256"
            }
          ]
        },
        {
          "name": "copyBorrowOfferConfig",
          "type": "tuple",
          "indexed": false,
          "internalType": "struct CopyLimitOrderConfig",
          "components": [
            {
              "name": "minTenor",
              "type": "uint256",
              "internalType": "uint256"
            },
            {
              "name": "maxTenor",
              "type": "uint256",
              "internalType": "uint256"
            },
            {
              "name": "minAPR",
              "type": "uint256",
              "internalType": "uint256"
            },
            {
              "name": "maxAPR",
              "type": "uint256",
              "internalType": "uint256"
            },
            {
              "name": "offsetAPR",
              "type": "int256",
              "internalType": "int256"
            }
          ]
        }
      ],
      "anonymous": false
    },
    {
      "type": "event",
      "name": "SubscribedToCollection",
      "inputs": [
        {
          "name": "user",
          "type": "address",
          "indexed": true,
          "internalType": "address"
        },
        {
          "name": "collectionId",
          "type": "uint256",
          "indexed": true,
          "internalType": "uint256"
        }
      ],
      "anonymous": false
    },
    {
      "type": "event",
      "name": "Transfer",
      "inputs": [
        {
          "name": "from",
          "type": "address",
          "indexed": true,
          "internalType": "address"
        },
        {
          "name": "to",
          "type": "address",
          "indexed": true,
          "internalType": "address"
        },
        {
          "name": "tokenId",
          "type": "uint256",
          "indexed": true,
          "internalType": "uint256"
        }
      ],
      "anonymous": false
    },
    {
      "type": "event",
      "name": "UnsubscribedFromCollection",
      "inputs": [
        {
          "name": "user",
          "type": "address",
          "indexed": true,
          "internalType": "address"
        },
        {
          "name": "collectionId",
          "type": "uint256",
          "indexed": true,
          "internalType": "uint256"
        }
      ],
      "anonymous": false
    },
    {
      "type": "event",
      "name": "Upgraded",
      "inputs": [
        {
          "name": "implementation",
          "type": "address",
          "indexed": true,
          "internalType": "address"
        }
      ],
      "anonymous": false
    },
    {
      "type": "error",
      "name": "AccessControlUnauthorizedAccount",
      "inputs": [
        {
          "name": "account",
          "type": "address",
          "internalType": "address"
        },
        {
          "name": "neededRole",
          "type": "bytes32",
          "internalType": "bytes32"
        }
      ]
    },
    {
      "type": "error",
      "name": "AddressEmptyCode",
      "inputs": [
        {
          "name": "target",
          "type": "address",
          "internalType": "address"
        }
      ]
    },
    {
      "type": "error",
      "name": "ERC1967InvalidImplementation",
      "inputs": [
        {
          "name": "implementation",
          "type": "address",
          "internalType": "address"
        }
      ]
    },
    {
      "type": "error",
      "name": "ERC1967NonPayable",
      "inputs": []
    },
    {
      "type": "error",
      "name": "ERC721EnumerableForbiddenBatchMint",
      "inputs": []
    },
    {
      "type": "error",
      "name": "ERC721IncorrectOwner",
      "inputs": [
        {
          "name": "sender",
          "type": "address",
          "internalType": "address"
        },
        {
          "name": "tokenId",
          "type": "uint256",
          "internalType": "uint256"
        },
        {
          "name": "owner",
          "type": "address",
          "internalType": "address"
        }
      ]
    },
    {
      "type": "error",
      "name": "ERC721InsufficientApproval",
      "inputs": [
        {
          "name": "operator",
          "type": "address",
          "internalType": "address"
        },
        {
          "name": "tokenId",
          "type": "uint256",
          "internalType": "uint256"
        }
      ]
    },
    {
      "type": "error",
      "name": "ERC721InvalidApprover",
      "inputs": [
        {
          "name": "approver",
          "type": "address",
          "internalType": "address"
        }
      ]
    },
    {
      "type": "error",
      "name": "ERC721InvalidOperator",
      "inputs": [
        {
          "name": "operator",
          "type": "address",
          "internalType": "address"
        }
      ]
    },
    {
      "type": "error",
      "name": "ERC721InvalidOwner",
      "inputs": [
        {
          "name": "owner",
          "type": "address",
          "internalType": "address"
        }
      ]
    },
    {
      "type": "error",
      "name": "ERC721InvalidReceiver",
      "inputs": [
        {
          "name": "receiver",
          "type": "address",
          "internalType": "address"
        }
      ]
    },
    {
      "type": "error",
      "name": "ERC721InvalidSender",
      "inputs": [
        {
          "name": "sender",
          "type": "address",
          "internalType": "address"
        }
      ]
    },
    {
      "type": "error",
      "name": "ERC721NonexistentToken",
      "inputs": [
        {
          "name": "tokenId",
          "type": "uint256",
          "internalType": "uint256"
        }
      ]
    },
    {
      "type": "error",
      "name": "ERC721OutOfBoundsIndex",
      "inputs": [
        {
          "name": "owner",
          "type": "address",
          "internalType": "address"
        },
        {
          "name": "index",
          "type": "uint256",
          "internalType": "uint256"
        }
      ]
    },
    {
      "type": "error",
      "name": "FailedCall",
      "inputs": []
    },
    {
      "type": "error",
      "name": "INVALID_APR_RANGE",
      "inputs": [
        {
          "name": "minAPR",
          "type": "uint256",
          "internalType": "uint256"
        },
        {
          "name": "maxAPR",
          "type": "uint256",
          "internalType": "uint256"
        }
      ]
    },
    {
      "type": "error",
      "name": "INVALID_MARKET",
      "inputs": [
        {
          "name": "market",
          "type": "address",
          "internalType": "address"
        }
      ]
    },
    {
      "type": "error",
      "name": "INVALID_OFFER_CONFIGS",
      "inputs": [
        {
          "name": "minTenorBorrowOffer",
          "type": "uint256",
          "internalType": "uint256"
        },
        {
          "name": "maxTenorBorrowOffer",
          "type": "uint256",
          "internalType": "uint256"
        },
        {
          "name": "minAPRBorrowOffer",
          "type": "uint256",
          "internalType": "uint256"
        },
        {
          "name": "maxAPRBorrowOffer",
          "type": "uint256",
          "internalType": "uint256"
        },
        {
          "name": "minTenorLoanOffer",
          "type": "uint256",
          "internalType": "uint256"
        },
        {
          "name": "maxTenorLoanOffer",
          "type": "uint256",
          "internalType": "uint256"
        },
        {
          "name": "minAPRLoanOffer",
          "type": "uint256",
          "internalType": "uint256"
        },
        {
          "name": "maxAPRLoanOffer",
          "type": "uint256",
          "internalType": "uint256"
        }
      ]
    },
    {
      "type": "error",
      "name": "INVALID_TENOR_RANGE",
      "inputs": [
        {
          "name": "minTenor",
          "type": "uint256",
          "internalType": "uint256"
        },
        {
          "name": "maxTenor",
          "type": "uint256",
          "internalType": "uint256"
        }
      ]
    },
    {
      "type": "error",
      "name": "InvalidCollectionId",
      "inputs": [
        {
          "name": "collectionId",
          "type": "uint256",
          "internalType": "uint256"
        }
      ]
    },
    {
      "type": "error",
      "name": "InvalidCollectionMarketRateProvider",
      "inputs": [
        {
          "name": "collectionId",
          "type": "uint256",
          "internalType": "uint256"
        },
        {
          "name": "market",
          "type": "address",
          "internalType": "address"
        },
        {
          "name": "rateProvider",
          "type": "address",
          "internalType": "address"
        }
      ]
    },
    {
      "type": "error",
      "name": "InvalidInitialization",
      "inputs": []
    },
    {
      "type": "error",
      "name": "InvalidMaturity",
      "inputs": [
        {
          "name": "maturity",
          "type": "uint256",
          "internalType": "uint256"
        },
        {
          "name": "minTenor",
          "type": "uint256",
          "internalType": "uint256"
        },
        {
          "name": "maxTenor",
          "type": "uint256",
          "internalType": "uint256"
        }
      ]
    },
    {
      "type": "error",
      "name": "MarketNotInCollection",
      "inputs": [
        {
          "name": "collectionId",
          "type": "uint256",
          "internalType": "uint256"
        },
        {
          "name": "market",
          "type": "address",
          "internalType": "address"
        }
      ]
    },
    {
      "type": "error",
      "name": "NotInitializing",
      "inputs": []
    },
    {
      "type": "error",
      "name": "OnlyRheoFactory",
      "inputs": [
        {
          "name": "user",
          "type": "address",
          "internalType": "address"
        }
      ]
    },
    {
      "type": "error",
      "name": "PAST_MATURITY",
      "inputs": [
        {
          "name": "maturity",
          "type": "uint256",
          "internalType": "uint256"
        }
      ]
    },
    {
      "type": "error",
      "name": "PAUSED_MARKET",
      "inputs": [
        {
          "name": "market",
          "type": "address",
          "internalType": "address"
        }
      ]
    },
    {
      "type": "error",
      "name": "SafeCastOverflowedIntToUint",
      "inputs": [
        {
          "name": "value",
          "type": "int256",
          "internalType": "int256"
        }
      ]
    },
    {
      "type": "error",
      "name": "SafeCastOverflowedUintToInt",
      "inputs": [
        {
          "name": "value",
          "type": "uint256",
          "internalType": "uint256"
        }
      ]
    },
    {
      "type": "error",
      "name": "UUPSUnauthorizedCallContext",
      "inputs": []
    },
    {
      "type": "error",
      "name": "UUPSUnsupportedProxiableUUID",
      "inputs": [
        {
          "name": "slot",
          "type": "bytes32",
          "internalType": "bytes32"
        }
      ]
    }
  ],
  "bytecode": {
    "object": "0x60a06040523060805234801562000014575f80fd5b506200001f62000025565b620000d9565b7ff0c57e16840df040f15088dc2f81fe391c3923bec73e23a9662efc9c229c6a00805468010000000000000000900460ff1615620000765760405163f92ee8a960e01b815260040160405180910390fd5b80546001600160401b0390811614620000d65780546001600160401b0319166001600160401b0390811782556040519081527fc7f505b2f371ae2175ee4913f4499e1f2633a7b5936321eed1cdaeb6115181d29060200160405180910390a15b50565b608051614388620001005f395f8181611f2501528181611f4e015261211e01526143885ff3fe608060405260043610610249575f3560e01c806370a0823111610134578063ac9650d8116100b3578063c4d66de811610078578063c4d66de8146106f2578063c87b56dd14610711578063dd2bc30214610730578063de1eb8801461075c578063e985e9c51461077b578063eb379a581461079a575f80fd5b8063ac9650d81461062c578063ad3cb1cc14610658578063b88d4fde14610688578063b9d33d1e146106a7578063c260d206146106d3575f80fd5b80639feffdb0116100f95780639feffdb014610591578063a0529e5f146105b0578063a22cb465146105cf578063abff1222146105ee578063ac888c071461060d575f80fd5b806370a08231146105015780638134a9e01461052057806393c0d3f31461053f57806395d89b411461055e5780639e4082db14610572575f80fd5b80633184b046116101cb57806352d1902d1161019057806352d1902d1461045b578063565380571461046f5780635fb7f10c146104905780636352211e146104af578063647f1a9c146104ce578063678b9bad146104e2575f80fd5b80633184b046146103bf57806342842e0e146103eb578063495e6d891461040a5780634f1ef286146104295780634f6ccce71461043c575f80fd5b806318160ddd1161021157806318160ddd1461031957806318d5932d1461034357806320d634561461036257806323b872dd146103815780632f745c59146103a0575f80fd5b806301ffc9a71461024d57806306fdde0314610281578063081812fc146102a2578063095ea7b3146102d95780630b379508146102fa575b5f80fd5b348015610258575f80fd5b5061026c61026736600461355f565b6107b9565b60405190151581526020015b60405180910390f35b34801561028c575f80fd5b506102956107e3565b60405161027891906135c7565b3480156102ad575f80fd5b506102c16102bc3660046135d9565b610884565b6040516001600160a01b039091168152602001610278565b3480156102e4575f80fd5b506102f86102f3366004613604565b610898565b005b348015610305575f80fd5b506102f86103143660046136bc565b6108a7565b348015610324575f80fd5b505f80516020614333833981519152545b604051908152602001610278565b34801561034e575f80fd5b506102f861035d3660046137be565b6109dd565b34801561036d575f80fd5b5061026c61037c366004613604565b610a1b565b34801561038c575f80fd5b506102f861039b36600461380d565b610a43565b3480156103ab575f80fd5b506103356103ba366004613604565b610ac6565b3480156103ca575f80fd5b506103de6103d9366004613604565b610b37565b604051610278919061384b565b3480156103f6575f80fd5b506102f861040536600461380d565b610b4a565b348015610415575f80fd5b50610335610424366004613884565b610b69565b6102f8610437366004613946565b610b84565b348015610447575f80fd5b506103356104563660046135d9565b610b9f565b348015610466575f80fd5b50610335610c11565b34801561047a575f80fd5b5061026c6104893660046135d9565b6001541190565b34801561049b575f80fd5b506103356104aa366004613884565b610c2d565b3480156104ba575f80fd5b506102c16104c93660046135d9565b610c3d565b3480156104d9575f80fd5b50610335610c47565b3480156104ed575f80fd5b5061026c6104fc366004613992565b610c67565b34801561050c575f80fd5b5061033561051b3660046139d7565b610c80565b34801561052b575f80fd5b5061026c61053a3660046139f2565b610cd8565b34801561054a575f80fd5b506102f8610559366004613a20565b610d1a565b348015610569575f80fd5b50610295610eb0565b34801561057d575f80fd5b506103de61058c366004613604565b610eee565b34801561059c575f80fd5b5061026c6105ab366004613992565b610f02565b3480156105bb575f80fd5b506102f86105ca366004613ac0565b610f11565b3480156105da575f80fd5b506102f86105e9366004613b5e565b611187565b3480156105f9575f80fd5b506102f8610608366004613ac0565b611192565b348015610618575f80fd5b5061026c610627366004613b8a565b6112e8565b348015610637575f80fd5b5061064b610646366004613bda565b611389565b6040516102789190613c48565b348015610663575f80fd5b50610295604051806040016040528060058152602001640352e302e360dc1b81525081565b348015610693575f80fd5b506102f86106a2366004613caa565b61146e565b3480156106b2575f80fd5b506106c66106c13660046139d7565b611486565b6040516102789190613d11565b3480156106de575f80fd5b506103356106ed366004613d54565b6114a9565b3480156106fd575f80fd5b506102f861070c3660046139d7565b6115fa565b34801561071c575f80fd5b5061029561072b3660046135d9565b611774565b34801561073b575f80fd5b5061074f61074a3660046139f2565b6117d8565b6040516102789190613dc0565b348015610767575f80fd5b506102f8610776366004613a20565b611886565b348015610786575f80fd5b5061026c610795366004613e00565b6119b6565b3480156107a5575f80fd5b506102f86107b43660046136bc565b611a02565b5f6001600160e01b0319821663780e9d6360e01b14806107dd57506107dd82611b25565b92915050565b5f805160206142f3833981519152805460609190819061080290613e2c565b80601f016020809104026020016040519081016040528092919081815260200182805461082e90613e2c565b80156108795780601f1061085057610100808354040283529160200191610879565b820191905f5260205f20905b81548152906001019060200180831161085c57829003601f168201915b505050505091505090565b5f61088e82611b74565b506107dd82611bab565b6108a3828233611be4565b5050565b826108bb6108b482610c3d565b3383611bf1565b5f8481526002602090815260408083206001600160a01b038716845290915290205460ff1661091457604051631713bf1160e21b8152600481018590526001600160a01b03841660248201526044015b60405180910390fd5b5f5b82518110156109d6575f61096a84838151811061093557610935613e64565b6020908102919091018101515f8981526002835260408082206001600160a01b038b1683529093529190912060010190611c55565b905080156109cd5783828151811061098457610984613e64565b60200260200101516001600160a01b0316856001600160a01b0316877f41a3856b408397a3953ee2e3fc5961815599fafae92aa64253fea4124c15835260405160405180910390a45b50600101610916565b5050505050565b5f546001600160a01b03163314610a0957604051633828b0ed60e21b815233600482015260240161090b565b610a1584848484611c69565b50505050565b6001600160a01b0382165f908152600360205260408120610a3c9083611d72565b9392505050565b6001600160a01b038216610a6c57604051633250574960e11b81525f600482015260240161090b565b5f610a78838333611d89565b9050836001600160a01b0316816001600160a01b031614610a15576040516364283d7b60e01b81526001600160a01b038086166004830152602482018490528216604482015260640161090b565b5f5f805160206142d3833981519152610ade84610c80565b8310610b0f5760405163295f44f760e21b81526001600160a01b03851660048201526024810184905260440161090b565b6001600160a01b0384165f908152602091825260408082208583529092522054905092915050565b610b3f6134f6565b610a3c83835f611e7f565b610b6483838360405180602001604052805f81525061146e565b505050565b5f610b7886868686865f6114a9565b90505b95945050505050565b610b8c611f1a565b610b9582611fc0565b6108a38282612057565b5f5f805160206142d3833981519152610bc35f805160206143338339815191525490565b8310610beb5760405163295f44f760e21b81525f60048201526024810184905260440161090b565b806002018381548110610c0057610c00613e64565b905f5260205f200154915050919050565b5f610c1a612113565b505f805160206143138339815191525b90565b5f610b78868686868660016114a9565b5f6107dd82611b74565b600180545f9182610c5783613e8c565b919050559050610c2a338261215c565b5f610c75858585855f612175565b90505b949350505050565b5f5f805160206142f38339815191526001600160a01b038316610cb8576040516322718ad960e21b81525f600482015260240161090b565b6001600160a01b039092165f908152600390920160205250604090205490565b5f610ce4836001541190565b610cef57505f6107dd565b505f9182526002602090815260408084206001600160a01b0393909316845291905290205460ff1690565b5f546001600160a01b03163314610d4657604051633828b0ed60e21b815233600482015260240161090b565b5f6040518060a001604052805f81526020015f1981526020015f81526020015f1981526020015f81525090505f5b8251811015610a1557610da1838281518110610d9257610d92613e64565b60200260200101516001541190565b610ddb57828181518110610db757610db7613e64565b602002602001015160405163500f73d960e01b815260040161090b91815260200190565b5f610e2a848381518110610df157610df1613e64565b602002602001015160035f886001600160a01b03166001600160a01b031681526020019081526020015f2061242490919063ffffffff16565b90508015610ea757838281518110610e4457610e44613e64565b6020026020010151856001600160a01b03167fe9919c1157673d017b4e5eef8d4c012fadcf6ee40cf5f99a0912a0109b5d584260405160405180910390a3610ea785858481518110610e9857610e98613e64565b60200260200101518586611c69565b50600101610d74565b7f80bb2b638cc20bc4d0a60d66940f3ab4a00c1d7b313497ca82fb0b4ab007930180546060915f805160206142f38339815191529161080290613e2c565b610ef66134f6565b610a3c83836001611e7f565b5f610c75858585856001612175565b81610f1e6108b482610c3d565b5f5b8251811015610a15575f5483516001600160a01b0390911690636ec934da90859084908110610f5157610f51613e64565b60200260200101516040518263ffffffff1660e01b8152600401610f8491906001600160a01b0391909116815260200190565b602060405180830381865afa158015610f9f573d5f803e3d5ffd5b505050506040513d601f19601f82011682018060405250810190610fc39190613ea4565b61100a57828181518110610fd957610fd9613e64565b602002602001015160405163e2a7bea360e01b815260040161090b91906001600160a01b0391909116815260200190565b82818151811061101c5761101c613e64565b60200260200101516001600160a01b0316635c975abb6040518163ffffffff1660e01b8152600401602060405180830381865afa15801561105f573d5f803e3d5ffd5b505050506040513d601f19601f820116820180604052508101906110839190613ea4565b156110cb5782818151811061109a5761109a613e64565b602002602001015160405163b4e1115760e01b815260040161090b91906001600160a01b0391909116815260200190565b5f8481526002602052604081208451600192908690859081106110f0576110f0613e64565b60200260200101516001600160a01b03166001600160a01b031681526020019081526020015f205f015f6101000a81548160ff02191690831515021790555082818151811061114157611141613e64565b60200260200101516001600160a01b0316847f42e38738c8d2e007a797548d288aea65537b98d212336f6fa33ca20c7a99088560405160405180910390a3600101610f20565b6108a333838361242f565b8161119f6108b482610c3d565b5f5b8251811015610a15575f61120160025f8781526020019081526020015f205f8685815181106111d2576111d2613e64565b60200260200101516001600160a01b03166001600160a01b031681526020019081526020015f206001016124d5565b90506112278585848151811061121957611219613e64565b6020026020010151836108a7565b60025f8681526020019081526020015f205f85848151811061124b5761124b613e64565b6020908102919091018101516001600160a01b031682528101919091526040015f908120805460ff1916815590600182018181816112898282613520565b5050505050508382815181106112a1576112a1613e64565b60200260200101516001600160a01b0316857fa328ee555a02ae133b939087dcc439417783329f687112f415290a4637f64ab760405160405180910390a3506001016111a1565b5f6112f4846001541190565b6112ff57505f610c78565b6001600160a01b0385165f9081526003602052604090206113209085611d72565b61132b57505f610c78565b5f8481526002602090815260408083206001600160a01b038716845290915290205460ff1661135b57505f610c78565b5f8481526002602090815260408083206001600160a01b03871684529091529020610c7590600101836124e1565b604080515f815260208101909152606090826001600160401b038111156113b2576113b261362e565b6040519080825280602002602001820160405280156113e557816020015b60608152602001906001900390816113d05790505b5091505f5b83811015611466576114413086868481811061140857611408613e64565b905060200281019061141a9190613ed2565b8560405160200161142d93929190613f1b565b604051602081830303815290604052612502565b83828151811061145357611453613e64565b60209081029190910101526001016113ea565b505092915050565b611479848484610a43565b610a15338585858561256b565b6001600160a01b0381165f9081526003602052604090206060906107dd906124d5565b5f5f1986036114c5576114be8786858561268a565b90506115f0565b6114d1878787876112e8565b6115085760405163c6c8526f60e01b8152600481018790526001600160a01b0380871660248301528516604482015260640161090b565b5f6115158888888661273c565b905042841161153a576040516317a6a68360e21b81526004810185905260240161090b565b5f6115454286613ebf565b825190915081108061155a5750816020015181115b1561158f57815160208301516040516302a19e9d60e31b8152600481018890526024810192909252604482015260640161090b565b5f61159c8789888861268a565b90506115be83608001516115af8361276a565b6115b99190613f40565b61279a565b935082604001518410156115d857826040015193506115ec565b82606001518411156115ec57826060015193505b5050505b9695505050505050565b5f6116036127bf565b805490915060ff600160401b82041615906001600160401b03165f811580156116295750825b90505f826001600160401b031660011480156116445750303b155b905081158015611652575080155b156116705760405163f92ee8a960e01b815260040160405180910390fd5b845467ffffffffffffffff19166001178555831561169a57845460ff60401b1916600160401b1785555b6116f46040518060400160405280601081526020016f5268656f20436f6c6c656374696f6e7360801b8152506040518060400160405280601081526020016f5248454f5f434f4c4c454354494f4e5360801b8152506127e7565b6116fc6127f9565b6117046127f9565b61170c6127f9565b5f80546001600160a01b0319166001600160a01b038816179055831561176c57845460ff60401b19168555604051600181527fc7f505b2f371ae2175ee4913f4499e1f2633a7b5936321eed1cdaeb6115181d29060200160405180910390a15b505050505050565b606061177f82611b74565b505f611789612801565b90505f8151116117a75760405180602001604052805f815250610a3c565b806117b184612830565b6040516020016117c2929190613f5f565b6040516020818303038152906040529392505050565b60606117e5836001541190565b6118055760405163500f73d960e01b81526004810184905260240161090b565b5f8381526002602090815260408083206001600160a01b038616845290915290205460ff1661185957604051631713bf1160e21b8152600481018490526001600160a01b038316602482015260440161090b565b5f8381526002602090815260408083206001600160a01b03861684529091529020610a3c906001016124d5565b5f546001600160a01b031633146118b257604051633828b0ed60e21b815233600482015260240161090b565b6118ba6134f6565b5f5b8251811015610a15576118da838281518110610d9257610d92613e64565b6118f057828181518110610db757610db7613e64565b5f61193f84838151811061190657611906613e64565b602002602001015160035f886001600160a01b03166001600160a01b031681526020019081526020015f206128bf90919063ffffffff16565b905080156119ad5783828151811061195957611959613e64565b6020026020010151856001600160a01b03167fd0b1806956ca744bd88a4e4057a137959cb88d8d4e7e8d793301cfdf7df7cb2b60405160405180910390a36119ad85858481518110610e9857610e98613e64565b506001016118bc565b6001600160a01b039182165f9081527f80bb2b638cc20bc4d0a60d66940f3ab4a00c1d7b313497ca82fb0b4ab00793056020908152604080832093909416825291909152205460ff1690565b82611a0f6108b482610c3d565b5f8481526002602090815260408083206001600160a01b038716845290915290205460ff16611a6357604051631713bf1160e21b8152600481018590526001600160a01b038416602482015260440161090b565b5f5b82518110156109d6575f611ab9848381518110611a8457611a84613e64565b6020908102919091018101515f8981526002835260408082206001600160a01b038b16835290935291909120600101906128ca565b90508015611b1c57838281518110611ad357611ad3613e64565b60200260200101516001600160a01b0316856001600160a01b0316877f8e2f88c467ecc78e2adbbe6d65b6176668f4cc362a196a5c46d203a9db8d8fbe60405160405180910390a45b50600101611a65565b5f6001600160e01b031982166380ac58cd60e01b1480611b5557506001600160e01b03198216635b5e139f60e01b145b806107dd57506301ffc9a760e01b6001600160e01b03198316146107dd565b5f80611b7f836128de565b90506001600160a01b0381166107dd57604051637e27328960e01b81526004810184905260240161090b565b5f9081527f80bb2b638cc20bc4d0a60d66940f3ab4a00c1d7b313497ca82fb0b4ab007930460205260409020546001600160a01b031690565b610b648383836001612917565b611bfc838383612a2a565b610b64576001600160a01b038316611c2a57604051637e27328960e01b81526004810182905260240161090b565b60405163177e802f60e01b81526001600160a01b03831660048201526024810182905260440161090b565b5f610a3c836001600160a01b038416612a8e565b611c74836001541190565b611c945760405163500f73d960e01b81526004810184905260240161090b565b611c9e8282612b71565b60408051808201825283815260208082018481526001600160a01b0388165f81815260048085528682208a8352855290869020945180518655808501516001870155808701516002870155606080820151600388015560809182015192870192909255925180516005870155938401516006860155838601516007860155830151600885015591015160099092019190915590518491907fb20b9722fd4401237d66274470a4daf19d973d3f3150edba3bcadf8467ed9b4290611d649086908690613f8d565b60405180910390a350505050565b5f8181526001830160205260408120541515610a3c565b5f80611d96858585612d03565b90506001600160a01b038116611e1d57611e18845f8051602061433383398151915280545f8381527f645e039705490088daad89bae25049a34f4a9072d398537b1ab2425f24cbed0360205260408120829055600182018355919091527fa42f15e5d656f8155fd7419d740a6073999f19cd6e061449ce4a257150545bf20155565b611e40565b846001600160a01b0316816001600160a01b031614611e4057611e408185612e05565b6001600160a01b038516611e5c57611e5784612e9c565b610c78565b846001600160a01b0316816001600160a01b031614610c7857610c788585612f69565b611e876134f6565b81611eb6576001600160a01b0384165f9081526004602090815260408083208684529091529020600501611ed9565b6001600160a01b0384165f90815260046020908152604080832086845290915290205b6040805160a0810182528254815260018301546020820152600283015491810191909152600382015460608201526004909101546080820152949350505050565b306001600160a01b037f0000000000000000000000000000000000000000000000000000000000000000161480611fa057507f00000000000000000000000000000000000000000000000000000000000000006001600160a01b0316611f945f80516020614313833981519152546001600160a01b031690565b6001600160a01b031614155b15611fbe5760405163703e46dd60e11b815260040160405180910390fd5b565b5f8054604051632474521560e21b8152600481018390523360248201526001600160a01b03909116906391d1485490604401602060405180830381865afa15801561200d573d5f803e3d5ffd5b505050506040513d601f19601f820116820180604052508101906120319190613ea4565b6108a35760405163e2517d3f60e01b81523360048201526024810182905260440161090b565b816001600160a01b03166352d1902d6040518163ffffffff1660e01b8152600401602060405180830381865afa9250505080156120b1575060408051601f3d908101601f191682019092526120ae91810190613ffd565b60015b6120d957604051634c9c8ce360e01b81526001600160a01b038316600482015260240161090b565b5f80516020614313833981519152811461210957604051632a87526960e21b81526004810182905260240161090b565b610b648383612fc1565b306001600160a01b037f00000000000000000000000000000000000000000000000000000000000000001614611fbe5760405163703e46dd60e11b815260040160405180910390fd5b6108a3828260405180602001604052805f815250613016565b6001600160a01b0385165f908152600360205260408120815b6121978261302d565b81101561232b575f6121a98383613036565b5f8181526002602090815260408083206001600160a01b038c16845290915290205490915060ff166121db5750612323565b5f8181526002602090815260408083206001600160a01b038b1684529091528120600101905b61220a8261302d565b81101561231f575f61221c8383613036565b905061222a818b8a15613041565b156122355750612317565b306001600160a01b031663c260d2068d868d858e8e156040518763ffffffff1660e01b815260040161226c96959493929190614014565b602060405180830381865afa9250505080156122a5575060408051601f3d908101601f191682019092526122a291810190613ffd565b60015b6122de573d8080156122d2576040519150601f19603f3d011682016040523d82523d5f602084013e6122d7565b606091505b5050612315565b8880156122eb57508b8110155b806122ff5750881580156122ff5750808c10155b15612313575f975050505050505050610b7b565b505b505b600101612201565b5050505b60010161218e565b5061233887868515613041565b15612347576001915050610b7b565b604051636130690360e11b8152309063c260d20690612376908a905f19908a905f908b908b1590600401614014565b602060405180830381865afa9250505080156123af575060408051601f3d908101601f191682019092526123ac91810190613ffd565b60015b6123e8573d8080156123dc576040519150601f19603f3d011682016040523d82523d5f602084013e6123e1565b606091505b505061241a565b8380156123f55750868110155b806124095750831580156124095750808710155b15612418575f92505050610b7b565b505b6001915050610b7b565b5f610a3c83836130c7565b5f805160206142f38339815191526001600160a01b03831661246f57604051630b61174360e31b81526001600160a01b038416600482015260240161090b565b6001600160a01b038481165f818152600584016020908152604080832094881680845294825291829020805460ff191687151590811790915591519182527f17307eab39ab6107e8899845ad3d59bd9653f200f220920489ca2b5937696c319101611d64565b60605f610a3c83613113565b6001600160a01b0381165f9081526001830160205260408120541515610a3c565b60605f80846001600160a01b03168460405161251e919061404e565b5f60405180830381855af49150503d805f8114612556576040519150601f19603f3d011682016040523d82523d5f602084013e61255b565b606091505b5091509150610b7b85838361316c565b6001600160a01b0383163b156109d657604051630a85bd0160e11b81526001600160a01b0384169063150b7a02906125ad908890889087908790600401614069565b6020604051808303815f875af19250505080156125e7575060408051601f3d908101601f191682019092526125e49181019061409b565b60015b61264e573d808015612614576040519150601f19603f3d011682016040523d82523d5f602084013e612619565b606091505b5080515f0361264657604051633250574960e11b81526001600160a01b038516600482015260240161090b565b805181602001fd5b6001600160e01b03198116630a85bd0160e11b1461176c57604051633250574960e11b81526001600160a01b038516600482015260240161090b565b5f811561270757604051620d37ab60e81b81526001600160a01b03868116600483015260248201859052851690630d37ab00906044015b602060405180830381865afa1580156126dc573d5f803e3d5ffd5b505050506040513d601f19601f820116820180604052508101906127009190613ffd565b9050610c78565b604051632b59bd9960e01b81526001600160a01b03868116600483015260248201859052851690632b59bd99906044016126c1565b6127446134f6565b61274f8584846131c8565b905061275a8161323d565b15610c7857610c75858584611e7f565b5f6001600160ff1b038211156127965760405163123baf0360e11b81526004810183905260240161090b565b5090565b5f8082121561279657604051635467221960e11b81526004810183905260240161090b565b5f807ff0c57e16840df040f15088dc2f81fe391c3923bec73e23a9662efc9c229c6a006107dd565b6127ef61327c565b6108a382826132a1565b611fbe61327c565b606061280c46612830565b60405160200161281c91906140b6565b604051602081830303815290604052905090565b60605f61283c836132d1565b60010190505f816001600160401b0381111561285a5761285a61362e565b6040519080825280601f01601f191660200182016040528015612884576020820181803683370190505b5090508181016020015b5f19016f181899199a1a9b1b9c1cb0b131b232b360811b600a86061a8153600a850494508461288e57509392505050565b5f610a3c8383612a8e565b5f610a3c836001600160a01b0384166130c7565b5f9081527f80bb2b638cc20bc4d0a60d66940f3ab4a00c1d7b313497ca82fb0b4ab007930260205260409020546001600160a01b031690565b5f805160206142f3833981519152818061293957506001600160a01b03831615155b156129fa575f61294885611b74565b90506001600160a01b038416158015906129745750836001600160a01b0316816001600160a01b031614155b8015612987575061298581856119b6565b155b156129b05760405163a9fbf51f60e01b81526001600160a01b038516600482015260240161090b565b82156129f85784866001600160a01b0316826001600160a01b03167f8c5be1e5ebec7d5bd14f71427d1e84f3dd0314c0f7b2291e5b200ac8c7c3b92560405160405180910390a45b505b5f93845260040160205250506040902080546001600160a01b0319166001600160a01b0392909216919091179055565b5f6001600160a01b03831615801590610c785750826001600160a01b0316846001600160a01b03161480612a635750612a6384846119b6565b80610c785750826001600160a01b0316612a7c83611bab565b6001600160a01b031614949350505050565b5f8181526001830160205260408120548015612b68575f612ab0600183613ebf565b85549091505f90612ac390600190613ebf565b9050808214612b22575f865f018281548110612ae157612ae1613e64565b905f5260205f200154905080875f018481548110612b0157612b01613e64565b5f918252602080832090910192909255918252600188019052604090208390555b8554869080612b3357612b33614112565b600190038181905f5260205f20015f90559055856001015f8681526020019081526020015f205f9055600193505050506107dd565b5f9150506107dd565b602082015182511115612ba757815160208301516040516307198f4960e11b81526004810192909252602482015260440161090b565b816060015182604001511115612be55781604001518260600151604051633ed3c20960e01b815260040161090b929190918252602082015260400190565b602081015181511115612c1b57805160208201516040516307198f4960e11b81526004810192909252602482015260440161090b565b806060015181604001511115612c595780604001518160600151604051633ed3c20960e01b815260040161090b929190918252602082015260400190565b81606001518160400151118015612c7557508151602082015110155b8015612c8657508051602083015110155b156108a357805f0151816020015182604001518360600151855f015186602001518760400151886060015160405163a19d2d6760e01b815260040161090b989796959493929190978852602088019690965260408701949094526060860192909252608085015260a084015260c083015260e08201526101000190565b5f5f805160206142f383398151915281612d1c856128de565b90506001600160a01b03841615612d3857612d38818587611bf1565b6001600160a01b03811615612d7457612d535f865f80612917565b6001600160a01b0381165f908152600383016020526040902080545f190190555b6001600160a01b03861615612da4576001600160a01b0386165f9081526003830160205260409020805460010190555b5f85815260028301602052604080822080546001600160a01b0319166001600160a01b038a811691821790925591518893918516917fddf252ad1be2c89b69c2b068fc378daa952ba7f163c4a11628f55a4df523b3ef91a495945050505050565b5f805160206142d38339815191525f612e1d84610c80565b5f8481526001840160209081526040808320546001600160a01b03891684529186905290912091925090818314612e75575f838152602082815260408083205485845281842081905583526001870190915290208290555b5f948552600190930160209081526040808620869055928552929092528220919091555050565b5f80516020614333833981519152545f805160206142d3833981519152905f90612ec890600190613ebf565b5f848152600384016020526040812054600285018054939450909284908110612ef357612ef3613e64565b905f5260205f200154905080846002018381548110612f1457612f14613e64565b5f91825260208083209091019290925582815260038601909152604080822084905586825281205560028401805480612f4f57612f4f614112565b600190038181905f5260205f20015f905590555050505050565b5f805160206142d38339815191525f6001612f8385610c80565b612f8d9190613ebf565b6001600160a01b039094165f9081526020838152604080832087845282528083208690559482526001909301909252502055565b612fca826133a8565b6040516001600160a01b038316907fbc7cd75a20ee27fd9adebab32041f755214dbc6bffa90cc0225b39da2e5c2d3b905f90a280511561300e57610b648282612502565b6108a361340b565b613020838361342a565b610b64335f85858561256b565b5f6107dd825490565b5f610a3c838361348b565b6040516306be2e4960e01b81526001600160a01b0384811660048301525f9182918291908616906306be2e49906024016040805180830381865afa15801561308b573d5f803e3d5ffd5b505050506040513d601f19601f820116820180604052508101906130af9190614126565b91509150836130be57806115f0565b50949350505050565b5f81815260018301602052604081205461310c57508154600181810184555f8481526020808220909301849055845484825282860190935260409020919091556107dd565b505f6107dd565b6060815f0180548060200260200160405190810160405280929190818152602001828054801561316057602002820191905f5260205f20905b81548152602001906001019080831161314c575b50505050509050919050565b6060826131815761317c826134b1565b610a3c565b815115801561319857506001600160a01b0384163b155b156131c157604051639996b31560e01b81526001600160a01b038516600482015260240161090b565b5080610a3c565b6131d06134f6565b604051636bef2baf60e11b81526001600160a01b0385811660048301525f91829186169063d7de575e9060240161014060405180830381865afa158015613219573d5f803e3d5ffd5b505050506040513d601f19601f820116820180604052508101906130af919061419f565b80515f9015801561325057506020820151155b801561325e57506040820151155b801561326c57506060820151155b80156107dd575050608001511590565b6132846134dd565b611fbe57604051631afcd79f60e31b815260040160405180910390fd5b6132a961327c565b5f805160206142f3833981519152806132c28482614217565b5060018101610a158382614217565b5f8072184f03e93ff9f4daa797ed6e38ed64bf6a1f0160401b831061330f5772184f03e93ff9f4daa797ed6e38ed64bf6a1f0160401b830492506040015b6d04ee2d6d415b85acef8100000000831061333b576d04ee2d6d415b85acef8100000000830492506020015b662386f26fc10000831061335957662386f26fc10000830492506010015b6305f5e1008310613371576305f5e100830492506008015b612710831061338557612710830492506004015b60648310613397576064830492506002015b600a83106107dd5760010192915050565b806001600160a01b03163b5f036133dd57604051634c9c8ce360e01b81526001600160a01b038216600482015260240161090b565b5f8051602061431383398151915280546001600160a01b0319166001600160a01b0392909216919091179055565b3415611fbe5760405163b398979f60e01b815260040160405180910390fd5b6001600160a01b03821661345357604051633250574960e11b81525f600482015260240161090b565b5f61345f83835f611d89565b90506001600160a01b03811615610b64576040516339e3563760e11b81525f600482015260240161090b565b5f825f0182815481106134a0576134a0613e64565b905f5260205f200154905092915050565b8051156134c15780518082602001fd5b60405163d6bda27560e01b815260040160405180910390fd5b50565b5f6134e66127bf565b54600160401b900460ff16919050565b6040518060a001604052805f81526020015f81526020015f81526020015f81526020015f81525090565b5080545f8255905f5260205f20908101906134da91905b80821115612796575f8155600101613537565b6001600160e01b0319811681146134da575f80fd5b5f6020828403121561356f575f80fd5b8135610a3c8161354a565b5f5b8381101561359457818101518382015260200161357c565b50505f910152565b5f81518084526135b381602086016020860161357a565b601f01601f19169290920160200192915050565b602081525f610a3c602083018461359c565b5f602082840312156135e9575f80fd5b5035919050565b6001600160a01b03811681146134da575f80fd5b5f8060408385031215613615575f80fd5b8235613620816135f0565b946020939093013593505050565b634e487b7160e01b5f52604160045260245ffd5b60405160a081016001600160401b03811182821017156136645761366461362e565b60405290565b604051601f8201601f191681016001600160401b03811182821017156136925761369261362e565b604052919050565b5f6001600160401b038211156136b2576136b261362e565b5060051b60200190565b5f805f606084860312156136ce575f80fd5b833592506020808501356136e1816135f0565b925060408501356001600160401b038111156136fb575f80fd5b8501601f8101871361370b575f80fd5b803561371e6137198261369a565b61366a565b81815260059190911b8201830190838101908983111561373c575f80fd5b928401925b82841015613763578335613754816135f0565b82529284019290840190613741565b80955050505050509250925092565b5f60a08284031215613782575f80fd5b61378a613642565b9050813581526020820135602082015260408201356040820152606082013560608201526080820135608082015292915050565b5f805f8061018085870312156137d2575f80fd5b84356137dd816135f0565b9350602085013592506137f38660408701613772565b91506138028660e08701613772565b905092959194509250565b5f805f6060848603121561381f575f80fd5b833561382a816135f0565b9250602084013561383a816135f0565b929592945050506040919091013590565b60a081016107dd828480518252602081015160208301526040810151604083015260608101516060830152608081015160808301525050565b5f805f805f60a08688031215613898575f80fd5b85356138a3816135f0565b94506020860135935060408601356138ba816135f0565b925060608601356138ca816135f0565b949793965091946080013592915050565b5f82601f8301126138ea575f80fd5b81356001600160401b038111156139035761390361362e565b613916601f8201601f191660200161366a565b81815284602083860101111561392a575f80fd5b816020850160208301375f918101602001919091529392505050565b5f8060408385031215613957575f80fd5b8235613962816135f0565b915060208301356001600160401b0381111561397c575f80fd5b613988858286016138db565b9150509250929050565b5f805f80608085870312156139a5575f80fd5b84356139b0816135f0565b93506020850135925060408501356139c7816135f0565b9396929550929360600135925050565b5f602082840312156139e7575f80fd5b8135610a3c816135f0565b5f8060408385031215613a03575f80fd5b823591506020830135613a15816135f0565b809150509250929050565b5f8060408385031215613a31575f80fd5b8235613a3c816135f0565b91506020838101356001600160401b03811115613a57575f80fd5b8401601f81018613613a67575f80fd5b8035613a756137198261369a565b81815260059190911b82018301908381019088831115613a93575f80fd5b928401925b82841015613ab157833582529284019290840190613a98565b80955050505050509250929050565b5f8060408385031215613ad1575f80fd5b823591506020808401356001600160401b03811115613aee575f80fd5b8401601f81018613613afe575f80fd5b8035613b0c6137198261369a565b81815260059190911b82018301908381019088831115613b2a575f80fd5b928401925b82841015613ab1578335613b42816135f0565b82529284019290840190613b2f565b80151581146134da575f80fd5b5f8060408385031215613b6f575f80fd5b8235613b7a816135f0565b91506020830135613a1581613b51565b5f805f8060808587031215613b9d575f80fd5b8435613ba8816135f0565b9350602085013592506040850135613bbf816135f0565b91506060850135613bcf816135f0565b939692955090935050565b5f8060208385031215613beb575f80fd5b82356001600160401b0380821115613c01575f80fd5b818501915085601f830112613c14575f80fd5b813581811115613c22575f80fd5b8660208260051b8501011115613c36575f80fd5b60209290920196919550909350505050565b5f60208083016020845280855180835260408601915060408160051b8701019250602087015f5b82811015613c9d57603f19888603018452613c8b85835161359c565b94509285019290850190600101613c6f565b5092979650505050505050565b5f805f8060808587031215613cbd575f80fd5b8435613cc8816135f0565b93506020850135613cd8816135f0565b92506040850135915060608501356001600160401b03811115613cf9575f80fd5b613d05878288016138db565b91505092959194509250565b602080825282518282018190525f9190848201906040850190845b81811015613d4857835183529284019291840191600101613d2c565b50909695505050505050565b5f805f805f8060c08789031215613d69575f80fd5b8635613d74816135f0565b9550602087013594506040870135613d8b816135f0565b93506060870135613d9b816135f0565b92506080870135915060a0870135613db281613b51565b809150509295509295509295565b602080825282518282018190525f9190848201906040850190845b81811015613d485783516001600160a01b031683529284019291840191600101613ddb565b5f8060408385031215613e11575f80fd5b8235613e1c816135f0565b91506020830135613a15816135f0565b600181811c90821680613e4057607f821691505b602082108103613e5e57634e487b7160e01b5f52602260045260245ffd5b50919050565b634e487b7160e01b5f52603260045260245ffd5b634e487b7160e01b5f52601160045260245ffd5b5f60018201613e9d57613e9d613e78565b5060010190565b5f60208284031215613eb4575f80fd5b8151610a3c81613b51565b818103818111156107dd576107dd613e78565b5f808335601e19843603018112613ee7575f80fd5b8301803591506001600160401b03821115613f00575f80fd5b602001915036819003821315613f14575f80fd5b9250929050565b828482375f8382015f81528351613f3681836020880161357a565b0195945050505050565b8082018281125f83128015821682158216171561146657611466613e78565b5f8351613f7081846020880161357a565b835190830190613f8481836020880161357a565b01949350505050565b6101408101613fc7828580518252602081015160208301526040810151604083015260608101516060830152608081015160808301525050565b825160a0830152602083015160c0830152604083015160e083015260608301516101008301526080830151610120830152610a3c565b5f6020828403121561400d575f80fd5b5051919050565b6001600160a01b0396871681526020810195909552928516604085015293166060830152608082019290925290151560a082015260c00190565b5f825161405f81846020870161357a565b9190910192915050565b6001600160a01b03858116825284166020820152604081018390526080606082018190525f90610b789083018461359c565b5f602082840312156140ab575f80fd5b8151610a3c8161354a565b7f68747470733a2f2f6170692e7268656f2e78797a2f636f6c6c656374696f6e738152632f666d2f60e01b60208201525f82516140fa81602485016020870161357a565b602f60f81b6024939091019283015250602501919050565b634e487b7160e01b5f52603160045260245ffd5b5f8060408385031215614137575f80fd5b825161414281613b51565b6020840151909250613a1581613b51565b5f60a08284031215614163575f80fd5b61416b613642565b9050815181526020820151602082015260408201516040820152606082015160608201526080820151608082015292915050565b5f8061014083850312156141b1575f80fd5b6141bb8484614153565b91506141ca8460a08501614153565b90509250929050565b601f821115610b6457805f5260205f20601f840160051c810160208510156141f85750805b601f840160051c820191505b818110156109d6575f8155600101614204565b81516001600160401b038111156142305761423061362e565b6142448161423e8454613e2c565b846141d3565b602080601f831160018114614277575f84156142605750858301515b5f19600386901b1c1916600185901b17855561176c565b5f85815260208120601f198616915b828110156142a557888601518255948401946001909101908401614286565b50858210156142c257878501515f19600388901b60f8161c191681555b5050505050600190811b0190555056fe645e039705490088daad89bae25049a34f4a9072d398537b1ab2425f24cbed0080bb2b638cc20bc4d0a60d66940f3ab4a00c1d7b313497ca82fb0b4ab0079300360894a13ba1a3210667c828492db98dca3e2076cc3735a920a3ca505d382bbc645e039705490088daad89bae25049a34f4a9072d398537b1ab2425f24cbed02a2646970667358221220d4526dee11632f6fd199b95ef1e0ff45371db903a8163578d2c5625ce5f0158364736f6c63430008170033",
    "linkReferences": {}
  },
  "methodIdentifiers": {
    "UPGRADE_INTERFACE_VERSION()": "ad3cb1cc",
    "addMarketsToCollection(uint256,address[])": "a0529e5f",
    "addRateProvidersToCollectionMarket(uint256,address,address[])": "eb379a58",
    "approve(address,uint256)": "095ea7b3",
    "balanceOf(address)": "70a08231",
    "collectionContainsMarket(uint256,address)": "8134a9e0",
    "createCollection()": "647f1a9c",
    "getApproved(uint256)": "081812fc",
    "getBorrowOfferAPR(address,uint256,address,address,uint256)": "495e6d89",
    "getCollectionMarketRateProviders(uint256,address)": "dd2bc302",
    "getLimitOrderAPR(address,uint256,address,address,uint256,bool)": "c260d206",
    "getLoanOfferAPR(address,uint256,address,address,uint256)": "5fb7f10c",
    "getSubscribedCollections(address)": "b9d33d1e",
    "getUserDefinedCollectionCopyBorrowOfferConfig(address,uint256)": "3184b046",
    "getUserDefinedCollectionCopyLoanOfferConfig(address,uint256)": "9e4082db",
    "initialize(address)": "c4d66de8",
    "isApprovedForAll(address,address)": "e985e9c5",
    "isBorrowAPRLowerThanLoanOfferAPRs(address,uint256,address,uint256)": "678b9bad",
    "isCopyingCollectionMarketRateProvider(address,uint256,address,address)": "ac888c07",
    "isLoanAPRGreaterThanBorrowOfferAPRs(address,uint256,address,uint256)": "9feffdb0",
    "isSubscribedToCollection(address,uint256)": "20d63456",
    "isValidCollectionId(uint256)": "56538057",
    "multicall(bytes[])": "ac9650d8",
    "name()": "06fdde03",
    "ownerOf(uint256)": "6352211e",
    "proxiableUUID()": "52d1902d",
    "removeMarketsFromCollection(uint256,address[])": "abff1222",
    "removeRateProvidersFromCollectionMarket(uint256,address,address[])": "0b379508",
    "safeTransferFrom(address,address,uint256)": "42842e0e",
    "safeTransferFrom(address,address,uint256,bytes)": "b88d4fde",
    "setApprovalForAll(address,bool)": "a22cb465",
    "setUserCollectionCopyLimitOrderConfigs(address,uint256,(uint256,uint256,uint256,uint256,int256),(uint256,uint256,uint256,uint256,int256))": "18d5932d",
    "subscribeUserToCollections(address,uint256[])": "93c0d3f3",
    "supportsInterface(bytes4)": "01ffc9a7",
    "symbol()": "95d89b41",
    "tokenByIndex(uint256)": "4f6ccce7",
    "tokenOfOwnerByIndex(address,uint256)": "2f745c59",
    "tokenURI(uint256)": "c87b56dd",
    "totalSupply()": "18160ddd",
    "transferFrom(address,address,uint256)": "23b872dd",
    "unsubscribeUserFromCollections(address,uint256[])": "de1eb880",
    "upgradeToAndCall(address,bytes)": "4f1ef286"
  },
  "id": 184
}