{
  "abi": [
    {
      "type": "constructor",
      "inputs": [],
      "stateMutability": "nonpayable"
    },
    {
      "type": "function",
      "name": "DEFAULT_ADMIN_ROLE",
      "inputs": [],
      "outputs": [
        {
          "name": "",
          "type": "bytes32",
          "internalType": "bytes32"
        }
      ],
      "stateMutability": "view"
    },
    {
      "type": "function",
      "name": "UPGRADE_INTERFACE_VERSION",
      "inputs": [],
      "outputs": [
        {
          "name": "",
          "type": "string",
          "internalType": "string"
        }
      ],
      "stateMutability": "view"
    },
    {
      "type": "function",
      "name": "buyCreditLimit",
      "inputs": [
        {
          "name": "params",
          "type": "tuple",
          "internalType": "struct BuyCreditLimitParams",
          "components": [
            {
              "name": "maturities",
              "type": "uint256[]",
              "internalType": "uint256[]"
            },
            {
              "name": "aprs",
              "type": "uint256[]",
              "internalType": "uint256[]"
            }
          ]
        }
      ],
      "outputs": [],
      "stateMutability": "payable"
    },
    {
      "type": "function",
      "name": "buyCreditLimitOnBehalfOf",
      "inputs": [
        {
          "name": "externalParams",
          "type": "tuple",
          "internalType": "struct BuyCreditLimitOnBehalfOfParams",
          "components": [
            {
              "name": "params",
              "type": "tuple",
              "internalType": "struct BuyCreditLimitParams",
              "components": [
                {
                  "name": "maturities",
                  "type": "uint256[]",
                  "internalType": "uint256[]"
                },
                {
                  "name": "aprs",
                  "type": "uint256[]",
                  "internalType": "uint256[]"
                }
              ]
            },
            {
              "name": "onBehalfOf",
              "type": "address",
              "internalType": "address"
            }
          ]
        }
      ],
      "outputs": [],
      "stateMutability": "payable"
    },
    {
      "type": "function",
      "name": "buyCreditMarket",
      "inputs": [
        {
          "name": "params",
          "type": "tuple",
          "internalType": "struct BuyCreditMarketParams",
          "components": [
            {
              "name": "borrower",
              "type": "address",
              "internalType": "address"
            },
            {
              "name": "creditPositionId",
              "type": "uint256",
              "internalType": "uint256"
            },
            {
              "name": "amount",
              "type": "uint256",
              "internalType": "uint256"
            },
            {
              "name": "maturity",
              "type": "uint256",
              "internalType": "uint256"
            },
            {
              "name": "deadline",
              "type": "uint256",
              "internalType": "uint256"
            },
            {
              "name": "minAPR",
              "type": "uint256",
              "internalType": "uint256"
            },
            {
              "name": "exactAmountIn",
              "type": "bool",
              "internalType": "bool"
            },
            {
              "name": "collectionId",
              "type": "uint256",
              "internalType": "uint256"
            },
            {
              "name": "rateProvider",
              "type": "address",
              "internalType": "address"
            }
          ]
        }
      ],
      "outputs": [],
      "stateMutability": "payable"
    },
    {
      "type": "function",
      "name": "buyCreditMarketOnBehalfOf",
      "inputs": [
        {
          "name": "externalParams",
          "type": "tuple",
          "internalType": "struct BuyCreditMarketOnBehalfOfParams",
          "components": [
            {
              "name": "params",
              "type": "tuple",
              "internalType": "struct BuyCreditMarketParams",
              "components": [
                {
                  "name": "borrower",
                  "type": "address",
                  "internalType": "address"
                },
                {
                  "name": "creditPositionId",
                  "type": "uint256",
                  "internalType": "uint256"
                },
                {
                  "name": "amount",
                  "type": "uint256",
                  "internalType": "uint256"
                },
                {
                  "name": "maturity",
                  "type": "uint256",
                  "internalType": "uint256"
                },
                {
                  "name": "deadline",
                  "type": "uint256",
                  "internalType": "uint256"
                },
                {
                  "name": "minAPR",
                  "type": "uint256",
                  "internalType": "uint256"
                },
                {
                  "name": "exactAmountIn",
                  "type": "bool",
                  "internalType": "bool"
                },
                {
                  "name": "collectionId",
                  "type": "uint256",
                  "internalType": "uint256"
                },
                {
                  "name": "rateProvider",
                  "type": "address",
                  "internalType": "address"
                }
              ]
            },
            {
              "name": "onBehalfOf",
              "type": "address",
              "internalType": "address"
            },
            {
              "name": "recipient",
              "type": "address",
              "internalType": "address"
            }
          ]
        }
      ],
      "outputs": [],
      "stateMutability": "payable"
    },
    {
      "type": "function",
      "name": "claim",
      "inputs": [
        {
          "name": "params",
          "type": "tuple",
          "internalType": "struct ClaimParams",
          "components": [
            {
              "name": "creditPositionId",
              "type": "uint256",
              "internalType": "uint256"
            }
          ]
        }
      ],
      "outputs": [],
      "stateMutability": "payable"
    },
    {
      "type": "function",
      "name": "collateralRatio",
      "inputs": [
        {
          "name": "user",
          "type": "address",
          "internalType": "address"
        }
      ],
      "outputs": [
        {
          "name": "",
          "type": "uint256",
          "internalType": "uint256"
        }
      ],
      "stateMutability": "view"
    },
    {
      "type": "function",
      "name": "compensate",
      "inputs": [
        {
          "name": "params",
          "type": "tuple",
          "internalType": "struct CompensateParams",
          "components": [
            {
              "name": "creditPositionWithDebtToRepayId",
              "type": "uint256",
              "internalType": "uint256"
            },
            {
              "name": "creditPositionToCompensateId",
              "type": "uint256",
              "internalType": "uint256"
            },
            {
              "name": "amount",
              "type": "uint256",
              "internalType": "uint256"
            }
          ]
        }
      ],
      "outputs": [],
      "stateMutability": "payable"
    },
    {
      "type": "function",
      "name": "compensateOnBehalfOf",
      "inputs": [
        {
          "name": "externalParams",
          "type": "tuple",
          "internalType": "struct CompensateOnBehalfOfParams",
          "components": [
            {
              "name": "params",
              "type": "tuple",
              "internalType": "struct CompensateParams",
              "components": [
                {
                  "name": "creditPositionWithDebtToRepayId",
                  "type": "uint256",
                  "internalType": "uint256"
                },
                {
                  "name": "creditPositionToCompensateId",
                  "type": "uint256",
                  "internalType": "uint256"
                },
                {
                  "name": "amount",
                  "type": "uint256",
                  "internalType": "uint256"
                }
              ]
            },
            {
              "name": "onBehalfOf",
              "type": "address",
              "internalType": "address"
            }
          ]
        }
      ],
      "outputs": [],
      "stateMutability": "payable"
    },
    {
      "type": "function",
      "name": "data",
      "inputs": [],
      "outputs": [
        {
          "name": "",
          "type": "tuple",
          "internalType": "struct DataView",
          "components": [
            {
              "name": "nextDebtPositionId",
              "type": "uint256",
              "internalType": "uint256"
            },
            {
              "name": "nextCreditPositionId",
              "type": "uint256",
              "internalType": "uint256"
            },
            {
              "name": "underlyingCollateralToken",
              "type": "address",
              "internalType": "contract IERC20Metadata"
            },
            {
              "name": "underlyingBorrowToken",
              "type": "address",
              "internalType": "contract IERC20Metadata"
            },
            {
              "name": "collateralToken",
              "type": "address",
              "internalType": "contract NonTransferrableToken"
            },
            {
              "name": "borrowTokenVault",
              "type": "address",
              "internalType": "contract NonTransferrableRebasingTokenVault"
            },
            {
              "name": "debtToken",
              "type": "address",
              "internalType": "contract NonTransferrableToken"
            },
            {
              "name": "variablePool",
              "type": "address",
              "internalType": "contract IPool"
            }
          ]
        }
      ],
      "stateMutability": "view"
    },
    {
      "type": "function",
      "name": "debtTokenAmountToCollateralTokenAmount",
      "inputs": [
        {
          "name": "amount",
          "type": "uint256",
          "internalType": "uint256"
        }
      ],
      "outputs": [
        {
          "name": "",
          "type": "uint256",
          "internalType": "uint256"
        }
      ],
      "stateMutability": "view"
    },
    {
      "type": "function",
      "name": "deposit",
      "inputs": [
        {
          "name": "params",
          "type": "tuple",
          "internalType": "struct DepositParams",
          "components": [
            {
              "name": "token",
              "type": "address",
              "internalType": "address"
            },
            {
              "name": "amount",
              "type": "uint256",
              "internalType": "uint256"
            },
            {
              "name": "to",
              "type": "address",
              "internalType": "address"
            }
          ]
        }
      ],
      "outputs": [],
      "stateMutability": "payable"
    },
    {
      "type": "function",
      "name": "depositOnBehalfOf",
      "inputs": [
        {
          "name": "params",
          "type": "tuple",
          "internalType": "struct DepositOnBehalfOfParams",
          "components": [
            {
              "name": "params",
              "type": "tuple",
              "internalType": "struct DepositParams",
              "components": [
                {
                  "name": "token",
                  "type": "address",
                  "internalType": "address"
                },
                {
                  "name": "amount",
                  "type": "uint256",
                  "internalType": "uint256"
                },
                {
                  "name": "to",
                  "type": "address",
                  "internalType": "address"
                }
              ]
            },
            {
              "name": "onBehalfOf",
              "type": "address",
              "internalType": "address"
            }
          ]
        }
      ],
      "outputs": [],
      "stateMutability": "payable"
    },
    {
      "type": "function",
      "name": "extSload",
      "inputs": [
        {
          "name": "key",
          "type": "bytes32",
          "internalType": "bytes32"
        }
      ],
      "outputs": [
        {
          "name": "result",
          "type": "bytes32",
          "internalType": "bytes32"
        }
      ],
      "stateMutability": "view"
    },
    {
      "type": "function",
      "name": "feeConfig",
      "inputs": [],
      "outputs": [
        {
          "name": "",
          "type": "tuple",
          "internalType": "struct InitializeFeeConfigParams",
          "components": [
            {
              "name": "swapFeeAPR",
              "type": "uint256",
              "internalType": "uint256"
            },
            {
              "name": "fragmentationFee",
              "type": "uint256",
              "internalType": "uint256"
            },
            {
              "name": "liquidationRewardPercent",
              "type": "uint256",
              "internalType": "uint256"
            },
            {
              "name": "overdueCollateralProtocolPercent",
              "type": "uint256",
              "internalType": "uint256"
            },
            {
              "name": "collateralProtocolPercent",
              "type": "uint256",
              "internalType": "uint256"
            },
            {
              "name": "feeRecipient",
              "type": "address",
              "internalType": "address"
            }
          ]
        }
      ],
      "stateMutability": "view"
    },
    {
      "type": "function",
      "name": "getBorrowOfferAPR",
      "inputs": [
        {
          "name": "user",
          "type": "address",
          "internalType": "address"
        },
        {
          "name": "collectionId",
          "type": "uint256",
          "internalType": "uint256"
        },
        {
          "name": "rateProvider",
          "type": "address",
          "internalType": "address"
        },
        {
          "name": "maturity",
          "type": "uint256",
          "internalType": "uint256"
        }
      ],
      "outputs": [
        {
          "name": "",
          "type": "uint256",
          "internalType": "uint256"
        }
      ],
      "stateMutability": "view"
    },
    {
      "type": "function",
      "name": "getBuyCreditMarketSwapData",
      "inputs": [
        {
          "name": "params",
          "type": "tuple",
          "internalType": "struct BuyCreditMarketParams",
          "components": [
            {
              "name": "borrower",
              "type": "address",
              "internalType": "address"
            },
            {
              "name": "creditPositionId",
              "type": "uint256",
              "internalType": "uint256"
            },
            {
              "name": "amount",
              "type": "uint256",
              "internalType": "uint256"
            },
            {
              "name": "maturity",
              "type": "uint256",
              "internalType": "uint256"
            },
            {
              "name": "deadline",
              "type": "uint256",
              "internalType": "uint256"
            },
            {
              "name": "minAPR",
              "type": "uint256",
              "internalType": "uint256"
            },
            {
              "name": "exactAmountIn",
              "type": "bool",
              "internalType": "bool"
            },
            {
              "name": "collectionId",
              "type": "uint256",
              "internalType": "uint256"
            },
            {
              "name": "rateProvider",
              "type": "address",
              "internalType": "address"
            }
          ]
        }
      ],
      "outputs": [
        {
          "name": "",
          "type": "tuple",
          "internalType": "struct BuyCreditMarket.SwapDataBuyCreditMarket",
          "components": [
            {
              "name": "creditPosition",
              "type": "tuple",
              "internalType": "struct CreditPosition",
              "components": [
                {
                  "name": "lender",
                  "type": "address",
                  "internalType": "address"
                },
                {
                  "name": "forSale",
                  "type": "bool",
                  "internalType": "bool"
                },
                {
                  "name": "credit",
                  "type": "uint256",
                  "internalType": "uint256"
                },
                {
                  "name": "debtPositionId",
                  "type": "uint256",
                  "internalType": "uint256"
                }
              ]
            },
            {
              "name": "borrower",
              "type": "address",
              "internalType": "address"
            },
            {
              "name": "creditAmountOut",
              "type": "uint256",
              "internalType": "uint256"
            },
            {
              "name": "cashAmountIn",
              "type": "uint256",
              "internalType": "uint256"
            },
            {
              "name": "swapFee",
              "type": "uint256",
              "internalType": "uint256"
            },
            {
              "name": "fragmentationFee",
              "type": "uint256",
              "internalType": "uint256"
            },
            {
              "name": "maturity",
              "type": "uint256",
              "internalType": "uint256"
            }
          ]
        }
      ],
      "stateMutability": "view"
    },
    {
      "type": "function",
      "name": "getCreditPosition",
      "inputs": [
        {
          "name": "creditPositionId",
          "type": "uint256",
          "internalType": "uint256"
        }
      ],
      "outputs": [
        {
          "name": "",
          "type": "tuple",
          "internalType": "struct CreditPosition",
          "components": [
            {
              "name": "lender",
              "type": "address",
              "internalType": "address"
            },
            {
              "name": "forSale",
              "type": "bool",
              "internalType": "bool"
            },
            {
              "name": "credit",
              "type": "uint256",
              "internalType": "uint256"
            },
            {
              "name": "debtPositionId",
              "type": "uint256",
              "internalType": "uint256"
            }
          ]
        }
      ],
      "stateMutability": "view"
    },
    {
      "type": "function",
      "name": "getDebtPosition",
      "inputs": [
        {
          "name": "debtPositionId",
          "type": "uint256",
          "internalType": "uint256"
        }
      ],
      "outputs": [
        {
          "name": "",
          "type": "tuple",
          "internalType": "struct DebtPosition",
          "components": [
            {
              "name": "borrower",
              "type": "address",
              "internalType": "address"
            },
            {
              "name": "futureValue",
              "type": "uint256",
              "internalType": "uint256"
            },
            {
              "name": "dueDate",
              "type": "uint256",
              "internalType": "uint256"
            },
            {
              "name": "liquidityIndexAtRepayment",
              "type": "uint256",
              "internalType": "uint256"
            }
          ]
        }
      ],
      "stateMutability": "view"
    },
    {
      "type": "function",
      "name": "getLoanOfferAPR",
      "inputs": [
        {
          "name": "user",
          "type": "address",
          "internalType": "address"
        },
        {
          "name": "collectionId",
          "type": "uint256",
          "internalType": "uint256"
        },
        {
          "name": "rateProvider",
          "type": "address",
          "internalType": "address"
        },
        {
          "name": "maturity",
          "type": "uint256",
          "internalType": "uint256"
        }
      ],
      "outputs": [
        {
          "name": "",
          "type": "uint256",
          "internalType": "uint256"
        }
      ],
      "stateMutability": "view"
    },
    {
      "type": "function",
      "name": "getRoleAdmin",
      "inputs": [
        {
          "name": "role",
          "type": "bytes32",
          "internalType": "bytes32"
        }
      ],
      "outputs": [
        {
          "name": "",
          "type": "bytes32",
          "internalType": "bytes32"
        }
      ],
      "stateMutability": "view"
    },
    {
      "type": "function",
      "name": "getSellCreditMarketSwapData",
      "inputs": [
        {
          "name": "params",
          "type": "tuple",
          "internalType": "struct SellCreditMarketParams",
          "components": [
            {
              "name": "lender",
              "type": "address",
              "internalType": "address"
            },
            {
              "name": "creditPositionId",
              "type": "uint256",
              "internalType": "uint256"
            },
            {
              "name": "amount",
              "type": "uint256",
              "internalType": "uint256"
            },
            {
              "name": "maturity",
              "type": "uint256",
              "internalType": "uint256"
            },
            {
              "name": "deadline",
              "type": "uint256",
              "internalType": "uint256"
            },
            {
              "name": "maxAPR",
              "type": "uint256",
              "internalType": "uint256"
            },
            {
              "name": "exactAmountIn",
              "type": "bool",
              "internalType": "bool"
            },
            {
              "name": "collectionId",
              "type": "uint256",
              "internalType": "uint256"
            },
            {
              "name": "rateProvider",
              "type": "address",
              "internalType": "address"
            }
          ]
        }
      ],
      "outputs": [
        {
          "name": "",
          "type": "tuple",
          "internalType": "struct SellCreditMarket.SwapDataSellCreditMarket",
          "components": [
            {
              "name": "creditPosition",
              "type": "tuple",
              "internalType": "struct CreditPosition",
              "components": [
                {
                  "name": "lender",
                  "type": "address",
                  "internalType": "address"
                },
                {
                  "name": "forSale",
                  "type": "bool",
                  "internalType": "bool"
                },
                {
                  "name": "credit",
                  "type": "uint256",
                  "internalType": "uint256"
                },
                {
                  "name": "debtPositionId",
                  "type": "uint256",
                  "internalType": "uint256"
                }
              ]
            },
            {
              "name": "creditAmountIn",
              "type": "uint256",
              "internalType": "uint256"
            },
            {
              "name": "cashAmountOut",
              "type": "uint256",
              "internalType": "uint256"
            },
            {
              "name": "swapFee",
              "type": "uint256",
              "internalType": "uint256"
            },
            {
              "name": "fragmentationFee",
              "type": "uint256",
              "internalType": "uint256"
            },
            {
              "name": "maturity",
              "type": "uint256",
              "internalType": "uint256"
            }
          ]
        }
      ],
      "stateMutability": "view"
    },
    {
      "type": "function",
      "name": "getUserDefinedBorrowOfferAPR",
      "inputs": [
        {
          "name": "borrower",
          "type": "address",
          "internalType": "address"
        },
        {
          "name": "maturity",
          "type": "uint256",
          "internalType": "uint256"
        }
      ],
      "outputs": [
        {
          "name": "",
          "type": "uint256",
          "internalType": "uint256"
        }
      ],
      "stateMutability": "view"
    },
    {
      "type": "function",
      "name": "getUserDefinedCopyLimitOrderConfigs",
      "inputs": [
        {
          "name": "user",
          "type": "address",
          "internalType": "address"
        }
      ],
      "outputs": [
        {
          "name": "",
          "type": "tuple",
          "internalType": "struct CopyLimitOrderConfig",
          "components": [
            {
              "name": "minTenor",
              "type": "uint256",
              "internalType": "uint256"
            },
            {
              "name": "maxTenor",
              "type": "uint256",
              "internalType": "uint256"
            },
            {
              "name": "minAPR",
              "type": "uint256",
              "internalType": "uint256"
            },
            {
              "name": "maxAPR",
              "type": "uint256",
              "internalType": "uint256"
            },
            {
              "name": "offsetAPR",
              "type": "int256",
              "internalType": "int256"
            }
          ]
        },
        {
          "name": "",
          "type": "tuple",
          "internalType": "struct CopyLimitOrderConfig",
          "components": [
            {
              "name": "minTenor",
              "type": "uint256",
              "internalType": "uint256"
            },
            {
              "name": "maxTenor",
              "type": "uint256",
              "internalType": "uint256"
            },
            {
              "name": "minAPR",
              "type": "uint256",
              "internalType": "uint256"
            },
            {
              "name": "maxAPR",
              "type": "uint256",
              "internalType": "uint256"
            },
            {
              "name": "offsetAPR",
              "type": "int256",
              "internalType": "int256"
            }
          ]
        }
      ],
      "stateMutability": "view"
    },
    {
      "type": "function",
      "name": "getUserDefinedLoanOfferAPR",
      "inputs": [
        {
          "name": "lender",
          "type": "address",
          "internalType": "address"
        },
        {
          "name": "maturity",
          "type": "uint256",
          "internalType": "uint256"
        }
      ],
      "outputs": [
        {
          "name": "",
          "type": "uint256",
          "internalType": "uint256"
        }
      ],
      "stateMutability": "view"
    },
    {
      "type": "function",
      "name": "getUserView",
      "inputs": [
        {
          "name": "user",
          "type": "address",
          "internalType": "address"
        }
      ],
      "outputs": [
        {
          "name": "",
          "type": "tuple",
          "internalType": "struct UserView",
          "components": [
            {
              "name": "user",
              "type": "tuple",
              "internalType": "struct User",
              "components": [
                {
                  "name": "loanOffer",
                  "type": "tuple",
                  "internalType": "struct FixedMaturityLimitOrder",
                  "components": [
                    {
                      "name": "maturities",
                      "type": "uint256[]",
                      "internalType": "uint256[]"
                    },
                    {
                      "name": "aprs",
                      "type": "uint256[]",
                      "internalType": "uint256[]"
                    }
                  ]
                },
                {
                  "name": "borrowOffer",
                  "type": "tuple",
                  "internalType": "struct FixedMaturityLimitOrder",
                  "components": [
                    {
                      "name": "maturities",
                      "type": "uint256[]",
                      "internalType": "uint256[]"
                    },
                    {
                      "name": "aprs",
                      "type": "uint256[]",
                      "internalType": "uint256[]"
                    }
                  ]
                },
                {
                  "name": "openingLimitBorrowCR",
                  "type": "uint256",
                  "internalType": "uint256"
                },
                {
                  "name": "allCreditPositionsForSaleDisabled",
                  "type": "bool",
                  "internalType": "bool"
                }
              ]
            },
            {
              "name": "account",
              "type": "address",
              "internalType": "address"
            },
            {
              "name": "collateralTokenBalance",
              "type": "uint256",
              "internalType": "uint256"
            },
            {
              "name": "borrowTokenBalance",
              "type": "uint256",
              "internalType": "uint256"
            },
            {
              "name": "debtBalance",
              "type": "uint256",
              "internalType": "uint256"
            }
          ]
        }
      ],
      "stateMutability": "view"
    },
    {
      "type": "function",
      "name": "grantRole",
      "inputs": [
        {
          "name": "role",
          "type": "bytes32",
          "internalType": "bytes32"
        },
        {
          "name": "account",
          "type": "address",
          "internalType": "address"
        }
      ],
      "outputs": [],
      "stateMutability": "nonpayable"
    },
    {
      "type": "function",
      "name": "hasRole",
      "inputs": [
        {
          "name": "role",
          "type": "bytes32",
          "internalType": "bytes32"
        },
        {
          "name": "account",
          "type": "address",
          "internalType": "address"
        }
      ],
      "outputs": [
        {
          "name": "",
          "type": "bool",
          "internalType": "bool"
        }
      ],
      "stateMutability": "view"
    },
    {
      "type": "function",
      "name": "initialize",
      "inputs": [
        {
          "name": "owner",
          "type": "address",
          "internalType": "address"
        },
        {
          "name": "f",
          "type": "tuple",
          "internalType": "struct InitializeFeeConfigParams",
          "components": [
            {
              "name": "swapFeeAPR",
              "type": "uint256",
              "internalType": "uint256"
            },
            {
              "name": "fragmentationFee",
              "type": "uint256",
              "internalType": "uint256"
            },
            {
              "name": "liquidationRewardPercent",
              "type": "uint256",
              "internalType": "uint256"
            },
            {
              "name": "overdueCollateralProtocolPercent",
              "type": "uint256",
              "internalType": "uint256"
            },
            {
              "name": "collateralProtocolPercent",
              "type": "uint256",
              "internalType": "uint256"
            },
            {
              "name": "feeRecipient",
              "type": "address",
              "internalType": "address"
            }
          ]
        },
        {
          "name": "r",
          "type": "tuple",
          "internalType": "struct InitializeRiskConfigParams",
          "components": [
            {
              "name": "crOpening",
              "type": "uint256",
              "internalType": "uint256"
            },
            {
              "name": "crLiquidation",
              "type": "uint256",
              "internalType": "uint256"
            },
            {
              "name": "minimumCreditBorrowToken",
              "type": "uint256",
              "internalType": "uint256"
            },
            {
              "name": "minTenor",
              "type": "uint256",
              "internalType": "uint256"
            },
            {
              "name": "maxTenor",
              "type": "uint256",
              "internalType": "uint256"
            },
            {
              "name": "maturities",
              "type": "uint256[]",
              "internalType": "uint256[]"
            }
          ]
        },
        {
          "name": "o",
          "type": "tuple",
          "internalType": "struct InitializeOracleParams",
          "components": [
            {
              "name": "priceFeed",
              "type": "address",
              "internalType": "address"
            }
          ]
        },
        {
          "name": "d",
          "type": "tuple",
          "internalType": "struct InitializeDataParams",
          "components": [
            {
              "name": "weth",
              "type": "address",
              "internalType": "address"
            },
            {
              "name": "underlyingCollateralToken",
              "type": "address",
              "internalType": "address"
            },
            {
              "name": "underlyingBorrowToken",
              "type": "address",
              "internalType": "address"
            },
            {
              "name": "variablePool",
              "type": "address",
              "internalType": "address"
            },
            {
              "name": "borrowTokenVault",
              "type": "address",
              "internalType": "address"
            },
            {
              "name": "sizeFactory",
              "type": "address",
              "internalType": "address"
            }
          ]
        }
      ],
      "outputs": [],
      "stateMutability": "nonpayable"
    },
    {
      "type": "function",
      "name": "isUserDefinedLimitOrdersNull",
      "inputs": [
        {
          "name": "user",
          "type": "address",
          "internalType": "address"
        }
      ],
      "outputs": [
        {
          "name": "isLoanOfferNull",
          "type": "bool",
          "internalType": "bool"
        },
        {
          "name": "isBorrowOfferNull",
          "type": "bool",
          "internalType": "bool"
        }
      ],
      "stateMutability": "view"
    },
    {
      "type": "function",
      "name": "liquidate",
      "inputs": [
        {
          "name": "params",
          "type": "tuple",
          "internalType": "struct LiquidateParams",
          "components": [
            {
              "name": "debtPositionId",
              "type": "uint256",
              "internalType": "uint256"
            },
            {
              "name": "minimumCollateralProfit",
              "type": "uint256",
              "internalType": "uint256"
            },
            {
              "name": "deadline",
              "type": "uint256",
              "internalType": "uint256"
            }
          ]
        }
      ],
      "outputs": [
        {
          "name": "liquidatorProfitCollateralToken",
          "type": "uint256",
          "internalType": "uint256"
        }
      ],
      "stateMutability": "payable"
    },
    {
      "type": "function",
      "name": "marketShutdown",
      "inputs": [
        {
          "name": "params",
          "type": "tuple",
          "internalType": "struct MarketShutdownParams",
          "components": [
            {
              "name": "debtPositionIdsToForceLiquidate",
              "type": "uint256[]",
              "internalType": "uint256[]"
            },
            {
              "name": "creditPositionIdsToClaim",
              "type": "uint256[]",
              "internalType": "uint256[]"
            },
            {
              "name": "usersToForceWithdraw",
              "type": "address[]",
              "internalType": "address[]"
            },
            {
              "name": "shouldCheckSupply",
              "type": "bool",
              "internalType": "bool"
            }
          ]
        }
      ],
      "outputs": [],
      "stateMutability": "nonpayable"
    },
    {
      "type": "function",
      "name": "multicall",
      "inputs": [
        {
          "name": "_data",
          "type": "bytes[]",
          "internalType": "bytes[]"
        }
      ],
      "outputs": [
        {
          "name": "results",
          "type": "bytes[]",
          "internalType": "bytes[]"
        }
      ],
      "stateMutability": "payable"
    },
    {
      "type": "function",
      "name": "oracle",
      "inputs": [],
      "outputs": [
        {
          "name": "",
          "type": "tuple",
          "internalType": "struct InitializeOracleParams",
          "components": [
            {
              "name": "priceFeed",
              "type": "address",
              "internalType": "address"
            }
          ]
        }
      ],
      "stateMutability": "view"
    },
    {
      "type": "function",
      "name": "partialRepay",
      "inputs": [
        {
          "name": "params",
          "type": "tuple",
          "internalType": "struct PartialRepayParams",
          "components": [
            {
              "name": "creditPositionWithDebtToRepayId",
              "type": "uint256",
              "internalType": "uint256"
            },
            {
              "name": "amount",
              "type": "uint256",
              "internalType": "uint256"
            },
            {
              "name": "borrower",
              "type": "address",
              "internalType": "address"
            }
          ]
        }
      ],
      "outputs": [],
      "stateMutability": "payable"
    },
    {
      "type": "function",
      "name": "pause",
      "inputs": [],
      "outputs": [],
      "stateMutability": "nonpayable"
    },
    {
      "type": "function",
      "name": "paused",
      "inputs": [],
      "outputs": [
        {
          "name": "",
          "type": "bool",
          "internalType": "bool"
        }
      ],
      "stateMutability": "view"
    },
    {
      "type": "function",
      "name": "proxiableUUID",
      "inputs": [],
      "outputs": [
        {
          "name": "",
          "type": "bytes32",
          "internalType": "bytes32"
        }
      ],
      "stateMutability": "view"
    },
    {
      "type": "function",
      "name": "renounceRole",
      "inputs": [
        {
          "name": "role",
          "type": "bytes32",
          "internalType": "bytes32"
        },
        {
          "name": "callerConfirmation",
          "type": "address",
          "internalType": "address"
        }
      ],
      "outputs": [],
      "stateMutability": "nonpayable"
    },
    {
      "type": "function",
      "name": "repay",
      "inputs": [
        {
          "name": "params",
          "type": "tuple",
          "internalType": "struct RepayParams",
          "components": [
            {
              "name": "debtPositionId",
              "type": "uint256",
              "internalType": "uint256"
            },
            {
              "name": "borrower",
              "type": "address",
              "internalType": "address"
            }
          ]
        }
      ],
      "outputs": [],
      "stateMutability": "payable"
    },
    {
      "type": "function",
      "name": "revokeRole",
      "inputs": [
        {
          "name": "role",
          "type": "bytes32",
          "internalType": "bytes32"
        },
        {
          "name": "account",
          "type": "address",
          "internalType": "address"
        }
      ],
      "outputs": [],
      "stateMutability": "nonpayable"
    },
    {
      "type": "function",
      "name": "riskConfig",
      "inputs": [],
      "outputs": [
        {
          "name": "",
          "type": "tuple",
          "internalType": "struct InitializeRiskConfigParams",
          "components": [
            {
              "name": "crOpening",
              "type": "uint256",
              "internalType": "uint256"
            },
            {
              "name": "crLiquidation",
              "type": "uint256",
              "internalType": "uint256"
            },
            {
              "name": "minimumCreditBorrowToken",
              "type": "uint256",
              "internalType": "uint256"
            },
            {
              "name": "minTenor",
              "type": "uint256",
              "internalType": "uint256"
            },
            {
              "name": "maxTenor",
              "type": "uint256",
              "internalType": "uint256"
            },
            {
              "name": "maturities",
              "type": "uint256[]",
              "internalType": "uint256[]"
            }
          ]
        }
      ],
      "stateMutability": "view"
    },
    {
      "type": "function",
      "name": "selfLiquidate",
      "inputs": [
        {
          "name": "params",
          "type": "tuple",
          "internalType": "struct SelfLiquidateParams",
          "components": [
            {
              "name": "creditPositionId",
              "type": "uint256",
              "internalType": "uint256"
            }
          ]
        }
      ],
      "outputs": [],
      "stateMutability": "payable"
    },
    {
      "type": "function",
      "name": "selfLiquidateOnBehalfOf",
      "inputs": [
        {
          "name": "externalParams",
          "type": "tuple",
          "internalType": "struct SelfLiquidateOnBehalfOfParams",
          "components": [
            {
              "name": "params",
              "type": "tuple",
              "internalType": "struct SelfLiquidateParams",
              "components": [
                {
                  "name": "creditPositionId",
                  "type": "uint256",
                  "internalType": "uint256"
                }
              ]
            },
            {
              "name": "onBehalfOf",
              "type": "address",
              "internalType": "address"
            },
            {
              "name": "recipient",
              "type": "address",
              "internalType": "address"
            }
          ]
        }
      ],
      "outputs": [],
      "stateMutability": "payable"
    },
    {
      "type": "function",
      "name": "sellCreditLimit",
      "inputs": [
        {
          "name": "params",
          "type": "tuple",
          "internalType": "struct SellCreditLimitParams",
          "components": [
            {
              "name": "maturities",
              "type": "uint256[]",
              "internalType": "uint256[]"
            },
            {
              "name": "aprs",
              "type": "uint256[]",
              "internalType": "uint256[]"
            }
          ]
        }
      ],
      "outputs": [],
      "stateMutability": "payable"
    },
    {
      "type": "function",
      "name": "sellCreditLimitOnBehalfOf",
      "inputs": [
        {
          "name": "externalParams",
          "type": "tuple",
          "internalType": "struct SellCreditLimitOnBehalfOfParams",
          "components": [
            {
              "name": "params",
              "type": "tuple",
              "internalType": "struct SellCreditLimitParams",
              "components": [
                {
                  "name": "maturities",
                  "type": "uint256[]",
                  "internalType": "uint256[]"
                },
                {
                  "name": "aprs",
                  "type": "uint256[]",
                  "internalType": "uint256[]"
                }
              ]
            },
            {
              "name": "onBehalfOf",
              "type": "address",
              "internalType": "address"
            }
          ]
        }
      ],
      "outputs": [],
      "stateMutability": "payable"
    },
    {
      "type": "function",
      "name": "sellCreditMarket",
      "inputs": [
        {
          "name": "params",
          "type": "tuple",
          "internalType": "struct SellCreditMarketParams",
          "components": [
            {
              "name": "lender",
              "type": "address",
              "internalType": "address"
            },
            {
              "name": "creditPositionId",
              "type": "uint256",
              "internalType": "uint256"
            },
            {
              "name": "amount",
              "type": "uint256",
              "internalType": "uint256"
            },
            {
              "name": "maturity",
              "type": "uint256",
              "internalType": "uint256"
            },
            {
              "name": "deadline",
              "type": "uint256",
              "internalType": "uint256"
            },
            {
              "name": "maxAPR",
              "type": "uint256",
              "internalType": "uint256"
            },
            {
              "name": "exactAmountIn",
              "type": "bool",
              "internalType": "bool"
            },
            {
              "name": "collectionId",
              "type": "uint256",
              "internalType": "uint256"
            },
            {
              "name": "rateProvider",
              "type": "address",
              "internalType": "address"
            }
          ]
        }
      ],
      "outputs": [],
      "stateMutability": "payable"
    },
    {
      "type": "function",
      "name": "sellCreditMarketOnBehalfOf",
      "inputs": [
        {
          "name": "externalParams",
          "type": "tuple",
          "internalType": "struct SellCreditMarketOnBehalfOfParams",
          "components": [
            {
              "name": "params",
              "type": "tuple",
              "internalType": "struct SellCreditMarketParams",
              "components": [
                {
                  "name": "lender",
                  "type": "address",
                  "internalType": "address"
                },
                {
                  "name": "creditPositionId",
                  "type": "uint256",
                  "internalType": "uint256"
                },
                {
                  "name": "amount",
                  "type": "uint256",
                  "internalType": "uint256"
                },
                {
                  "name": "maturity",
                  "type": "uint256",
                  "internalType": "uint256"
                },
                {
                  "name": "deadline",
                  "type": "uint256",
                  "internalType": "uint256"
                },
                {
                  "name": "maxAPR",
                  "type": "uint256",
                  "internalType": "uint256"
                },
                {
                  "name": "exactAmountIn",
                  "type": "bool",
                  "internalType": "bool"
                },
                {
                  "name": "collectionId",
                  "type": "uint256",
                  "internalType": "uint256"
                },
                {
                  "name": "rateProvider",
                  "type": "address",
                  "internalType": "address"
                }
              ]
            },
            {
              "name": "onBehalfOf",
              "type": "address",
              "internalType": "address"
            },
            {
              "name": "recipient",
              "type": "address",
              "internalType": "address"
            }
          ]
        }
      ],
      "outputs": [],
      "stateMutability": "payable"
    },
    {
      "type": "function",
      "name": "setCopyLimitOrderConfigs",
      "inputs": [
        {
          "name": "params",
          "type": "tuple",
          "internalType": "struct SetCopyLimitOrderConfigsParams",
          "components": [
            {
              "name": "copyLoanOfferConfig",
              "type": "tuple",
              "internalType": "struct CopyLimitOrderConfig",
              "components": [
                {
                  "name": "minTenor",
                  "type": "uint256",
                  "internalType": "uint256"
                },
                {
                  "name": "maxTenor",
                  "type": "uint256",
                  "internalType": "uint256"
                },
                {
                  "name": "minAPR",
                  "type": "uint256",
                  "internalType": "uint256"
                },
                {
                  "name": "maxAPR",
                  "type": "uint256",
                  "internalType": "uint256"
                },
                {
                  "name": "offsetAPR",
                  "type": "int256",
                  "internalType": "int256"
                }
              ]
            },
            {
              "name": "copyBorrowOfferConfig",
              "type": "tuple",
              "internalType": "struct CopyLimitOrderConfig",
              "components": [
                {
                  "name": "minTenor",
                  "type": "uint256",
                  "internalType": "uint256"
                },
                {
                  "name": "maxTenor",
                  "type": "uint256",
                  "internalType": "uint256"
                },
                {
                  "name": "minAPR",
                  "type": "uint256",
                  "internalType": "uint256"
                },
                {
                  "name": "maxAPR",
                  "type": "uint256",
                  "internalType": "uint256"
                },
                {
                  "name": "offsetAPR",
                  "type": "int256",
                  "internalType": "int256"
                }
              ]
            }
          ]
        }
      ],
      "outputs": [],
      "stateMutability": "payable"
    },
    {
      "type": "function",
      "name": "setCopyLimitOrderConfigsOnBehalfOf",
      "inputs": [
        {
          "name": "externalParams",
          "type": "tuple",
          "internalType": "struct SetCopyLimitOrderConfigsOnBehalfOfParams",
          "components": [
            {
              "name": "params",
              "type": "tuple",
              "internalType": "struct SetCopyLimitOrderConfigsParams",
              "components": [
                {
                  "name": "copyLoanOfferConfig",
                  "type": "tuple",
                  "internalType": "struct CopyLimitOrderConfig",
                  "components": [
                    {
                      "name": "minTenor",
                      "type": "uint256",
                      "internalType": "uint256"
                    },
                    {
                      "name": "maxTenor",
                      "type": "uint256",
                      "internalType": "uint256"
                    },
                    {
                      "name": "minAPR",
                      "type": "uint256",
                      "internalType": "uint256"
                    },
                    {
                      "name": "maxAPR",
                      "type": "uint256",
                      "internalType": "uint256"
                    },
                    {
                      "name": "offsetAPR",
                      "type": "int256",
                      "internalType": "int256"
                    }
                  ]
                },
                {
                  "name": "copyBorrowOfferConfig",
                  "type": "tuple",
                  "internalType": "struct CopyLimitOrderConfig",
                  "components": [
                    {
                      "name": "minTenor",
                      "type": "uint256",
                      "internalType": "uint256"
                    },
                    {
                      "name": "maxTenor",
                      "type": "uint256",
                      "internalType": "uint256"
                    },
                    {
                      "name": "minAPR",
                      "type": "uint256",
                      "internalType": "uint256"
                    },
                    {
                      "name": "maxAPR",
                      "type": "uint256",
                      "internalType": "uint256"
                    },
                    {
                      "name": "offsetAPR",
                      "type": "int256",
                      "internalType": "int256"
                    }
                  ]
                }
              ]
            },
            {
              "name": "onBehalfOf",
              "type": "address",
              "internalType": "address"
            }
          ]
        }
      ],
      "outputs": [],
      "stateMutability": "payable"
    },
    {
      "type": "function",
      "name": "setUserConfiguration",
      "inputs": [
        {
          "name": "params",
          "type": "tuple",
          "internalType": "struct SetUserConfigurationParams",
          "components": [
            {
              "name": "openingLimitBorrowCR",
              "type": "uint256",
              "internalType": "uint256"
            },
            {
              "name": "allCreditPositionsForSaleDisabled",
              "type": "bool",
              "internalType": "bool"
            },
            {
              "name": "creditPositionIdsForSale",
              "type": "bool",
              "internalType": "bool"
            },
            {
              "name": "creditPositionIds",
              "type": "uint256[]",
              "internalType": "uint256[]"
            }
          ]
        }
      ],
      "outputs": [],
      "stateMutability": "payable"
    },
    {
      "type": "function",
      "name": "setUserConfigurationOnBehalfOf",
      "inputs": [
        {
          "name": "externalParams",
          "type": "tuple",
          "internalType": "struct SetUserConfigurationOnBehalfOfParams",
          "components": [
            {
              "name": "params",
              "type": "tuple",
              "internalType": "struct SetUserConfigurationParams",
              "components": [
                {
                  "name": "openingLimitBorrowCR",
                  "type": "uint256",
                  "internalType": "uint256"
                },
                {
                  "name": "allCreditPositionsForSaleDisabled",
                  "type": "bool",
                  "internalType": "bool"
                },
                {
                  "name": "creditPositionIdsForSale",
                  "type": "bool",
                  "internalType": "bool"
                },
                {
                  "name": "creditPositionIds",
                  "type": "uint256[]",
                  "internalType": "uint256[]"
                }
              ]
            },
            {
              "name": "onBehalfOf",
              "type": "address",
              "internalType": "address"
            }
          ]
        }
      ],
      "outputs": [],
      "stateMutability": "payable"
    },
    {
      "type": "function",
      "name": "setVault",
      "inputs": [
        {
          "name": "params",
          "type": "tuple",
          "internalType": "struct SetVaultParams",
          "components": [
            {
              "name": "vault",
              "type": "address",
              "internalType": "address"
            },
            {
              "name": "forfeitOldShares",
              "type": "bool",
              "internalType": "bool"
            }
          ]
        }
      ],
      "outputs": [],
      "stateMutability": "payable"
    },
    {
      "type": "function",
      "name": "setVaultOnBehalfOf",
      "inputs": [
        {
          "name": "externalParams",
          "type": "tuple",
          "internalType": "struct SetVaultOnBehalfOfParams",
          "components": [
            {
              "name": "params",
              "type": "tuple",
              "internalType": "struct SetVaultParams",
              "components": [
                {
                  "name": "vault",
                  "type": "address",
                  "internalType": "address"
                },
                {
                  "name": "forfeitOldShares",
                  "type": "bool",
                  "internalType": "bool"
                }
              ]
            },
            {
              "name": "onBehalfOf",
              "type": "address",
              "internalType": "address"
            }
          ]
        }
      ],
      "outputs": [],
      "stateMutability": "payable"
    },
    {
      "type": "function",
      "name": "supportsInterface",
      "inputs": [
        {
          "name": "interfaceId",
          "type": "bytes4",
          "internalType": "bytes4"
        }
      ],
      "outputs": [
        {
          "name": "",
          "type": "bool",
          "internalType": "bool"
        }
      ],
      "stateMutability": "view"
    },
    {
      "type": "function",
      "name": "unpause",
      "inputs": [],
      "outputs": [],
      "stateMutability": "nonpayable"
    },
    {
      "type": "function",
      "name": "updateConfig",
      "inputs": [
        {
          "name": "params",
          "type": "tuple",
          "internalType": "struct UpdateConfigParams",
          "components": [
            {
              "name": "key",
              "type": "string",
              "internalType": "string"
            },
            {
              "name": "value",
              "type": "uint256",
              "internalType": "uint256"
            }
          ]
        }
      ],
      "outputs": [],
      "stateMutability": "nonpayable"
    },
    {
      "type": "function",
      "name": "upgradeToAndCall",
      "inputs": [
        {
          "name": "newImplementation",
          "type": "address",
          "internalType": "address"
        },
        {
          "name": "data",
          "type": "bytes",
          "internalType": "bytes"
        }
      ],
      "outputs": [],
      "stateMutability": "payable"
    },
    {
      "type": "function",
      "name": "version",
      "inputs": [],
      "outputs": [
        {
          "name": "",
          "type": "string",
          "internalType": "string"
        }
      ],
      "stateMutability": "pure"
    },
    {
      "type": "function",
      "name": "withdraw",
      "inputs": [
        {
          "name": "params",
          "type": "tuple",
          "internalType": "struct WithdrawParams",
          "components": [
            {
              "name": "token",
              "type": "address",
              "internalType": "address"
            },
            {
              "name": "amount",
              "type": "uint256",
              "internalType": "uint256"
            },
            {
              "name": "to",
              "type": "address",
              "internalType": "address"
            }
          ]
        }
      ],
      "outputs": [],
      "stateMutability": "payable"
    },
    {
      "type": "function",
      "name": "withdrawOnBehalfOf",
      "inputs": [
        {
          "name": "externalParams",
          "type": "tuple",
          "internalType": "struct WithdrawOnBehalfOfParams",
          "components": [
            {
              "name": "params",
              "type": "tuple",
              "internalType": "struct WithdrawParams",
              "components": [
                {
                  "name": "token",
                  "type": "address",
                  "internalType": "address"
                },
                {
                  "name": "amount",
                  "type": "uint256",
                  "internalType": "uint256"
                },
                {
                  "name": "to",
                  "type": "address",
                  "internalType": "address"
                }
              ]
            },
            {
              "name": "onBehalfOf",
              "type": "address",
              "internalType": "address"
            }
          ]
        }
      ],
      "outputs": [],
      "stateMutability": "payable"
    },
    {
      "type": "event",
      "name": "Initialized",
      "inputs": [
        {
          "name": "version",
          "type": "uint64",
          "indexed": false,
          "internalType": "uint64"
        }
      ],
      "anonymous": false
    },
    {
      "type": "event",
      "name": "Paused",
      "inputs": [
        {
          "name": "account",
          "type": "address",
          "indexed": false,
          "internalType": "address"
        }
      ],
      "anonymous": false
    },
    {
      "type": "event",
      "name": "RoleAdminChanged",
      "inputs": [
        {
          "name": "role",
          "type": "bytes32",
          "indexed": true,
          "internalType": "bytes32"
        },
        {
          "name": "previousAdminRole",
          "type": "bytes32",
          "indexed": true,
          "internalType": "bytes32"
        },
        {
          "name": "newAdminRole",
          "type": "bytes32",
          "indexed": true,
          "internalType": "bytes32"
        }
      ],
      "anonymous": false
    },
    {
      "type": "event",
      "name": "RoleGranted",
      "inputs": [
        {
          "name": "role",
          "type": "bytes32",
          "indexed": true,
          "internalType": "bytes32"
        },
        {
          "name": "account",
          "type": "address",
          "indexed": true,
          "internalType": "address"
        },
        {
          "name": "sender",
          "type": "address",
          "indexed": true,
          "internalType": "address"
        }
      ],
      "anonymous": false
    },
    {
      "type": "event",
      "name": "RoleRevoked",
      "inputs": [
        {
          "name": "role",
          "type": "bytes32",
          "indexed": true,
          "internalType": "bytes32"
        },
        {
          "name": "account",
          "type": "address",
          "indexed": true,
          "internalType": "address"
        },
        {
          "name": "sender",
          "type": "address",
          "indexed": true,
          "internalType": "address"
        }
      ],
      "anonymous": false
    },
    {
      "type": "event",
      "name": "Unpaused",
      "inputs": [
        {
          "name": "account",
          "type": "address",
          "indexed": false,
          "internalType": "address"
        }
      ],
      "anonymous": false
    },
    {
      "type": "event",
      "name": "Upgraded",
      "inputs": [
        {
          "name": "implementation",
          "type": "address",
          "indexed": true,
          "internalType": "address"
        }
      ],
      "anonymous": false
    },
    {
      "type": "error",
      "name": "AccessControlBadConfirmation",
      "inputs": []
    },
    {
      "type": "error",
      "name": "AccessControlUnauthorizedAccount",
      "inputs": [
        {
          "name": "account",
          "type": "address",
          "internalType": "address"
        },
        {
          "name": "neededRole",
          "type": "bytes32",
          "internalType": "bytes32"
        }
      ]
    },
    {
      "type": "error",
      "name": "AddressEmptyCode",
      "inputs": [
        {
          "name": "target",
          "type": "address",
          "internalType": "address"
        }
      ]
    },
    {
      "type": "error",
      "name": "ERC1967InvalidImplementation",
      "inputs": [
        {
          "name": "implementation",
          "type": "address",
          "internalType": "address"
        }
      ]
    },
    {
      "type": "error",
      "name": "ERC1967NonPayable",
      "inputs": []
    },
    {
      "type": "error",
      "name": "EnforcedPause",
      "inputs": []
    },
    {
      "type": "error",
      "name": "ExpectedPause",
      "inputs": []
    },
    {
      "type": "error",
      "name": "FailedCall",
      "inputs": []
    },
    {
      "type": "error",
      "name": "INVALID_MATURITY",
      "inputs": [
        {
          "name": "maturity",
          "type": "uint256",
          "internalType": "uint256"
        }
      ]
    },
    {
      "type": "error",
      "name": "INVALID_OFFER",
      "inputs": [
        {
          "name": "account",
          "type": "address",
          "internalType": "address"
        }
      ]
    },
    {
      "type": "error",
      "name": "InvalidInitialization",
      "inputs": []
    },
    {
      "type": "error",
      "name": "MUST_IMPROVE_COLLATERAL_RATIO",
      "inputs": [
        {
          "name": "account",
          "type": "address",
          "internalType": "address"
        },
        {
          "name": "crBefore",
          "type": "uint256",
          "internalType": "uint256"
        },
        {
          "name": "crAfter",
          "type": "uint256",
          "internalType": "uint256"
        }
      ]
    },
    {
      "type": "error",
      "name": "NULL_MATURITY",
      "inputs": []
    },
    {
      "type": "error",
      "name": "NotInitializing",
      "inputs": []
    },
    {
      "type": "error",
      "name": "PAST_MATURITY",
      "inputs": [
        {
          "name": "maturity",
          "type": "uint256",
          "internalType": "uint256"
        }
      ]
    },
    {
      "type": "error",
      "name": "ReentrancyGuardReentrantCall",
      "inputs": []
    },
    {
      "type": "error",
      "name": "UUPSUnauthorizedCallContext",
      "inputs": []
    },
    {
      "type": "error",
      "name": "UUPSUnsupportedProxiableUUID",
      "inputs": [
        {
          "name": "slot",
          "type": "bytes32",
          "internalType": "bytes32"
        }
      ]
    }
  ],
  "bytecode": {
    "object": "0x60a06040523060805234801562000014575f80fd5b506200001f62000025565b620000d9565b7ff0c57e16840df040f15088dc2f81fe391c3923bec73e23a9662efc9c229c6a00805468010000000000000000900460ff1615620000765760405163f92ee8a960e01b815260040160405180910390fd5b80546001600160401b0390811614620000d65780546001600160401b0319166001600160401b0390811782556040519081527fc7f505b2f371ae2175ee4913f4499e1f2633a7b5936321eed1cdaeb6115181d29060200160405180910390a15b50565b6080516158dd620001005f395f81816134150152818161343e01526135a601526158dd5ff3fe60806040526004361061039d575f3560e01c806373d4a13a116101de578063aaaf97ab11610108578063d7de575e1161009d578063f54ae18b1161006d578063f54ae18b14610b98578063fa823af514610bab578063fd17174a14610bbe578063fd316f0b14610bd1575f80fd5b8063d7de575e14610b32578063e05001f514610b5f578063e236052b14610b72578063f45bf01c14610b85575f80fd5b8063b5ec7487116100d8578063b5ec748714610a86578063ca40742c14610ae1578063cb2e9bdc14610b00578063d547741f14610b13575f80fd5b8063aaaf97ab14610a05578063ac9650d814610a23578063accb807a14610a43578063ad3cb1cc14610a56575f80fd5b8063834dafb51161017e5780638ea68d7e1161014e5780638ea68d7e1461099457806391d14854146109a75780639ab80115146109c6578063a217fddf146109f2575f80fd5b8063834dafb5146109475780638456cb591461095a5780638ccad6991461096e5780638e57277614610981575f80fd5b80637a32376a116101b95780637a32376a146108d45780637c90a6ca146108e75780637dc0d1d0146109085780637f417c0614610934575f80fd5b806373d4a13a1461077157806375829a361461089557806376c1b82f146108a8575f80fd5b80632e106f21116102ca578063510aeb391161025f5780635c975abb1161022f5780635c975abb146106e45780635cbc51eb1461070757806365e33f7d1461073357806373b683be14610752575f80fd5b8063510aeb391461067557806352d1902d14610688578063536b9c791461069c57806354fd4d50146106af575f80fd5b80633962a6861161029a5780633962a686146106285780633ae6d7c31461063b5780633f4ba83a1461064e5780634f1ef28614610662575f80fd5b80632e106f21146105c45780632f2ff15d146105d757806336568abe146105f65780633745afe914610615575f80fd5b8063134f3f96116103405780631ff75b0b116103105780631ff75b0b14610554578063248a9ca3146105735780632b4c9a20146105925780632b59bd99146105a5575f80fd5b8063134f3f96146104ab5780631970e5ea146104be5780631df0b63b146104dd5780631e5eb1d0146104f0575f80fd5b80630317b9df1161037b5780630317b9df1461041657806306be2e49146104355780630cf8542f1461046b5780630d37ab001461047e575f80fd5b806301ffc9a7146103a157806302088c51146103d557806302f2855a14610401575b5f80fd5b3480156103ac575f80fd5b506103c06103bb366004613d16565b610bf0565b60405190151581526020015b60405180910390f35b3480156103e0575f80fd5b506103f46103ef366004613f16565b610c26565b6040516103cc9190613f5f565b61041461040f366004613fd4565b610ca7565b005b348015610421575f80fd5b50610414610430366004613ffe565b610d9a565b348015610440575f80fd5b5061045461044f36600461402f565b610e39565b6040805192151583529015156020830152016103cc565b610414610479366004613fd4565b610fe0565b348015610489575f80fd5b5061049d61049836600461404a565b61100d565b6040519081526020016103cc565b6104146104b9366004614176565b611020565b3480156104c9575f80fd5b5061049d6104d83660046141f4565b6110ce565b6104146104eb3660046142cc565b6110d9565b3480156104fb575f80fd5b50610504611187565b6040516103cc9190815181526020808301519082015260408083015190820152606080830151908201526080808301519082015260a0918201516001600160a01b03169181019190915260c00190565b34801561055f575f80fd5b5061049d61056e3660046142fd565b611239565b34801561057e575f80fd5b5061049d61058d3660046141f4565b6112dc565b6104146105a0366004613fd4565b6112fc565b3480156105b0575f80fd5b5061049d6105bf36600461404a565b611329565b6104146105d2366004614352565b611335565b3480156105e2575f80fd5b506104146105f1366004614383565b61135b565b348015610601575f80fd5b50610414610610366004614383565b61137d565b610414610623366004613ffe565b6113b5565b610414610636366004614406565b6113db565b610414610649366004614459565b611526565b348015610659575f80fd5b5061041461176c565b610414610670366004614497565b6117c5565b610414610683366004614538565b6117e4565b348015610693575f80fd5b5061049d611811565b6104146106aa366004614574565b61182c565b3480156106ba575f80fd5b5060408051808201909152600481526376312e3960e01b60208201525b6040516103cc9190614612565b3480156106ef575f80fd5b505f805160206158688339815191525460ff166103c0565b348015610712575f80fd5b5061072661072136600461402f565b611925565b6040516103cc919061468b565b34801561073e575f80fd5b5061041461074d36600461474d565b611c7e565b34801561075d575f80fd5b5061049d61076c3660046142fd565b611ea0565b34801561077c575f80fd5b5061082460408051610100810182525f80825260208201819052918101829052606081018290526080810182905260a0810182905260c0810182905260e0810191909152506040805161010081018252601154815260125460208201526014546001600160a01b03908116928201929092526015548216606082015260165482166080820152601954821660a0820152601754821660c082015260185490911660e082015290565b604080518251815260208084015190820152828201516001600160a01b039081169282019290925260608084015183169082015260808084015183169082015260a08084015183169082015260c08084015183169082015260e09283015190911691810191909152610100016103cc565b6104146108a3366004614804565b611eff565b3480156108b3575f80fd5b506108c76108c23660046141f4565b611ff8565b6040516103cc9190614836565b6104146108e23660046148e5565b6120be565b3480156108f2575f80fd5b506108fb61216c565b6040516103cc9190614919565b348015610913575f80fd5b5061091c612213565b60405190516001600160a01b031681526020016103cc565b610414610942366004614538565b612292565b610414610955366004614406565b61233e565b348015610965575f80fd5b50610414612471565b61041461097c3660046142cc565b6124ca565b61041461098f366004613fd4565b612578565b6104146109a2366004613f16565b6125a5565b3480156109b2575f80fd5b506103c06109c1366004614383565b6125da565b3480156109d1575f80fd5b506109e56109e0366004613f16565b612610565b6040516103cc9190614965565b3480156109fd575f80fd5b5061049d5f81565b348015610a10575f80fd5b5061049d610a1f3660046141f4565b5490565b610a36610a313660046149b1565b612691565b6040516103cc9190614a1f565b610414610a51366004613ffe565b61269e565b348015610a61575f80fd5b506106d7604051806040016040528060058152602001640352e302e360dc1b81525081565b348015610a91575f80fd5b50610aa5610aa03660046141f4565b6126c4565b6040516103cc919081516001600160a01b0316815260208083015190820152604080830151908201526060918201519181019190915260800190565b348015610aec575f80fd5b5061049d610afb36600461402f565b6127aa565b610414610b0e366004614a81565b61282d565b348015610b1e575f80fd5b50610414610b2d366004614383565b61285a565b348015610b3d575f80fd5b50610b51610b4c36600461402f565b612876565b6040516103cc929190614ac2565b61049d610b6d366004613fd4565b612969565b610414610b80366004614ade565b612ad7565b610414610b93366004614aef565b612b0b565b610414610ba6366004614b7c565b612bbe565b610414610bb9366004614b7c565b612c6c565b610414610bcc366004614aef565b612d1a565b348015610bdc575f80fd5b50610414610beb366004614352565b612d4e565b5f6001600160e01b03198216637965db0b60e01b1480610c2057506301ffc9a760e01b6001600160e01b03198316145b92915050565b610c2e613bdd565b604051631c81982560e11b815273__$909b104b05b98ab9b02bd00c4a2f54926d$__90633903304a90610c67905f908690600401614c05565b61014060405180830381865af4158015610c83573d5f803e3d5ffd5b505050506040513d601f19601f82011682018060405250810190610c209190614c70565b610caf612db8565b610cb7612def565b604051635fed4de960e01b815273__$1ffb1d284a100711dc8ce94ffbdfd13eea$__90635fed4de990610cf0905f908590600401614d05565b5f6040518083038186803b158015610d06575f80fd5b505af4158015610d18573d5f803e3d5ffd5b505060405163d96aec4360e01b815273__$1ffb1d284a100711dc8ce94ffbdfd13eea$__925063d96aec439150610d55905f908590600401614d05565b5f6040518083038186803b158015610d6b575f80fd5b505af4158015610d7d573d5f803e3d5ffd5b50505050610d9760015f8051602061588883398151915255565b50565b5f610da58133612e34565b610dd05760405163e2517d3f60e01b8152336004820152602481018290526044015b60405180910390fd5b604051634752b3b360e01b815273__$72c16261390208f563094e6a4fc9f74031$__90634752b3b390610e09905f908690600401614d47565b5f6040518083038186803b158015610e1f575f80fd5b505af4158015610e31573d5f803e3d5ffd5b505050505050565b6001600160a01b0381165f908152600e602090815260408083208151815460609481028201850184529281018381528594610f0894929392849291849190840182828015610ea457602002820191905f5260205f20905b815481526020019060010190808311610e90575b5050505050815260200160018201805480602002602001604051908101604052809291908181526020018280548015610efa57602002820191905f5260205f20905b815481526020019060010190808311610ee6575b505050505081525050612ec6565b6001600160a01b0384165f908152600e60209081526040918290208251600290910180546060938102830184018552938201848152610fd794929391928492849190840182828015610ea457602002820191905f5260205f2090815481526020019060010190808311610e90575050505050815260200160018201805480602002602001604051908101604052809291908181526020018280548015610efa57602002820191905f5260205f2090815481526020019060010190808311610ee657505050505081525050612ec6565b91509150915091565b610d97604051806040016040528083803603810190610fff9190614dcb565b815233602090910152612c6c565b5f611019818484612edd565b9392505050565b611028612db8565b611030612def565b6040516333d4ade560e01b815273__$f56cb86c34e0dd0dca51f5a3538433e18c$__906333d4ade590611069905f908590600401614de5565b5f6040518083038186803b15801561107f575f80fd5b505af4158015611091573d5f803e3d5ffd5b505060405163178bcac760e11b815273__$f56cb86c34e0dd0dca51f5a3538433e18c$__9250632f17958e9150610d55905f908590600401614de5565b5f610c208183612fb7565b6110e1612db8565b6110e9612def565b604051637125eda960e11b815273__$339bef8b42d49ef7fc0392a1b9554f9551$__9063e24bdb5290611122905f908590600401614eaf565b5f6040518083038186803b158015611138575f80fd5b505af415801561114a573d5f803e3d5ffd5b505060405163184d91f360e31b815273__$339bef8b42d49ef7fc0392a1b9554f9551$__925063c26c8f989150610d55905f908590600401614eaf565b6111c36040518060c001604052805f81526020015f81526020015f81526020015f81526020015f81526020015f6001600160a01b031681525090565b6040516386617e7760e01b81525f600482015273__$72c16261390208f563094e6a4fc9f74031$__906386617e779060240160c060405180830381865af4158015611210573d5f803e3d5ffd5b505050506040513d601f19601f820116820180604052508101906112349190614ec7565b905090565b60405163897bce1f60e01b81525f600482018190526001600160a01b0380871660248401526044830186905284166064830152608482018390529073__$fad1da84a532053b53119316a58e977f10$__9063897bce1f9060a4015b602060405180830381865af41580156112af573d5f803e3d5ffd5b505050506040513d601f19601f820116820180604052508101906112d39190614f25565b95945050505050565b5f9081525f80516020615848833981519152602052604090206001015490565b610d9760405180604001604052808380360381019061131b9190614dcb565b815233602090910152612bbe565b5f6110198184846131b7565b610d9760405180604001604052808361134d90614f3c565b815233602090910152611020565b611364826112dc565b61136d81613287565b6113778383613291565b50505050565b6001600160a01b03811633146113a65760405163334bd91960e11b815260040160405180910390fd5b6113b08282613332565b505050565b610d976040518060400160405280836113cd90614f47565b8152336020909101526124ca565b6113e3612db8565b6113eb612def565b60405163160b9e6b60e31b815273__$c58e2605104bb31274ad8c04841b6a7550$__9063b05cf35890611424905f908590600401614f83565b5f6040518083038186803b15801561143a575f80fd5b505af415801561144c573d5f803e3d5ffd5b5050604051639f46aa4160e01b815273__$c58e2605104bb31274ad8c04841b6a7550$__9250639f46aa419150611489905f908590600401614f83565b5f6040518083038186803b15801561149f575f80fd5b505af41580156114b1573d5f803e3d5ffd5b505050505f19815f015160200151036115105760208101516040516316bbd7db60e11b81525f60048201526001600160a01b03909116602482015273__$b44e0fdf2f6bdeffc1681a5a467d23dde6$__90632d77afb690604401610d55565b610d9760015f8051602061588883398151915255565b61152e612db8565b611536612def565b602081015160405163046dbd1360e11b81525f600482018190526001600160a01b03909216602482015273__$b44e0fdf2f6bdeffc1681a5a467d23dde6$__906308db7a2690604401602060405180830381865af415801561159a573d5f803e3d5ffd5b505050506040513d601f19601f820116820180604052508101906115be9190614f25565b60405163f9c417bd60e01b815290915073__$7fa168b5d238863382c2bf886894022425$__9063f9c417bd906115fa905f908690600401614f98565b5f6040518083038186803b158015611610575f80fd5b505af4158015611622573d5f803e3d5ffd5b5050604051634971bf9960e01b815273__$7fa168b5d238863382c2bf886894022425$__9250634971bf99915061165f905f908690600401614f98565b5f6040518083038186803b158015611675575f80fd5b505af4158015611687573d5f803e3d5ffd5b50505050602082015160405163046dbd1360e11b81525f600482018190526001600160a01b03909216602482015273__$b44e0fdf2f6bdeffc1681a5a467d23dde6$__906308db7a2690604401602060405180830381865af41580156116ef573d5f803e3d5ffd5b505050506040513d601f19601f820116820180604052508101906117139190614f25565b905081811161175457602083015160405163625a84dd60e01b81526001600160a01b0390911660048201526024810183905260448101829052606401610dc7565b5050610d9760015f8051602061588883398151915255565b7f65d7a28e3265b37a6474929f336521b332c1681b933f6cb9f3376673440d862a6117978133612e34565b6117bd5760405163e2517d3f60e01b815233600482015260248101829052604401610dc7565b610d976133ab565b6117cd61340a565b6117d6826134ae565b6117e082826134df565b5050565b610d976040518060400160405280838036038101906118039190614fd4565b815233602090910152611eff565b5f61181a61359b565b505f8051602061582883398151915290565b611834612db8565b61183c612def565b604080516325f2df6f60e01b81525f6004820152825151602482015260208301516001600160a01b03908116604483015291830151909116606482015273__$c19cfa413da1baf02a2307c9fe3d8deda6$__906325f2df6f906084015f6040518083038186803b1580156118ae575f80fd5b505af41580156118c0573d5f803e3d5ffd5b5050604080516330e78a9160e11b81525f6004820152845151602482015260208501516001600160a01b03908116604483015291850151909116606482015273__$c19cfa413da1baf02a2307c9fe3d8deda6$__92506361cf15229150608401610d55565b61192d613c23565b5f805160206158888339815191525460020361195c57604051633ee5aeb560e01b815260040160405180910390fd5b604080516001600160a01b0384165f908152600e60209081529083902080546101809281028401830190945261016083018481529293849360a085019384926101208701928592849284918a01828280156119d457602002820191905f5260205f20905b8154815260200190600101908083116119c0575b5050505050815260200160018201805480602002602001604051908101604052809291908181526020018280548015611a2a57602002820191905f5260205f20905b815481526020019060010190808311611a16575b5050505050815250508152602001600282016040518060400160405290815f8201805480602002602001604051908101604052809291908181526020018280548015611a9357602002820191905f5260205f20905b815481526020019060010190808311611a7f575b5050505050815260200160018201805480602002602001604051908101604052809291908181526020018280548015611ae957602002820191905f5260205f20905b815481526020019060010190808311611ad5575b50505091909252505050815260048281015460208084019190915260059093015460ff1615156040928301529284526001600160a01b0387811692850183905260165482516370a0823160e01b81529485019390935293019216906370a0823190602401602060405180830381865afa158015611b68573d5f803e3d5ffd5b505050506040513d601f19601f82011682018060405250810190611b8c9190614f25565b81526019546040516370a0823160e01b81526001600160a01b038681166004830152602090930192909116906370a0823190602401602060405180830381865afa158015611bdc573d5f803e3d5ffd5b505050506040513d601f19601f82011682018060405250810190611c009190614f25565b81526017546040516370a0823160e01b81526001600160a01b038681166004830152602090930192909116906370a0823190602401602060405180830381865afa158015611c50573d5f803e3d5ffd5b505050506040513d601f19601f82011682018060405250810190611c749190614f25565b905290505b919050565b5f611c876135e4565b805490915060ff600160401b82041615906001600160401b03165f81158015611cad5750825b90505f826001600160401b03166001148015611cc85750303b155b905081158015611cd6575080155b15611cf45760405163f92ee8a960e01b815260040160405180910390fd5b845467ffffffffffffffff191660011785558315611d1e57845460ff60401b1916600160401b1785555b6040516369777eb960e01b815273__$d02cb2608d6f3ad3f53f4dd3f26f81b8ea$__906369777eb990611d5f905f908e908e908e908e908e90600401615192565b5f6040518083038186803b158015611d75575f80fd5b505af4158015611d87573d5f803e3d5ffd5b50505050611d9361360c565b611d9b61360c565b611da3613614565b611dab61360c565b604051632ffdac7160e21b815273__$d02cb2608d6f3ad3f53f4dd3f26f81b8ea$__9063bff6b1c490611dea905f908d908d908d908d906004016151fa565b5f6040518083038186803b158015611e00575f80fd5b505af4158015611e12573d5f803e3d5ffd5b50505050611e225f801b8b613291565b50611e4d7f65d7a28e3265b37a6474929f336521b332c1681b933f6cb9f3376673440d862a8b613291565b508315611e9457845460ff60401b19168555604051600181527fc7f505b2f371ae2175ee4913f4499e1f2633a7b5936321eed1cdaeb6115181d29060200160405180910390a15b50505050505050505050565b604051637574b6e360e01b81525f600482018190526001600160a01b0380871660248401526044830186905284166064830152608482018390529073__$fad1da84a532053b53119316a58e977f10$__90637574b6e39060a401611294565b611f07612db8565b611f0f612def565b604051623fe27360e01b81525f6004820152815180516001600160a01b039081166024840152602091820151151560448401529083015116606482015273__$c6aecf0de9c97d330c260596cb45f01743$__90623fe273906084015f6040518083038186803b158015611f80575f80fd5b505af4158015611f92573d5f803e3d5ffd5b505060405163724e2b6f60e01b81525f6004820152835180516001600160a01b039081166024840152602091820151151560448401529085015116606482015273__$c6aecf0de9c97d330c260596cb45f01743$__925063724e2b6f9150608401610d55565b612000613c5d565b604051633978289f60e01b81525f60048201526024810183905273__$674c94602fbdb88ca53d9ba4295c8813fa$__90633978289f90604401602060405180830381865af4158015612054573d5f803e3d5ffd5b505050506040513d601f19601f820116820180604052508101906120789190614f25565b6040805160808101825282546001600160a01b0381168252600160a01b900460ff1615156020820152600183015491810191909152600290910154606082015292915050565b6120c6612db8565b6120ce612def565b60405163da25f11760e01b815273__$e9ef7182266124a833dac7dfa55fc79e51$__9063da25f11790612107905f908590600401615255565b5f6040518083038186803b15801561211d575f80fd5b505af415801561212f573d5f803e3d5ffd5b50506040516388fb1b6760e01b815273__$e9ef7182266124a833dac7dfa55fc79e51$__92506388fb1b679150610d55905f908590600401615255565b6121a06040518060c001604052805f81526020015f81526020015f81526020015f81526020015f8152602001606081525090565b604051636e9bc7eb60e11b81525f600482015273__$72c16261390208f563094e6a4fc9f74031$__9063dd378fd6906024015f60405180830381865af41580156121ec573d5f803e3d5ffd5b505050506040513d5f823e601f3d908101601f19168201604052611234919081019061529f565b60408051602081019091525f8152604051631ae5e80160e31b81525f600482015273__$72c16261390208f563094e6a4fc9f74031$__9063d72f400890602401602060405180830381865af415801561226e573d5f803e3d5ffd5b505050506040513d601f19601f82011682018060405250810190611234919061538c565b61229a612db8565b6122a2612def565b6040516210aa0b60e31b815273__$45d7492db284be01938913cb41b9cac2a6$__9062855058906122d9905f9085906004016153b8565b5f6040518083038186803b1580156122ef575f80fd5b505af4158015612301573d5f803e3d5ffd5b50506040516364140a8360e01b815273__$45d7492db284be01938913cb41b9cac2a6$__92506364140a839150610d55905f9085906004016153b8565b612346612db8565b61234e612def565b604051631e55c20b60e31b815273__$909b104b05b98ab9b02bd00c4a2f54926d$__9063f2ae105890612387905f908590600401614f83565b5f6040518083038186803b15801561239d575f80fd5b505af41580156123af573d5f803e3d5ffd5b5050604051630f6470bd60e01b815273__$909b104b05b98ab9b02bd00c4a2f54926d$__9250630f6470bd91506123ec905f908590600401614f83565b5f6040518083038186803b158015612402575f80fd5b505af4158015612414573d5f803e3d5ffd5b505050505f19815f01516020015103611510578051516040516316bbd7db60e11b81525f60048201526001600160a01b03909116602482015273__$b44e0fdf2f6bdeffc1681a5a467d23dde6$__90632d77afb690604401610d55565b7f65d7a28e3265b37a6474929f336521b332c1681b933f6cb9f3376673440d862a61249c8133612e34565b6124c25760405163e2517d3f60e01b815233600482015260248101829052604401610dc7565b610d97613624565b6124d2612db8565b6124da612def565b604051632d0c1e8b60e01b815273__$f215670302542f95b8fc754ac02a4bfcb4$__90632d0c1e8b90612513905f908590600401614eaf565b5f6040518083038186803b158015612529575f80fd5b505af415801561253b573d5f803e3d5ffd5b505060405163c0c66ed960e01b815273__$f215670302542f95b8fc754ac02a4bfcb4$__925063c0c66ed99150610d55905f908590600401614eaf565b610d9760405180604001604052808380360381019061259791906153f0565b815233602090910152611526565b610d976040518060600160405280838152602001336001600160a01b03168152602001336001600160a01b03168152506113db565b5f9182525f80516020615848833981519152602090815260408084206001600160a01b0393909316845291905290205460ff1690565b612618613c8c565b60405163301d1d1560e21b815273__$c58e2605104bb31274ad8c04841b6a7550$__9063c074745490612651905f908690600401614c05565b61012060405180830381865af415801561266d573d5f803e3d5ffd5b505050506040513d601f19601f82011682018060405250810190610c20919061540a565b60606110195f848461366c565b610d976040518060400160405280836126b690614f47565b8152336020909101526110d9565b6126f460405180608001604052805f6001600160a01b031681526020015f81526020015f81526020015f81525090565b604051634c9829bf60e11b81525f60048201526024810183905273__$674c94602fbdb88ca53d9ba4295c8813fa$__90639930537e90604401602060405180830381865af4158015612748573d5f803e3d5ffd5b505050506040513d601f19601f8201168201806040525081019061276c9190614f25565b6040805160808101825282546001600160a01b0316815260018301546020820152600283015491810191909152600390910154606082015292915050565b60405163046dbd1360e11b81525f600482018190526001600160a01b03831660248301529073__$b44e0fdf2f6bdeffc1681a5a467d23dde6$__906308db7a2690604401602060405180830381865af4158015612809573d5f803e3d5ffd5b505050506040513d601f19601f82011682018060405250810190610c209190614f25565b610d9760405180604001604052808380360381019061284c919061546c565b8152336020909101526120be565b612863826112dc565b61286c81613287565b6113778383613332565b6128a36040518060a001604052805f81526020015f81526020015f81526020015f81526020015f81525090565b6128d06040518060a001604052805f81526020015f81526020015f81526020015f81526020015f81525090565b50506001600160a01b03165f908152601a6020908152604091829020825160a08082018552825482526001830154828501526002830154828601526003830154606080840191909152600484015460808085019190915286519283018752600585015483526006850154958301959095526007840154958201959095526008830154948101949094526009909101549183019190915291565b5f612972612db8565b61297a612def565b6040516320b5435f60e11b815273__$04d32033081e1e9356971d8f4b5098bcad$__9063416a86be906129b3905f908690600401615487565b5f6040518083038186803b1580156129c9575f80fd5b505af41580156129db573d5f803e3d5ffd5b5050604051630d0699cb60e21b815273__$04d32033081e1e9356971d8f4b5098bcad$__925063341a672c9150612a18905f908690600401615487565b602060405180830381865af4158015612a33573d5f803e3d5ffd5b505050506040513d601f19601f82011682018060405250810190612a579190614f25565b60405163489d188160e01b815290915073__$04d32033081e1e9356971d8f4b5098bcad$__9063489d188190612a95905f90869086906004016154af565b5f6040518083038186803b158015612aab575f80fd5b505af4158015612abd573d5f803e3d5ffd5b50505050611c7960015f8051602061588883398151915255565b610d97604051806060016040528083803603810190612af69190613f16565b8152336020820181905260409091015261233e565b612b13612db8565b612b1b612def565b604051635792057f60e11b81525f60048201528135602482015273__$ebce6ba8505acc62d937fb713060c40a3c$__9063af240afe906044015f6040518083038186803b158015612b6a575f80fd5b505af4158015612b7c573d5f803e3d5ffd5b50506040516320e9b9f960e11b81525f60048201528335602482015273__$ebce6ba8505acc62d937fb713060c40a3c$__92506341d373f29150604401610d55565b612bc6612db8565b612bce612def565b604051631005beb160e31b815273__$7947dedfaba9c59621bd8bcc87e3fb80f1$__9063802df58890612c07905f9085906004016154e5565b5f6040518083038186803b158015612c1d575f80fd5b505af4158015612c2f573d5f803e3d5ffd5b5050604051631cc17ae560e31b815273__$7947dedfaba9c59621bd8bcc87e3fb80f1$__925063e60bd7289150610d55905f9085906004016154e5565b612c74612db8565b612c7c612def565b60405163024889b160e51b815273__$d49e499a4608ab3aca09b91fe5950492b6$__90634911362090612cb5905f9085906004016154e5565b5f6040518083038186803b158015612ccb575f80fd5b505af4158015612cdd573d5f803e3d5ffd5b505060405163a083c0ab60e01b815273__$d49e499a4608ab3aca09b91fe5950492b6$__925063a083c0ab9150610d55905f9085906004016154e5565b610d97604051806060016040528083803603810190612d39919061552a565b8152336020820181905260409091015261182c565b5f612d598133612e34565b612d7f5760405163e2517d3f60e01b815233600482015260248101829052604401610dc7565b6040516356e79f8560e01b815273__$f86254f79636e35350b1b645c6388199de$__906356e79f8590610e09905f908690600401615544565b5f80516020615888833981519152805460011901612de957604051633ee5aeb560e01b815260040160405180910390fd5b60029055565b5f805160206158688339815191525460ff1615612e1f5760405163d93c066560e01b815260040160405180910390fd5b565b60015f8051602061588883398151915255565b5f612e3f83836125da565b15612e4c57506001610c20565b601b54604051632474521560e21b8152600481018590526001600160a01b038481166024830152909116906391d1485490604401602060405180830381865afa158015612e9b573d5f803e3d5ffd5b505050506040513d601f19601f82011682018060405250810190612ebf9190615612565b9050610c20565b8051515f90158015610c2057505060200151511590565b6001600160a01b0382165f908152600e840160209081526040808320815181546060948102820185018452928101838152612faf948894929392849291849190840182828015612f4a57602002820191905f5260205f20905b815481526020019060010190808311612f36575b5050505050815260200160018201805480602002602001604051908101604052809291908181526020018280548015612fa057602002820191905f5260205f20905b815481526020019060010190808311612f8c575b50505050508152505084613754565b949350505050565b5f61101983600d015f015f9054906101000a90046001600160a01b03166001600160a01b031663313ce5676040518163ffffffff1660e01b8152600401602060405180830381865afa15801561300f573d5f803e3d5ffd5b505050506040513d601f19601f820116820180604052508101906130339190614f25565b61303e90600a615721565b613048908461572c565b60148501546040805163313ce56760e01b815290516001600160a01b039092169163313ce567916004808201926020929091908290030181865afa158015613092573d5f803e3d5ffd5b505050506040513d601f19601f820116820180604052508101906130b69190615743565b6130c190600a615763565b60158601546040805163313ce56760e01b815290516001600160a01b039092169163313ce567916004808201926020929091908290030181865afa15801561310b573d5f803e3d5ffd5b505050506040513d601f19601f8201168201806040525081019061312f9190615743565b61313a90600a615763565b600d87015460408051634c6afee560e11b815290516001600160a01b03909216916398d5fdca916004808201926020929091908290030181865afa158015613184573d5f803e3d5ffd5b505050506040513d601f19601f820116820180604052508101906131a89190614f25565b6131b2919061572c565b613835565b6001600160a01b0382165f908152600e8401602090815260408083208151600290910180546060948102830185018452928201838152612faf948894849291849190840182828015612f4a57602002820191905f5260205f2090815481526020019060010190808311612f36575050505050815260200160018201805480602002602001604051908101604052809291908181526020018280548015612fa057602002820191905f5260205f2090815481526020019060010190808311612f8c5750505050508152505084613754565b610d978133613841565b5f5f805160206158488339815191526132aa84846125da565b613329575f848152602082815260408083206001600160a01b03871684529091529020805460ff191660011790556132df3390565b6001600160a01b0316836001600160a01b0316857f2f8788117e7eff1d82e926ec794901d17c78024a50270940304540a733656f0d60405160405180910390a46001915050610c20565b5f915050610c20565b5f5f8051602061584883398151915261334b84846125da565b15613329575f848152602082815260408083206001600160a01b0387168085529252808320805460ff1916905551339287917ff6391f5c32d9c69d2a47ea670b442974b53935d1edc7fd64eb21e047a839171b9190a46001915050610c20565b6133b361387a565b5f80516020615868833981519152805460ff191681557f5db9ee0a495bf2e6ff9c91a7834c1ba4fdd244a5e8aa4e537bd38aeae4b073aa335b6040516001600160a01b03909116815260200160405180910390a150565b306001600160a01b037f000000000000000000000000000000000000000000000000000000000000000016148061349057507f00000000000000000000000000000000000000000000000000000000000000006001600160a01b03166134845f80516020615828833981519152546001600160a01b031690565b6001600160a01b031614155b15612e1f5760405163703e46dd60e11b815260040160405180910390fd5b5f6134b98133612e34565b6117e05760405163e2517d3f60e01b815233600482015260248101829052604401610dc7565b816001600160a01b03166352d1902d6040518163ffffffff1660e01b8152600401602060405180830381865afa925050508015613539575060408051601f3d908101601f1916820190925261353691810190614f25565b60015b61356157604051634c9c8ce360e01b81526001600160a01b0383166004820152602401610dc7565b5f80516020615828833981519152811461359157604051632a87526960e21b815260048101829052602401610dc7565b6113b083836138a9565b306001600160a01b037f00000000000000000000000000000000000000000000000000000000000000001614612e1f5760405163703e46dd60e11b815260040160405180910390fd5b5f807ff0c57e16840df040f15088dc2f81fe391c3923bec73e23a9662efc9c229c6a00610c20565b612e1f6138fe565b61361c6138fe565b612e1f613923565b61362c612def565b5f80516020615868833981519152805460ff191660011781557f62e78cea01bee320cd4e420270b5ea74000d11b0c9f74754ebdbfc544b05a258336133ec565b6060816001600160401b0381111561368657613686613d3d565b6040519080825280602002602001820160405280156136b957816020015b60608152602001906001900390816136a45790505b5090505f5b8281101561374c57613727308585848181106136dc576136dc615771565b90506020028101906136ee9190615785565b8080601f0160208091040260200160405190810160405280939291908181526020018383808284375f9201919091525061392b92505050565b82828151811061373957613739615771565b60209081029190910101526001016136be565b509392505050565b5f815f036137755760405163e8b3806b60e01b815260040160405180910390fd5b61377e83612ec6565b156137a65760405162b04ee160e61b81526001600160a01b0385166004820152602401610dc7565b4282116137c9576040516317a6a68360e21b815260048101839052602401610dc7565b5f806137d8855f015185613994565b915091505f198214806137eb5750808214155b1561380c5760405163068ebaa360e41b815260048101859052602401610dc7565b8460200151828151811061382257613822615771565b6020026020010151925050509392505050565b5f612faf848484613a91565b61384b82826125da565b6117e05760405163e2517d3f60e01b81526001600160a01b038216600482015260248101839052604401610dc7565b5f805160206158688339815191525460ff16612e1f57604051638dfc202b60e01b815260040160405180910390fd5b6138b282613abd565b6040516001600160a01b038316907fbc7cd75a20ee27fd9adebab32041f755214dbc6bffa90cc0225b39da2e5c2d3b905f90a28051156138f6576113b0828261392b565b6117e0613b20565b613906613b3f565b612e1f57604051631afcd79f60e31b815260040160405180910390fd5b612e216138fe565b60605f80846001600160a01b03168460405161394791906157c7565b5f60405180830381855af49150503d805f811461397f576040519150601f19603f3d011682016040523d82523d5f602084013e613984565b606091505b50915091506112d3858383613b58565b81515f9081906139a6906001906157e2565b90508382815181106139ba576139ba615771565b60200260200101518310806139e757508381815181106139dc576139dc615771565b602002602001015183115b156139f757505f19905080613a8a565b808211613a88575f6002613a0b83856157f5565b613a159190615808565b905083858281518110613a2a57613a2a615771565b602002602001015103613a41579150819050613a8a565b83858281518110613a5457613a54615771565b60200260200101511015613a7457613a6d8160016157f5565b9250613a82565b613a7f6001826157e2565b91505b506139f7565b905b9250929050565b5f825f190484118302158202613aae5763ad251c275f526004601cfd5b50910281810615159190040190565b806001600160a01b03163b5f03613af257604051634c9c8ce360e01b81526001600160a01b0382166004820152602401610dc7565b5f8051602061582883398151915280546001600160a01b0319166001600160a01b0392909216919091179055565b3415612e1f5760405163b398979f60e01b815260040160405180910390fd5b5f613b486135e4565b54600160401b900460ff16919050565b606082613b6d57613b6882613bb4565b611019565b8151158015613b8457506001600160a01b0384163b155b15613bad57604051639996b31560e01b81526001600160a01b0385166004820152602401610dc7565b5080611019565b805115613bc45780518082602001fd5b60405163d6bda27560e01b815260040160405180910390fd5b6040518060e00160405280613bf0613c5d565b81526020015f6001600160a01b031681526020015f81526020015f81526020015f81526020015f81526020015f81525090565b6040518060a00160405280613c36613cc3565b81526020015f6001600160a01b031681526020015f81526020015f81526020015f81525090565b60405180608001604052805f6001600160a01b031681526020015f151581526020015f81526020015f81525090565b6040518060c00160405280613c9f613c5d565b81526020015f81526020015f81526020015f81526020015f81526020015f81525090565b6040805160c0810190915260606080820181815260a083019190915281908152602001613d03604051806040016040528060608152602001606081525090565b81525f6020820181905260409091015290565b5f60208284031215613d26575f80fd5b81356001600160e01b031981168114611019575f80fd5b634e487b7160e01b5f52604160045260245ffd5b60405161012081016001600160401b0381118282101715613d7457613d74613d3d565b60405290565b604051608081016001600160401b0381118282101715613d7457613d74613d3d565b604080519081016001600160401b0381118282101715613d7457613d74613d3d565b604051606081016001600160401b0381118282101715613d7457613d74613d3d565b604051602081016001600160401b0381118282101715613d7457613d74613d3d565b60405160c081016001600160401b0381118282101715613d7457613d74613d3d565b604051601f8201601f191681016001600160401b0381118282101715613e4c57613e4c613d3d565b604052919050565b6001600160a01b0381168114610d97575f80fd5b8035611c7981613e54565b8015158114610d97575f80fd5b8035611c7981613e73565b5f6101208284031215613e9c575f80fd5b613ea4613d51565b9050613eaf82613e68565b81526020820135602082015260408201356040820152606082013560608201526080820135608082015260a082013560a0820152613eef60c08301613e80565b60c082015260e082013560e0820152610100613f0c818401613e68565b9082015292915050565b5f6101208284031215613f27575f80fd5b6110198383613e8b565b80516001600160a01b0316825260208082015115159083015260408082015190830152606090810151910152565b5f61014082019050613f72828451613f31565b60018060a01b036020840151166080830152604083015160a0830152606083015160c0830152608083015160e083015260a083015161010083015260c083015161012083015292915050565b5f60608284031215613fce575f80fd5b50919050565b5f60608284031215613fe4575f80fd5b6110198383613fbe565b5f60408284031215613fce575f80fd5b5f6020828403121561400e575f80fd5b81356001600160401b03811115614023575f80fd5b612faf84828501613fee565b5f6020828403121561403f575f80fd5b813561101981613e54565b5f806040838503121561405b575f80fd5b823561406681613e54565b946020939093013593505050565b5f6001600160401b0382111561408c5761408c613d3d565b5060051b60200190565b5f82601f8301126140a5575f80fd5b813560206140ba6140b583614074565b613e24565b8083825260208201915060208460051b8701019350868411156140db575f80fd5b602086015b848110156140f757803583529183019183016140e0565b509695505050505050565b5f60808284031215614112575f80fd5b61411a613d7a565b905081358152602082013561412e81613e73565b6020820152604082013561414181613e73565b604082015260608201356001600160401b0381111561415e575f80fd5b61416a84828501614096565b60608301525092915050565b5f60208284031215614186575f80fd5b81356001600160401b038082111561419c575f80fd5b90830190604082860312156141af575f80fd5b6141b7613d9c565b8235828111156141c5575f80fd5b6141d187828601614102565b825250602083013592506141e483613e54565b6020810192909252509392505050565b5f60208284031215614204575f80fd5b5035919050565b5f6040828403121561421b575f80fd5b614223613d9c565b905081356001600160401b038082111561423b575f80fd5b61424785838601614096565b8352602084013591508082111561425c575f80fd5b5061426984828501614096565b60208301525092915050565b5f60408284031215614285575f80fd5b61428d613d9c565b905081356001600160401b038111156142a4575f80fd5b6142b08482850161420b565b82525060208201356142c181613e54565b602082015292915050565b5f602082840312156142dc575f80fd5b81356001600160401b038111156142f1575f80fd5b612faf84828501614275565b5f805f8060808587031215614310575f80fd5b843561431b81613e54565b935060208501359250604085013561433281613e54565b9396929550929360600135925050565b5f60808284031215613fce575f80fd5b5f60208284031215614362575f80fd5b81356001600160401b03811115614377575f80fd5b612faf84828501614342565b5f8060408385031215614394575f80fd5b8235915060208301356143a681613e54565b809150509250929050565b5f61016082840312156143c2575f80fd5b6143ca613dbe565b90506143d68383613e8b565b81526101208201356143e781613e54565b60208201526101408201356143fb81613e54565b604082015292915050565b5f6101608284031215614417575f80fd5b61101983836143b1565b5f60608284031215614431575f80fd5b614439613dbe565b905081358152602082013560208201526040820135604082015292915050565b5f60808284031215614469575f80fd5b614471613d9c565b61447b8484614421565b8152606083013561448b81613e54565b60208201529392505050565b5f80604083850312156144a8575f80fd5b82356144b381613e54565b91506020838101356001600160401b03808211156144cf575f80fd5b818601915086601f8301126144e2575f80fd5b8135818111156144f4576144f4613d3d565b614506601f8201601f19168501613e24565b9150808252878482850101111561451b575f80fd5b80848401858401375f848284010152508093505050509250929050565b5f60408284031215614548575f80fd5b6110198383613fee565b5f60208284031215614562575f80fd5b61456a613de0565b9135825250919050565b5f60608284031215614584575f80fd5b61458c613dbe565b6145968484614552565b815260208301356145a681613e54565b602082015260408301356145b981613e54565b60408201529392505050565b5f5b838110156145df5781810151838201526020016145c7565b50505f910152565b5f81518084526145fe8160208601602086016145c5565b601f01601f19169290920160200192915050565b602081525f61101960208301846145e7565b5f815180845260208085019450602084015f5b8381101561465357815187529582019590820190600101614637565b509495945050505050565b5f8151604084526146726040850182614624565b9050602083015184820360208601526112d38282614624565b602081525f825160a060208401528051608060c08501526146b061014085018261465e565b9050602082015160bf198583030160e08601526146cd828261465e565b9150506040820151610100850152606082015115156101208501526020850151915061470460408501836001600160a01b03169052565b6040850151606085015260608501516080850152608085015160a0850152809250505092915050565b5f60c08284031215613fce575f80fd5b5f60208284031215613fce575f80fd5b5f805f805f6101e08688031215614762575f80fd5b853561476d81613e54565b945061477c876020880161472d565b935060e08601356001600160401b03811115614796575f80fd5b6147a28882890161472d565b9350506147b387610100880161473d565b91506147c387610120880161472d565b90509295509295909350565b5f604082840312156147df575f80fd5b6147e7613d9c565b905081356147f481613e54565b815260208201356142c181613e73565b5f60608284031215614814575f80fd5b61481c613d9c565b61482684846147cf565b8152604083013561448b81613e54565b60808101610c208284613f31565b5f60a08284031215614854575f80fd5b60405160a081018181106001600160401b038211171561487657614876613d3d565b806040525080915082358152602083013560208201526040830135604082015260608301356060820152608083013560808201525092915050565b5f61014082840312156148c2575f80fd5b6148ca613d9c565b90506148d68383614844565b81526142c18360a08401614844565b5f61016082840312156148f6575f80fd5b6148fe613d9c565b61490884846148b1565b815261014083013561448b81613e54565b6020815281516020820152602082015160408201526040820151606082015260608201516080820152608082015160a08201525f60a083015160c080840152612faf60e0840182614624565b5f61012082019050614978828451613f31565b60208301516080830152604083015160a0830152606083015160c0830152608083015160e083015260a083015161010083015292915050565b5f80602083850312156149c2575f80fd5b82356001600160401b03808211156149d8575f80fd5b818501915085601f8301126149eb575f80fd5b8135818111156149f9575f80fd5b8660208260051b8501011115614a0d575f80fd5b60209290920196919550909350505050565b5f60208083016020845280855180835260408601915060408160051b8701019250602087015f5b82811015614a7457603f19888603018452614a628583516145e7565b94509285019290850190600101614a46565b5092979650505050505050565b5f6101408284031215613fce575f80fd5b80518252602081015160208301526040810151604083015260608101516060830152608081015160808301525050565b6101408101614ad18285614a92565b61101960a0830184614a92565b5f6101208284031215613fce575f80fd5b5f60208284031215614aff575f80fd5b611019838361473d565b5f60608284031215614b19575f80fd5b614b21613dbe565b90508135614b2e81613e54565b81526020828101359082015260408201356143fb81613e54565b5f60808284031215614b58575f80fd5b614b60613d9c565b9050614b6c8383614b09565b815260608201356142c181613e54565b5f60808284031215614b8c575f80fd5b6110198383614b48565b60018060a01b0381511682526020810151602083015260408101516040830152606081015160608301526080810151608083015260a081015160a083015260c0810151151560c083015260e081015160e083015261010080820151611377828501826001600160a01b03169052565b82815261014081016110196020830184614b96565b5f60808284031215614c2a575f80fd5b614c32613d7a565b90508151614c3f81613e54565b81526020820151614c4f81613e73565b80602083015250604082015160408201526060820151606082015292915050565b5f6101408284031215614c81575f80fd5b60405160e081018181106001600160401b0382111715614ca357614ca3613d3d565b604052614cb08484614c1a565b81526080830151614cc081613e54565b8060208301525060a0830151604082015260c0830151606082015260e0830151608082015261010083015160a082015261012083015160c08201528091505092915050565b5f60808201905083825282356020830152602083013560408301526040830135614d2e81613e54565b6001600160a01b03166060929092019190915292915050565b828152604060208201525f8235601e19843603018112614d65575f80fd5b83016020810190356001600160401b03811115614d80575f80fd5b803603821315614d8e575f80fd5b604080850152806080850152808260a08601375f60a082860101526020850135606085015260a0601f19601f830116850101925050509392505050565b5f60608284031215614ddb575f80fd5b6110198383614b09565b828152604060208201525f8251604080840152805160808401526020810151151560a08401526040810151151560c084015260608101519050608060e0840152614e33610100840182614624565b602094909401516001600160a01b031660609390930192909252509092915050565b5f8151604084528051604080860152614e716080860182614624565b905060208201519150603f19858203016060860152614e908183614624565b6020948501516001600160a01b03169590940194909452509092915050565b828152604060208201525f612faf6040830184614e55565b5f60c08284031215614ed7575f80fd5b614edf613e02565b825181526020830151602082015260408301516040820152606083015160608201526080830151608082015260a0830151614f1981613e54565b60a08201529392505050565b5f60208284031215614f35575f80fd5b5051919050565b5f610c203683614102565b5f610c20368361420b565b614f5d828251614b96565b60208101516001600160a01b039081166101208401526040909101511661014090910152565b82815261018081016110196020830184614f52565b918252805180516020808501919091528082015160408086019190915290910151606084015201516001600160a01b0316608082015260a00190565b5f60408284031215614fe4575f80fd5b61101983836147cf565b803582526020810135602083015260408101356040830152606081013560608301526080810135608083015260a081013561502881613e54565b6001600160a01b031660a0929092019190915250565b5f808335601e19843603018112615053575f80fd5b83016020810192503590506001600160401b03811115615071575f80fd5b8060051b3603821315613a8a575f80fd5b8183525f6001600160fb1b03831115615099575f80fd5b8260051b80836020870137939093016020019392505050565b80358252602081013560208301526040810135604083015260608101356060830152608081013560808301525f6150ec60a083018361503e565b60c060a08601526112d360c086018284615082565b803561510c81613e54565b6001600160a01b03908116835260208201359061512882613e54565b908116602084015260408201359061513f82613e54565b908116604084015260608201359061515682613e54565b908116606084015260808201359061516d82613e54565b908116608084015260a08201359061518482613e54565b80821660a085015250505050565b8681526001600160a01b0386811660208301525f90610200906151b86040850189614fee565b816101008501526151cb828501886150b2565b9250853591506151da82613e54565b166101208301526151ef610140830184615101565b979650505050505050565b5f6101e087835261520e6020840188614fee565b8060e0840152615220818401876150b2565b915050833561522e81613e54565b6001600160a01b031661010083015261524b610120830184615101565b9695505050505050565b5f610180820190508382528251615270602084018251614a92565b6020015161528160c0840182614a92565b50602092909201516001600160a01b03166101609190910152919050565b5f60208083850312156152b0575f80fd5b82516001600160401b03808211156152c6575f80fd5b9084019060c082870312156152d9575f80fd5b6152e1613e02565b82518152838301518482015260408301516040820152606083015160608201526080830151608082015260a08301518281111561531c575f80fd5b80840193505086601f840112615330575f80fd5b825191506153406140b583614074565b82815260059290921b8301840191848101908884111561535e575f80fd5b938501935b8385101561537c57845182529385019390850190615363565b60a0830152509695505050505050565b5f6020828403121561539c575f80fd5b6153a4613de0565b82516153af81613e54565b81529392505050565b5f6060820190508382528235602083015260208301356153d781613e54565b6001600160a01b03166040929092019190915292915050565b5f60608284031215615400575f80fd5b6110198383614421565b5f610120828403121561541b575f80fd5b615423613e02565b61542d8484614c1a565b81526080830151602082015260a0830151604082015260c0830151606082015260e0830151608082015261010083015160a08201528091505092915050565b5f610140828403121561547d575f80fd5b61101983836148b1565b8281526080810161101960208301848035825260208082013590830152604090810135910152565b83815260a081016154d760208301858035825260208082013590830152604090810135910152565b826080830152949350505050565b82815260a081016110196020830184805180516001600160a01b0390811684526020808301518186015260409283015182169285019290925291015116606090910152565b5f6020828403121561553a575f80fd5b6110198383614552565b8281525f60206040602084015261555b848561503e565b6080604086015261557060c086018284615082565b915050615580602086018661503e565b603f1980878503016060880152615598848385615082565b93506155a7604089018961503e565b8886039092016080890152818552939092505f91506020015b828210156155f05783356155d381613e54565b6001600160a01b03168152928401926001919091019084016155c0565b6155fc60608901613e80565b80151560a0890152945098975050505050505050565b5f60208284031215615622575f80fd5b815161101981613e73565b634e487b7160e01b5f52601160045260245ffd5b600181815b8085111561567b57815f19048211156156615761566161562d565b8085161561566e57918102915b93841c9390800290615646565b509250929050565b5f8261569157506001610c20565b8161569d57505f610c20565b81600181146156b357600281146156bd576156d9565b6001915050610c20565b60ff8411156156ce576156ce61562d565b50506001821b610c20565b5060208310610133831016604e8410600b84101617156156fc575081810a610c20565b6157068383615641565b805f19048211156157195761571961562d565b029392505050565b5f6110198383615683565b8082028115828204841417610c2057610c2061562d565b5f60208284031215615753575f80fd5b815160ff81168114611019575f80fd5b5f61101960ff841683615683565b634e487b7160e01b5f52603260045260245ffd5b5f808335601e1984360301811261579a575f80fd5b8301803591506001600160401b038211156157b3575f80fd5b602001915036819003821315613a8a575f80fd5b5f82516157d88184602087016145c5565b9190910192915050565b81810381811115610c2057610c2061562d565b80820180821115610c2057610c2061562d565b5f8261582257634e487b7160e01b5f52601260045260245ffd5b50049056fe360894a13ba1a3210667c828492db98dca3e2076cc3735a920a3ca505d382bbc02dd7bc7dec4dceedda775e58dd541e08a116c6c53815c0bd028192f7b626800cd5ed15c6e187e77e9aee88184c21f4f2182ab5827cb3b7e07fbedcd63f033009b779b17422d0df92223018b32b4d1fa46e071723d6817e2486d003becc55f00a2646970667358221220fbe19fdfcdab445fba6d0cf587abc63f1ad908a0082ff87266537f7314d2f6e264736f6c63430008170033",
    "linkReferences": {
      "src/market/libraries/LoanLibrary.sol": {
        "LoanLibrary": [
          {
            "start": 8476,
            "length": 20
          },
          {
            "start": 10256,
            "length": 20
          }
        ]
      },
      "src/market/libraries/OfferLibrary.sol": {
        "OfferLibrary": [
          {
            "start": 4982,
            "length": 20
          },
          {
            "start": 8157,
            "length": 20
          }
        ]
      },
      "src/market/libraries/RiskLibrary.sol": {
        "RiskLibrary": [
          {
            "start": 5614,
            "length": 20
          },
          {
            "start": 5730,
            "length": 20
          },
          {
            "start": 6071,
            "length": 20
          },
          {
            "start": 9551,
            "length": 20
          },
          {
            "start": 10449,
            "length": 20
          }
        ]
      },
      "src/market/libraries/actions/BuyCreditLimit.sol": {
        "BuyCreditLimit": [
          {
            "start": 9705,
            "length": 20
          },
          {
            "start": 9804,
            "length": 20
          }
        ]
      },
      "src/market/libraries/actions/BuyCreditMarket.sol": {
        "BuyCreditMarket": [
          {
            "start": 3389,
            "length": 20
          },
          {
            "start": 9309,
            "length": 20
          },
          {
            "start": 9408,
            "length": 20
          }
        ]
      },
      "src/market/libraries/actions/Claim.sol": {
        "Claim": [
          {
            "start": 11319,
            "length": 20
          },
          {
            "start": 11418,
            "length": 20
          }
        ]
      },
      "src/market/libraries/actions/Compensate.sol": {
        "Compensate": [
          {
            "start": 5840,
            "length": 20
          },
          {
            "start": 5939,
            "length": 20
          }
        ]
      },
      "src/market/libraries/actions/Deposit.sol": {
        "Deposit": [
          {
            "start": 11659,
            "length": 20
          },
          {
            "start": 11758,
            "length": 20
          }
        ]
      },
      "src/market/libraries/actions/Initialize.sol": {
        "Initialize": [
          {
            "start": 7725,
            "length": 20
          },
          {
            "start": 7866,
            "length": 20
          }
        ]
      },
      "src/market/libraries/actions/Liquidate.sol": {
        "Liquidate": [
          {
            "start": 10889,
            "length": 20
          },
          {
            "start": 10988,
            "length": 20
          },
          {
            "start": 11113,
            "length": 20
          }
        ]
      },
      "src/market/libraries/actions/MarketShutdown.sol": {
        "MarketShutdown": [
          {
            "start": 11918,
            "length": 20
          }
        ]
      },
      "src/market/libraries/actions/PartialRepay.sol": {
        "PartialRepay": [
          {
            "start": 3526,
            "length": 20
          },
          {
            "start": 3625,
            "length": 20
          }
        ]
      },
      "src/market/libraries/actions/Repay.sol": {
        "Repay": [
          {
            "start": 9136,
            "length": 20
          },
          {
            "start": 9234,
            "length": 20
          }
        ]
      },
      "src/market/libraries/actions/SelfLiquidate.sol": {
        "SelfLiquidate": [
          {
            "start": 6523,
            "length": 20
          },
          {
            "start": 6657,
            "length": 20
          }
        ]
      },
      "src/market/libraries/actions/SellCreditLimit.sol": {
        "SellCreditLimit": [
          {
            "start": 4600,
            "length": 20
          },
          {
            "start": 4699,
            "length": 20
          }
        ]
      },
      "src/market/libraries/actions/SellCreditMarket.sol": {
        "SellCreditMarket": [
          {
            "start": 5370,
            "length": 20
          },
          {
            "start": 5469,
            "length": 20
          },
          {
            "start": 10023,
            "length": 20
          }
        ]
      },
      "src/market/libraries/actions/SetCopyLimitOrderConfigs.sol": {
        "SetCopyLimitOrderConfigs": [
          {
            "start": 8669,
            "length": 20
          },
          {
            "start": 8768,
            "length": 20
          }
        ]
      },
      "src/market/libraries/actions/SetUserConfiguration.sol": {
        "SetUserConfiguration": [
          {
            "start": 4415,
            "length": 20
          },
          {
            "start": 4514,
            "length": 20
          }
        ]
      },
      "src/market/libraries/actions/SetVault.sol": {
        "SetVault": [
          {
            "start": 8270,
            "length": 20
          },
          {
            "start": 8404,
            "length": 20
          }
        ]
      },
      "src/market/libraries/actions/UpdateConfig.sol": {
        "UpdateConfig": [
          {
            "start": 3807,
            "length": 20
          },
          {
            "start": 4824,
            "length": 20
          },
          {
            "start": 8885,
            "length": 20
          },
          {
            "start": 9014,
            "length": 20
          }
        ]
      },
      "src/market/libraries/actions/Withdraw.sol": {
        "Withdraw": [
          {
            "start": 11485,
            "length": 20
          },
          {
            "start": 11584,
            "length": 20
          }
        ]
      }
    }
  },
  "methodIdentifiers": {
    "DEFAULT_ADMIN_ROLE()": "a217fddf",
    "UPGRADE_INTERFACE_VERSION()": "ad3cb1cc",
    "buyCreditLimit((uint256[],uint256[]))": "3745afe9",
    "buyCreditLimitOnBehalfOf(((uint256[],uint256[]),address))": "8ccad699",
    "buyCreditMarket((address,uint256,uint256,uint256,uint256,uint256,bool,uint256,address))": "e236052b",
    "buyCreditMarketOnBehalfOf(((address,uint256,uint256,uint256,uint256,uint256,bool,uint256,address),address,address))": "834dafb5",
    "claim((uint256))": "f45bf01c",
    "collateralRatio(address)": "ca40742c",
    "compensate((uint256,uint256,uint256))": "8e572776",
    "compensateOnBehalfOf(((uint256,uint256,uint256),address))": "3ae6d7c3",
    "data()": "73d4a13a",
    "debtTokenAmountToCollateralTokenAmount(uint256)": "1970e5ea",
    "deposit((address,uint256,address))": "0cf8542f",
    "depositOnBehalfOf(((address,uint256,address),address))": "fa823af5",
    "extSload(bytes32)": "aaaf97ab",
    "feeConfig()": "1e5eb1d0",
    "getBorrowOfferAPR(address,uint256,address,uint256)": "1ff75b0b",
    "getBuyCreditMarketSwapData((address,uint256,uint256,uint256,uint256,uint256,bool,uint256,address))": "02088c51",
    "getCreditPosition(uint256)": "76c1b82f",
    "getDebtPosition(uint256)": "b5ec7487",
    "getLoanOfferAPR(address,uint256,address,uint256)": "73b683be",
    "getRoleAdmin(bytes32)": "248a9ca3",
    "getSellCreditMarketSwapData((address,uint256,uint256,uint256,uint256,uint256,bool,uint256,address))": "9ab80115",
    "getUserDefinedBorrowOfferAPR(address,uint256)": "2b59bd99",
    "getUserDefinedCopyLimitOrderConfigs(address)": "d7de575e",
    "getUserDefinedLoanOfferAPR(address,uint256)": "0d37ab00",
    "getUserView(address)": "5cbc51eb",
    "grantRole(bytes32,address)": "2f2ff15d",
    "hasRole(bytes32,address)": "91d14854",
    "initialize(address,(uint256,uint256,uint256,uint256,uint256,address),(uint256,uint256,uint256,uint256,uint256,uint256[]),(address),(address,address,address,address,address,address))": "65e33f7d",
    "isUserDefinedLimitOrdersNull(address)": "06be2e49",
    "liquidate((uint256,uint256,uint256))": "e05001f5",
    "marketShutdown((uint256[],uint256[],address[],bool))": "fd316f0b",
    "multicall(bytes[])": "ac9650d8",
    "oracle()": "7dc0d1d0",
    "partialRepay((uint256,uint256,address))": "02f2855a",
    "pause()": "8456cb59",
    "paused()": "5c975abb",
    "proxiableUUID()": "52d1902d",
    "renounceRole(bytes32,address)": "36568abe",
    "repay((uint256,address))": "7f417c06",
    "revokeRole(bytes32,address)": "d547741f",
    "riskConfig()": "7c90a6ca",
    "selfLiquidate((uint256))": "fd17174a",
    "selfLiquidateOnBehalfOf(((uint256),address,address))": "536b9c79",
    "sellCreditLimit((uint256[],uint256[]))": "accb807a",
    "sellCreditLimitOnBehalfOf(((uint256[],uint256[]),address))": "1df0b63b",
    "sellCreditMarket((address,uint256,uint256,uint256,uint256,uint256,bool,uint256,address))": "8ea68d7e",
    "sellCreditMarketOnBehalfOf(((address,uint256,uint256,uint256,uint256,uint256,bool,uint256,address),address,address))": "3962a686",
    "setCopyLimitOrderConfigs(((uint256,uint256,uint256,uint256,int256),(uint256,uint256,uint256,uint256,int256)))": "cb2e9bdc",
    "setCopyLimitOrderConfigsOnBehalfOf((((uint256,uint256,uint256,uint256,int256),(uint256,uint256,uint256,uint256,int256)),address))": "7a32376a",
    "setUserConfiguration((uint256,bool,bool,uint256[]))": "2e106f21",
    "setUserConfigurationOnBehalfOf(((uint256,bool,bool,uint256[]),address))": "134f3f96",
    "setVault((address,bool))": "510aeb39",
    "setVaultOnBehalfOf(((address,bool),address))": "75829a36",
    "supportsInterface(bytes4)": "01ffc9a7",
    "unpause()": "3f4ba83a",
    "updateConfig((string,uint256))": "0317b9df",
    "upgradeToAndCall(address,bytes)": "4f1ef286",
    "version()": "54fd4d50",
    "withdraw((address,uint256,address))": "2b4c9a20",
    "withdrawOnBehalfOf(((address,uint256,address),address))": "f54ae18b"
  },
  "id": 208
}