{"abi":[{"type":"constructor","inputs":[],"stateMutability":"nonpayable"},{"type":"function","name":"DEFAULT_ADMIN_ROLE","inputs":[],"outputs":[{"name":"","type":"bytes32","internalType":"bytes32"}],"stateMutability":"view"},{"type":"function","name":"UPGRADE_INTERFACE_VERSION","inputs":[],"outputs":[{"name":"","type":"string","internalType":"string"}],"stateMutability":"view"},{"type":"function","name":"authorizationNonces","inputs":[{"name":"onBehalfOf","type":"address","internalType":"address"}],"outputs":[{"name":"nonce","type":"uint256","internalType":"uint256"}],"stateMutability":"view"},{"type":"function","name":"authorizations","inputs":[{"name":"nonce","type":"uint256","internalType":"uint256"},{"name":"operator","type":"address","internalType":"address"},{"name":"onBehalfOf","type":"address","internalType":"address"}],"outputs":[{"name":"authorizedActionsBitmap","type":"uint256","internalType":"ActionsBitmap"}],"stateMutability":"view"},{"type":"function","name":"callMarket","inputs":[{"name":"market","type":"address","internalType":"contract ISize"},{"name":"data","type":"bytes","internalType":"bytes"}],"outputs":[{"name":"result","type":"bytes","internalType":"bytes"}],"stateMutability":"nonpayable"},{"type":"function","name":"collectionsManager","inputs":[],"outputs":[{"name":"","type":"address","internalType":"contract ICollectionsManager"}],"stateMutability":"view"},{"type":"function","name":"createBorrowTokenVault","inputs":[{"name":"variablePool","type":"address","internalType":"contract IPool"},{"name":"underlyingBorrowToken","type":"address","internalType":"contract IERC20Metadata"}],"outputs":[{"name":"borrowTokenVault","type":"address","internalType":"contract NonTransferrableRebasingTokenVault"}],"stateMutability":"nonpayable"},{"type":"function","name":"createMarket","inputs":[{"name":"feeConfigParams","type":"tuple","internalType":"struct InitializeFeeConfigParams","components":[{"name":"swapFeeAPR","type":"uint256","internalType":"uint256"},{"name":"fragmentationFee","type":"uint256","internalType":"uint256"},{"name":"liquidationRewardPercent","type":"uint256","internalType":"uint256"},{"name":"overdueCollateralProtocolPercent","type":"uint256","internalType":"uint256"},{"name":"collateralProtocolPercent","type":"uint256","internalType":"uint256"},{"name":"feeRecipient","type":"address","internalType":"address"}]},{"name":"riskConfigParams","type":"tuple","internalType":"struct InitializeRiskConfigParams","components":[{"name":"crOpening","type":"uint256","internalType":"uint256"},{"name":"crLiquidation","type":"uint256","internalType":"uint256"},{"name":"minimumCreditBorrowToken","type":"uint256","internalType":"uint256"},{"name":"minTenor","type":"uint256","internalType":"uint256"},{"name":"maxTenor","type":"uint256","internalType":"uint256"},{"name":"maturities","type":"uint256[]","internalType":"uint256[]"}]},{"name":"oracleParams","type":"tuple","internalType":"struct InitializeOracleParams","components":[{"name":"priceFeed","type":"address","internalType":"address"}]},{"name":"dataParams","type":"tuple","internalType":"struct InitializeDataParams","components":[{"name":"weth","type":"address","internalType":"address"},{"name":"underlyingCollateralToken","type":"address","internalType":"address"},{"name":"underlyingBorrowToken","type":"address","internalType":"address"},{"name":"variablePool","type":"address","internalType":"address"},{"name":"borrowTokenVault","type":"address","internalType":"address"},{"name":"sizeFactory","type":"address","internalType":"address"}]}],"outputs":[{"name":"market","type":"address","internalType":"contract ISize"}],"stateMutability":"nonpayable"},{"type":"function","name":"createPriceFeed","inputs":[{"name":"_priceFeedParams","type":"tuple","internalType":"struct PriceFeedParams","components":[{"name":"uniswapV3Pool","type":"address","internalType":"contract IUniswapV3Pool"},{"name":"twapWindow","type":"uint32","internalType":"uint32"},{"name":"averageBlockTime","type":"uint32","internalType":"uint32"},{"name":"baseToken","type":"address","internalType":"contract IERC20Metadata"},{"name":"quoteToken","type":"address","internalType":"contract IERC20Metadata"},{"name":"baseAggregator","type":"address","internalType":"contract AggregatorV3Interface"},{"name":"quoteAggregator","type":"address","internalType":"contract AggregatorV3Interface"},{"name":"baseStalePriceInterval","type":"uint256","internalType":"uint256"},{"name":"quoteStalePriceInterval","type":"uint256","internalType":"uint256"},{"name":"sequencerUptimeFeed","type":"address","internalType":"contract AggregatorV3Interface"}]}],"outputs":[{"name":"priceFeed","type":"address","internalType":"contract PriceFeed"}],"stateMutability":"nonpayable"},{"type":"function","name":"getBorrowOfferAPR","inputs":[{"name":"user","type":"address","internalType":"address"},{"name":"collectionId","type":"uint256","internalType":"uint256"},{"name":"market","type":"address","internalType":"contract ISize"},{"name":"rateProvider","type":"address","internalType":"address"},{"name":"maturity","type":"uint256","internalType":"uint256"}],"outputs":[{"name":"","type":"uint256","internalType":"uint256"}],"stateMutability":"view"},{"type":"function","name":"getLoanOfferAPR","inputs":[{"name":"user","type":"address","internalType":"address"},{"name":"collectionId","type":"uint256","internalType":"uint256"},{"name":"market","type":"address","internalType":"contract ISize"},{"name":"rateProvider","type":"address","internalType":"address"},{"name":"maturity","type":"uint256","internalType":"uint256"}],"outputs":[{"name":"","type":"uint256","internalType":"uint256"}],"stateMutability":"view"},{"type":"function","name":"getMarket","inputs":[{"name":"index","type":"uint256","internalType":"uint256"}],"outputs":[{"name":"","type":"address","internalType":"contract ISize"}],"stateMutability":"view"},{"type":"function","name":"getMarketDescriptions","inputs":[],"outputs":[{"name":"descriptions","type":"string[]","internalType":"string[]"}],"stateMutability":"view"},{"type":"function","name":"getMarkets","inputs":[],"outputs":[{"name":"_markets","type":"address[]","internalType":"contract ISize[]"}],"stateMutability":"view"},{"type":"function","name":"getMarketsCount","inputs":[],"outputs":[{"name":"","type":"uint256","internalType":"uint256"}],"stateMutability":"view"},{"type":"function","name":"getRoleAdmin","inputs":[{"name":"role","type":"bytes32","internalType":"bytes32"}],"outputs":[{"name":"","type":"bytes32","internalType":"bytes32"}],"stateMutability":"view"},{"type":"function","name":"grantRole","inputs":[{"name":"role","type":"bytes32","internalType":"bytes32"},{"name":"account","type":"address","internalType":"address"}],"outputs":[],"stateMutability":"nonpayable"},{"type":"function","name":"hasRole","inputs":[{"name":"role","type":"bytes32","internalType":"bytes32"},{"name":"account","type":"address","internalType":"address"}],"outputs":[{"name":"","type":"bool","internalType":"bool"}],"stateMutability":"view"},{"type":"function","name":"initialize","inputs":[{"name":"_owner","type":"address","internalType":"address"}],"outputs":[],"stateMutability":"nonpayable"},{"type":"function","name":"isAuthorized","inputs":[{"name":"operator","type":"address","internalType":"address"},{"name":"onBehalfOf","type":"address","internalType":"address"},{"name":"action","type":"uint8","internalType":"enum Action"}],"outputs":[{"name":"","type":"bool","internalType":"bool"}],"stateMutability":"view"},{"type":"function","name":"isAuthorizedAll","inputs":[{"name":"operator","type":"address","internalType":"address"},{"name":"onBehalfOf","type":"address","internalType":"address"},{"name":"actionsBitmap","type":"uint256","internalType":"ActionsBitmap"}],"outputs":[{"name":"","type":"bool","internalType":"bool"}],"stateMutability":"view"},{"type":"function","name":"isBorrowAPRLowerThanLoanOfferAPRs","inputs":[{"name":"user","type":"address","internalType":"address"},{"name":"borrowAPR","type":"uint256","internalType":"uint256"},{"name":"market","type":"address","internalType":"contract ISize"},{"name":"maturity","type":"uint256","internalType":"uint256"}],"outputs":[{"name":"","type":"bool","internalType":"bool"}],"stateMutability":"view"},{"type":"function","name":"isLoanAPRGreaterThanBorrowOfferAPRs","inputs":[{"name":"user","type":"address","internalType":"address"},{"name":"loanAPR","type":"uint256","internalType":"uint256"},{"name":"market","type":"address","internalType":"contract ISize"},{"name":"maturity","type":"uint256","internalType":"uint256"}],"outputs":[{"name":"","type":"bool","internalType":"bool"}],"stateMutability":"view"},{"type":"function","name":"isMarket","inputs":[{"name":"candidate","type":"address","internalType":"address"}],"outputs":[{"name":"","type":"bool","internalType":"bool"}],"stateMutability":"view"},{"type":"function","name":"multicall","inputs":[{"name":"data","type":"bytes[]","internalType":"bytes[]"}],"outputs":[{"name":"results","type":"bytes[]","internalType":"bytes[]"}],"stateMutability":"nonpayable"},{"type":"function","name":"nonTransferrableTokenVaultImplementation","inputs":[],"outputs":[{"name":"","type":"address","internalType":"address"}],"stateMutability":"view"},{"type":"function","name":"proxiableUUID","inputs":[],"outputs":[{"name":"","type":"bytes32","internalType":"bytes32"}],"stateMutability":"view"},{"type":"function","name":"removeMarket","inputs":[{"name":"market","type":"address","internalType":"address"}],"outputs":[],"stateMutability":"nonpayable"},{"type":"function","name":"renounceRole","inputs":[{"name":"role","type":"bytes32","internalType":"bytes32"},{"name":"callerConfirmation","type":"address","internalType":"address"}],"outputs":[],"stateMutability":"nonpayable"},{"type":"function","name":"revokeAllAuthorizations","inputs":[],"outputs":[],"stateMutability":"nonpayable"},{"type":"function","name":"revokeRole","inputs":[{"name":"role","type":"bytes32","internalType":"bytes32"},{"name":"account","type":"address","internalType":"address"}],"outputs":[],"stateMutability":"nonpayable"},{"type":"function","name":"setAuthorization","inputs":[{"name":"operator","type":"address","internalType":"address"},{"name":"actionsBitmap","type":"uint256","internalType":"ActionsBitmap"}],"outputs":[],"stateMutability":"nonpayable"},{"type":"function","name":"setCollectionsManager","inputs":[{"name":"_collectionsManager","type":"address","internalType":"contract ICollectionsManager"}],"outputs":[],"stateMutability":"nonpayable"},{"type":"function","name":"setNonTransferrableRebasingTokenVaultImplementation","inputs":[{"name":"_nonTransferrableTokenVaultImplementation","type":"address","internalType":"address"}],"outputs":[],"stateMutability":"nonpayable"},{"type":"function","name":"setSizeImplementation","inputs":[{"name":"_sizeImplementation","type":"address","internalType":"address"}],"outputs":[],"stateMutability":"nonpayable"},{"type":"function","name":"setUserCollectionCopyLimitOrderConfigs","inputs":[{"name":"collectionId","type":"uint256","internalType":"uint256"},{"name":"copyLoanOfferConfig","type":"tuple","internalType":"struct CopyLimitOrderConfig","components":[{"name":"minTenor","type":"uint256","internalType":"uint256"},{"name":"maxTenor","type":"uint256","internalType":"uint256"},{"name":"minAPR","type":"uint256","internalType":"uint256"},{"name":"maxAPR","type":"uint256","internalType":"uint256"},{"name":"offsetAPR","type":"int256","internalType":"int256"}]},{"name":"copyBorrowOfferConfig","type":"tuple","internalType":"struct CopyLimitOrderConfig","components":[{"name":"minTenor","type":"uint256","internalType":"uint256"},{"name":"maxTenor","type":"uint256","internalType":"uint256"},{"name":"minAPR","type":"uint256","internalType":"uint256"},{"name":"maxAPR","type":"uint256","internalType":"uint256"},{"name":"offsetAPR","type":"int256","internalType":"int256"}]}],"outputs":[],"stateMutability":"nonpayable"},{"type":"function","name":"setUserCollectionCopyLimitOrderConfigsOnBehalfOf","inputs":[{"name":"collectionId","type":"uint256","internalType":"uint256"},{"name":"copyLoanOfferConfig","type":"tuple","internalType":"struct CopyLimitOrderConfig","components":[{"name":"minTenor","type":"uint256","internalType":"uint256"},{"name":"maxTenor","type":"uint256","internalType":"uint256"},{"name":"minAPR","type":"uint256","internalType":"uint256"},{"name":"maxAPR","type":"uint256","internalType":"uint256"},{"name":"offsetAPR","type":"int256","internalType":"int256"}]},{"name":"copyBorrowOfferConfig","type":"tuple","internalType":"struct CopyLimitOrderConfig","components":[{"name":"minTenor","type":"uint256","internalType":"uint256"},{"name":"maxTenor","type":"uint256","internalType":"uint256"},{"name":"minAPR","type":"uint256","internalType":"uint256"},{"name":"maxAPR","type":"uint256","internalType":"uint256"},{"name":"offsetAPR","type":"int256","internalType":"int256"}]},{"name":"onBehalfOf","type":"address","internalType":"address"}],"outputs":[],"stateMutability":"nonpayable"},{"type":"function","name":"sizeImplementation","inputs":[],"outputs":[{"name":"","type":"address","internalType":"address"}],"stateMutability":"view"},{"type":"function","name":"subscribeToCollections","inputs":[{"name":"collectionIds","type":"uint256[]","internalType":"uint256[]"}],"outputs":[],"stateMutability":"nonpayable"},{"type":"function","name":"subscribeToCollectionsOnBehalfOf","inputs":[{"name":"collectionIds","type":"uint256[]","internalType":"uint256[]"},{"name":"onBehalfOf","type":"address","internalType":"address"}],"outputs":[],"stateMutability":"nonpayable"},{"type":"function","name":"supportsInterface","inputs":[{"name":"interfaceId","type":"bytes4","internalType":"bytes4"}],"outputs":[{"name":"","type":"bool","internalType":"bool"}],"stateMutability":"view"},{"type":"function","name":"unsubscribeFromCollections","inputs":[{"name":"collectionIds","type":"uint256[]","internalType":"uint256[]"}],"outputs":[],"stateMutability":"nonpayable"},{"type":"function","name":"unsubscribeFromCollectionsOnBehalfOf","inputs":[{"name":"collectionIds","type":"uint256[]","internalType":"uint256[]"},{"name":"onBehalfOf","type":"address","internalType":"address"}],"outputs":[],"stateMutability":"nonpayable"},{"type":"function","name":"upgradeToAndCall","inputs":[{"name":"newImplementation","type":"address","internalType":"address"},{"name":"data","type":"bytes","internalType":"bytes"}],"outputs":[],"stateMutability":"payable"},{"type":"function","name":"version","inputs":[],"outputs":[{"name":"","type":"string","internalType":"string"}],"stateMutability":"pure"},{"type":"event","name":"CollectionsManagerSet","inputs":[{"name":"oldCollectionsManager","type":"address","indexed":true,"internalType":"address"},{"name":"newCollectionsManager","type":"address","indexed":true,"internalType":"address"}],"anonymous":false},{"type":"event","name":"CreateBorrowTokenVault","inputs":[{"name":"borrowTokenVault","type":"address","indexed":true,"internalType":"address"}],"anonymous":false},{"type":"event","name":"CreateMarket","inputs":[{"name":"market","type":"address","indexed":true,"internalType":"address"}],"anonymous":false},{"type":"event","name":"CreatePriceFeed","inputs":[{"name":"priceFeed","type":"address","indexed":true,"internalType":"address"}],"anonymous":false},{"type":"event","name":"Initialized","inputs":[{"name":"version","type":"uint64","indexed":false,"internalType":"uint64"}],"anonymous":false},{"type":"event","name":"NonTransferrableRebasingTokenVaultImplementationSet","inputs":[{"name":"oldNonTransferrableRebasingTokenVaultImplementation","type":"address","indexed":true,"internalType":"address"},{"name":"newNonTransferrableRebasingTokenVaultImplementation","type":"address","indexed":true,"internalType":"address"}],"anonymous":false},{"type":"event","name":"RemoveMarket","inputs":[{"name":"market","type":"address","indexed":true,"internalType":"address"}],"anonymous":false},{"type":"event","name":"RevokeAllAuthorizations","inputs":[{"name":"sender","type":"address","indexed":true,"internalType":"address"}],"anonymous":false},{"type":"event","name":"RoleAdminChanged","inputs":[{"name":"role","type":"bytes32","indexed":true,"internalType":"bytes32"},{"name":"previousAdminRole","type":"bytes32","indexed":true,"internalType":"bytes32"},{"name":"newAdminRole","type":"bytes32","indexed":true,"internalType":"bytes32"}],"anonymous":false},{"type":"event","name":"RoleGranted","inputs":[{"name":"role","type":"bytes32","indexed":true,"internalType":"bytes32"},{"name":"account","type":"address","indexed":true,"internalType":"address"},{"name":"sender","type":"address","indexed":true,"internalType":"address"}],"anonymous":false},{"type":"event","name":"RoleRevoked","inputs":[{"name":"role","type":"bytes32","indexed":true,"internalType":"bytes32"},{"name":"account","type":"address","indexed":true,"internalType":"address"},{"name":"sender","type":"address","indexed":true,"internalType":"address"}],"anonymous":false},{"type":"event","name":"SetAuthorization","inputs":[{"name":"sender","type":"address","indexed":true,"internalType":"address"},{"name":"operator","type":"address","indexed":true,"internalType":"address"},{"name":"actionsBitmap","type":"uint256","indexed":true,"internalType":"uint256"},{"name":"nonce","type":"uint256","indexed":false,"internalType":"uint256"}],"anonymous":false},{"type":"event","name":"SizeImplementationSet","inputs":[{"name":"oldSizeImplementation","type":"address","indexed":true,"internalType":"address"},{"name":"newSizeImplementation","type":"address","indexed":true,"internalType":"address"}],"anonymous":false},{"type":"event","name":"Upgraded","inputs":[{"name":"implementation","type":"address","indexed":true,"internalType":"address"}],"anonymous":false},{"type":"error","name":"AccessControlBadConfirmation","inputs":[]},{"type":"error","name":"AccessControlUnauthorizedAccount","inputs":[{"name":"account","type":"address","internalType":"address"},{"name":"neededRole","type":"bytes32","internalType":"bytes32"}]},{"type":"error","name":"AddressEmptyCode","inputs":[{"name":"target","type":"address","internalType":"address"}]},{"type":"error","name":"ERC1967InvalidImplementation","inputs":[{"name":"implementation","type":"address","internalType":"address"}]},{"type":"error","name":"ERC1967NonPayable","inputs":[]},{"type":"error","name":"FailedCall","inputs":[]},{"type":"error","name":"INVALID_ACTIONS_BITMAP","inputs":[{"name":"actionsBitmap","type":"uint256","internalType":"uint256"}]},{"type":"error","name":"INVALID_MARKET","inputs":[{"name":"market","type":"address","internalType":"address"}]},{"type":"error","name":"InsufficientBalance","inputs":[{"name":"balance","type":"uint256","internalType":"uint256"},{"name":"needed","type":"uint256","internalType":"uint256"}]},{"type":"error","name":"InvalidInitialization","inputs":[]},{"type":"error","name":"NULL_ADDRESS","inputs":[]},{"type":"error","name":"NotInitializing","inputs":[]},{"type":"error","name":"UNAUTHORIZED_ACTION","inputs":[{"name":"account","type":"address","internalType":"address"},{"name":"onBehalfOf","type":"address","internalType":"address"},{"name":"action","type":"uint8","internalType":"uint8"}]},{"type":"error","name":"UUPSUnauthorizedCallContext","inputs":[]},{"type":"error","name":"UUPSUnsupportedProxiableUUID","inputs":[{"name":"slot","type":"bytes32","internalType":"bytes32"}]}],"bytecode":{"object":"0x60a06040523060805234801562000014575f80fd5b506200001f62000025565b620000d9565b7ff0c57e16840df040f15088dc2f81fe391c3923bec73e23a9662efc9c229c6a00805468010000000000000000900460ff1615620000765760405163f92ee8a960e01b815260040160405180910390fd5b80546001600160401b0390811614620000d65780546001600160401b0319166001600160401b0390811782556040519081527fc7f505b2f371ae2175ee4913f4499e1f2633a7b5936321eed1cdaeb6115181d29060200160405180910390a15b50565b6080516134b5620001005f395f8181611a3e01528181611a670152611baa01526134b55ff3fe60806040526004361061026a575f3560e01c806386eeeb5a1161014a578063ad3cb1cc116100be578063d152e23611610078578063d152e2361461078c578063d547741f146107ab578063db913236146107ca578063e8d353c7146107e9578063eb44fdd314610808578063ec2c901614610827575f80fd5b8063ad3cb1cc146106c1578063b1ef804d146106f1578063b38dc25814610710578063b4cd6bd11461072f578063c4d66de81461074e578063c8fb62471461076d575f80fd5b80639e42bfa31161010f5780639e42bfa3146106115780639feffdb014610630578063a217fddf1461064f578063a78ec6ae14610662578063a7b2b31014610681578063ac9650d814610695575f80fd5b806386eeeb5a1461057657806388d765201461059557806391c769ce146105b457806391d14854146105d3578063973cf867146105f2575f80fd5b806352d1902d116101e15780636ec934da116101a65780636ec934da146104915780636ed41835146104b0578063732218f9146104cf5780637643d7ec146104ee5780637b8dedad1461050f57806381de274c1461054b575f80fd5b806352d1902d146103e957806354fd4d50146103fd5780635ec49544146104345780635fb7f10c14610453578063678b9bad14610472575f80fd5b806327fa35c31161023257806327fa35c3146103465780632f2ff15d1461035a57806336568abe1461037957806337c11b2a14610398578063495e6d89146103b75780634f1ef286146103d6575f80fd5b806301a6c8721461026e57806301ffc9a71461028f5780631286a2dc146102c35780631e4fcddb146102fa578063248a9ca314610319575b5f80fd5b348015610279575f80fd5b5061028d61028836600461236e565b610848565b005b34801561029a575f80fd5b506102ae6102a9366004612389565b6108ae565b60405190151581526020015b60405180910390f35b3480156102ce575f80fd5b506007546102e2906001600160a01b031681565b6040516001600160a01b0390911681526020016102ba565b348015610305575f80fd5b5061028d61031436600461236e565b6108e4565b348015610324575f80fd5b506103386103333660046123c0565b610971565b6040519081526020016102ba565b348015610351575f80fd5b50610338610991565b348015610365575f80fd5b5061028d6103743660046123d7565b6109a0565b348015610384575f80fd5b5061028d6103933660046123d7565b6109c2565b3480156103a3575f80fd5b50600a546102e2906001600160a01b031681565b3480156103c2575f80fd5b506103386103d1366004612405565b6109fa565b61028d6103e4366004612511565b610a91565b3480156103f4575f80fd5b50610338610ab0565b348015610408575f80fd5b506040805180820190915260068152651d8c4b8e0b8d60d21b60208201525b6040516102ba91906125ea565b34801561043f575f80fd5b5061042761044e3660046125fc565b610acb565b34801561045e575f80fd5b5061033861046d366004612405565b610b4a565b34801561047d575f80fd5b506102ae61048c366004612679565b610b9a565b34801561049c575f80fd5b506102ae6104ab36600461236e565b610c1d565b3480156104bb575f80fd5b5061028d6104ca36600461272b565b610c28565b3480156104da575f80fd5b5061028d6104e93660046127f0565b610c34565b3480156104f9575f80fd5b50610502610ce2565b6040516102ba9190612833565b34801561051a575f80fd5b50610338610529366004612895565b600860209081525f938452604080852082529284528284209052825290205481565b348015610556575f80fd5b5061033861056536600461236e565b60096020525f908152604090205481565b348015610581575f80fd5b506102ae6105903660046128d4565b611012565b3480156105a0575f80fd5b5061028d6105af366004612914565b611082565b3480156105bf575f80fd5b5061028d6105ce366004612964565b611104565b3480156105de575f80fd5b506102ae6105ed3660046123d7565b61110f565b3480156105fd575f80fd5b506006546102e2906001600160a01b031681565b34801561061c575f80fd5b5061028d61062b36600461298e565b611145565b34801561063b575f80fd5b506102ae61064a366004612679565b611152565b34801561065a575f80fd5b506103385f81565b34801561066d575f80fd5b506102ae61067c3660046129bf565b61119a565b34801561068c575f80fd5b5061028d6111ff565b3480156106a0575f80fd5b506106b46106af3660046129fd565b61124a565b6040516102ba9190612a6b565b3480156106cc575f80fd5b50610427604051806040016040528060058152602001640352e302e360dc1b81525081565b3480156106fc575f80fd5b5061028d61070b3660046127f0565b61132f565b34801561071b575f80fd5b506102e261072a366004612ad6565b61137a565b34801561073a575f80fd5b5061028d61074936600461236e565b61145e565b348015610759575f80fd5b5061028d61076836600461236e565b6114eb565b348015610778575f80fd5b5061028d61078736600461298e565b611626565b348015610797575f80fd5b506102e26107a6366004612b62565b611630565b3480156107b6575f80fd5b5061028d6107c53660046123d7565b6116ed565b3480156107d5575f80fd5b5061028d6107e436600461236e565b611709565b3480156107f4575f80fd5b506102e2610803366004612c1b565b611787565b348015610813575f80fd5b506102e26108223660046123c0565b611866565b348015610832575f80fd5b5061083b611871565b6040516102ba9190612c47565b5f61085281611906565b600a546040516001600160a01b038085169216907f24b8a2b6435960c7b1b405f08e684a0ed2e4d467b56f325250b56e2a10dbabae905f90a350600a80546001600160a01b0319166001600160a01b0392909216919091179055565b5f6001600160e01b03198216637965db0b60e01b14806108de57506301ffc9a760e01b6001600160e01b03198316145b92915050565b5f6108ee81611906565b6001600160a01b0382166109155760405163de0ce17d60e01b815260040160405180910390fd5b6007546040516001600160a01b038085169216907faefd875bf3940c57f185da0affbb82ce03656890d6e1d29310e8b4bf9d20b7c1905f90a350600780546001600160a01b0319166001600160a01b0392909216919091179055565b5f9081525f80516020613460833981519152602052604090206001015490565b5f61099b5f611910565b905090565b6109a982610971565b6109b281611906565b6109bc8383611919565b50505050565b6001600160a01b03811633146109eb5760405163334bd91960e11b815260040160405180910390fd5b6109f582826119ba565b505050565b600a5460405163495e6d8960e01b81526001600160a01b0387811660048301526024820187905285811660448301528481166064830152608482018490525f92169063495e6d899060a4015b602060405180830381865afa158015610a61573d5f803e3d5ffd5b505050506040513d601f19601f82011682018060405250810190610a859190612c93565b90505b95945050505050565b610a99611a33565b610aa282611ad9565b610aac8282611ae3565b5050565b5f610ab9611b9f565b505f8051602061344083398151915290565b6060610ad684610c1d565b610b035760405163e2a7bea360e01b81526001600160a01b03851660048201526024015b60405180910390fd5b610b428484848080601f0160208091040260200160405190810160405280939291908181526020018383808284375f92019190915250611be892505050565b949350505050565b600a546040516317edfc4360e21b81526001600160a01b0387811660048301526024820187905285811660448301528481166064830152608482018490525f921690635fb7f10c9060a401610a46565b600a5460405163678b9bad60e01b81526001600160a01b038681166004830152602482018690528481166044830152606482018490525f92169063678b9bad906084015b602060405180830381865afa158015610bf9573d5f803e3d5ffd5b505050506040513d601f19601f82011682018060405250810190610a889190612caa565b5f6108de8183611bf5565b6109f583838333611082565b610c403382600b611012565b610c7f573381600b5b60405163062709f360e41b81526001600160a01b03938416600482015292909116602483015260ff166044820152606401610afa565b600a546040516301bc3d7160e71b81526001600160a01b039091169063de1eb88090610cb19084908690600401612cdd565b5f604051808303815f87803b158015610cc8575f80fd5b505af1158015610cda573d5f803e3d5ffd5b505050505050565b6060610ced5f611910565b6001600160401b03811115610d0457610d0461245c565b604051908082528060200260200182016040528015610d3757816020015b6060815260200190600190039081610d225790505b5090505f5b815181101561100e575f610d508183611c16565b90505f610dcc6064836001600160a01b0316637c90a6ca6040518163ffffffff1660e01b81526004015f60405180830381865afa158015610d93573d5f803e3d5ffd5b505050506040513d5f823e601f3d908101601f19168201604052610dba9190810190612d32565b60200151670de0b6b3a7640000611c21565b9050816001600160a01b03166373d4a13a6040518163ffffffff1660e01b815260040161010060405180830381865afa158015610e0b573d5f803e3d5ffd5b505050506040513d601f19601f82011682018060405250810190610e2f9190612e2a565b604001516001600160a01b03166395d89b416040518163ffffffff1660e01b81526004015f60405180830381865afa158015610e6d573d5f803e3d5ffd5b505050506040513d5f823e601f3d908101601f19168201604052610e949190810190612ee3565b826001600160a01b03166373d4a13a6040518163ffffffff1660e01b815260040161010060405180830381865afa158015610ed1573d5f803e3d5ffd5b505050506040513d601f19601f82011682018060405250810190610ef59190612e2a565b606001516001600160a01b03166395d89b416040518163ffffffff1660e01b81526004015f60405180830381865afa158015610f33573d5f803e3d5ffd5b505050506040513d5f823e601f3d908101601f19168201604052610f5a9190810190612ee3565b610f6383611c2d565b846001600160a01b03166354fd4d506040518163ffffffff1660e01b81526004015f60405180830381865afa158015610f9e573d5f803e3d5ffd5b505050506040513d5f823e601f3d908101601f19168201604052610fc59190810190612ee3565b604051602001610fd89493929190612f4b565b604051602081830303815290604052848481518110610ff957610ff9612fd7565b60209081029190910101525050600101610d3c565b5090565b5f826001600160a01b0316846001600160a01b0316036110345750600161107b565b6001600160a01b038084165f8181526009602090815260408083205480845260088352818420958a16845294825280832093835292905220546110779084611cbc565b9150505b9392505050565b61108e3382600b611012565b61109b573381600b610c49565b600a546040516318d5932d60e01b81526001600160a01b03909116906318d5932d906110d1908490889088908890600401612feb565b5f604051808303815f87803b1580156110e8575f80fd5b505af11580156110fa573d5f803e3d5ffd5b5050505050505050565b610aac823383611cde565b5f9182525f80516020613460833981519152602090815260408084206001600160a01b0393909316845291905290205460ff1690565b61114f8133610c34565b50565b600a546040516309feffdb60e41b81526001600160a01b038681166004830152602482018690528481166044830152606482018490525f921690639feffdb090608401610bde565b5f826001600160a01b0316846001600160a01b0316036111bc5750600161107b565b506001600160a01b038281165f8181526009602090815260408083205483526008825280832094881683529381528382209282529190915220548116811461107b565b60405133907fecbee29490a7e5456f4e3aab0700477764e3f16dda5a21ea92f43f1cfcb15799905f90a2335f90815260096020526040812080549161124383613087565b9190505550565b604080515f815260208101909152606090826001600160401b038111156112735761127361245c565b6040519080825280602002602001820160405280156112a657816020015b60608152602001906001900390816112915790505b5091505f5b8381101561132757611302308686848181106112c9576112c9612fd7565b90506020028101906112db91906130b2565b856040516020016112ee939291906130fb565b604051602081830303815290604052611dc6565b83828151811061131457611314612fd7565b60209081029190910101526001016112ab565b505092915050565b61133b3382600b611012565b611348573381600b610c49565b600a546040516393c0d3f360e01b81526001600160a01b03909116906393c0d3f390610cb19084908690600401612cdd565b5f8061138581611906565b60065460405163d41bcfc560e01b8152339173__$74708c40afd3f014cbcff13274aefc3e53$__9163d41bcfc5916113d5916001600160a01b039091169085908c908c908c908c9060040161327f565b602060405180830381865af41580156113f0573d5f803e3d5ffd5b505050506040513d601f19601f820116820180604052508101906114149190613318565b92506114205f84611e2f565b506040516001600160a01b038416907ffa970ff5f178441bbe297db8d35a584c9bd6628b17b82d80dc8f5b80063102ca905f90a25050949350505050565b5f61146881611906565b6001600160a01b03821661148f5760405163de0ce17d60e01b815260040160405180910390fd5b6006546040516001600160a01b038085169216907ffb3d0b43c5121de915eeb8fa2fb4bb792b6b05d5d6f3df7630aac9d9e8697312905f90a350600680546001600160a01b0319166001600160a01b0392909216919091179055565b5f6114f4611e43565b805490915060ff600160401b82041615906001600160401b03165f8115801561151a5750825b90505f826001600160401b031660011480156115355750303b155b905081158015611543575080155b156115615760405163f92ee8a960e01b815260040160405180910390fd5b845467ffffffffffffffff19166001178555831561158b57845460ff60401b1916600160401b1785555b611593611e6b565b61159b611e6b565b6115a3611e6b565b6115ad5f87611919565b506115d87f65d7a28e3265b37a6474929f336521b332c1681b933f6cb9f3376673440d862a87611919565b508315610cda57845460ff60401b19168555604051600181527fc7f505b2f371ae2175ee4913f4499e1f2633a7b5936321eed1cdaeb6115181d29060200160405180910390a1505050505050565b61114f813361132f565b5f8061163b81611906565b60405163145b6cb960e11b815273__$8498e19059e8c9c59d07dfb635c44386c6$__906328b6d97290611672908690600401613333565b602060405180830381865af415801561168d573d5f803e3d5ffd5b505050506040513d601f19601f820116820180604052508101906116b19190613318565b6040519092506001600160a01b038316907f970cbcaabfe7c54976df22e530fb6ef3a9202796c410ae94972a9b109d5b2ca8905f90a250919050565b6116f682610971565b6116ff81611906565b6109bc83836119ba565b5f61171381611906565b61171d5f83611bf5565b6117455760405163e2a7bea360e01b81526001600160a01b0383166004820152602401610afa565b61174f5f83611e73565b506040516001600160a01b038316907fc14aef421d4ad67b24691f0e51a4706ba86588e0a70f137686bffee5e0b0b508905f90a25050565b5f8061179281611906565b6007546040516302a8408560e11b81526001600160a01b03918216600482015233602482018190528683166044830152918516606482015273__$c583a0fe7c050ce40cdddde89e71ac1899$__90630550810a90608401602060405180830381865af4158015611804573d5f803e3d5ffd5b505050506040513d601f19601f820116820180604052508101906118289190613318565b6040519093506001600160a01b038416907f798adeb18dd44bd81e89d3ab4aa52d11e6d22b3ab80b11da6844ec0eda2a0810905f90a2505092915050565b5f6108de8183611c16565b606061187c5f611910565b6001600160401b038111156118935761189361245c565b6040519080825280602002602001820160405280156118bc578160200160208202803683370190505b5090505f5b815181101561100e576118d45f82611c16565b8282815181106118e6576118e6612fd7565b6001600160a01b03909216602092830291909101909101526001016118c1565b61114f8133611e87565b5f6108de825490565b5f5f80516020613460833981519152611932848461110f565b6119b1575f848152602082815260408083206001600160a01b03871684529091529020805460ff191660011790556119673390565b6001600160a01b0316836001600160a01b0316857f2f8788117e7eff1d82e926ec794901d17c78024a50270940304540a733656f0d60405160405180910390a460019150506108de565b5f9150506108de565b5f5f805160206134608339815191526119d3848461110f565b156119b1575f848152602082815260408083206001600160a01b0387168085529252808320805460ff1916905551339287917ff6391f5c32d9c69d2a47ea670b442974b53935d1edc7fd64eb21e047a839171b9190a460019150506108de565b306001600160a01b037f0000000000000000000000000000000000000000000000000000000000000000161480611ab957507f00000000000000000000000000000000000000000000000000000000000000006001600160a01b0316611aad5f80516020613440833981519152546001600160a01b031690565b6001600160a01b031614155b15611ad75760405163703e46dd60e11b815260040160405180910390fd5b565b5f610aac81611906565b816001600160a01b03166352d1902d6040518163ffffffff1660e01b8152600401602060405180830381865afa925050508015611b3d575060408051601f3d908101601f19168201909252611b3a91810190612c93565b60015b611b6557604051634c9c8ce360e01b81526001600160a01b0383166004820152602401610afa565b5f805160206134408339815191528114611b9557604051632a87526960e21b815260048101829052602401610afa565b6109f58383611ec0565b306001600160a01b037f00000000000000000000000000000000000000000000000000000000000000001614611ad75760405163703e46dd60e11b815260040160405180910390fd5b606061107b83835f611f15565b6001600160a01b0381165f908152600183016020526040812054151561107b565b5f61107b8383611fb5565b5f610b42848484611fdb565b60605f611c3983611fff565b60010190505f816001600160401b03811115611c5757611c5761245c565b6040519080825280601f01601f191660200182016040528015611c81576020820181803683370190505b5090508181016020015b5f19016f181899199a1a9b1b9c1cb0b131b232b360811b600a86061a8153600a8504945084611c8b57509392505050565b5f81600c811115611ccf57611ccf612cc9565b6001901b831615159392505050565b6001600160a01b038316611d055760405163de0ce17d60e01b815260040160405180910390fd5b611d0e816120d6565b611d2e57604051632e40743360e01b815260048101829052602401610afa565b6001600160a01b0382165f9081526009602052604090205481846001600160a01b0316846001600160a01b03167f89733de2d64cea40de091169750607b26e8d46142312fba65fb6476c790bad4984604051611d8c91815260200190565b60405180910390a45f9081526008602090815260408083206001600160a01b03968716845282528083209490951682529290925291902055565b60605f80846001600160a01b031684604051611de29190613410565b5f60405180830381855af49150503d805f8114611e1a576040519150601f19603f3d011682016040523d82523d5f602084013e611e1f565b606091505b5091509150610a888583836120ef565b5f61107b836001600160a01b03841661214b565b5f807ff0c57e16840df040f15088dc2f81fe391c3923bec73e23a9662efc9c229c6a006108de565b611ad7612197565b5f61107b836001600160a01b0384166121bc565b611e91828261110f565b610aac5760405163e2517d3f60e01b81526001600160a01b038216600482015260248101839052604401610afa565b611ec982612296565b6040516001600160a01b038316907fbc7cd75a20ee27fd9adebab32041f755214dbc6bffa90cc0225b39da2e5c2d3b905f90a2805115611f0d576109f58282611dc6565b610aac6122f9565b606081471015611f415760405163cf47918160e01b815247600482015260248101839052604401610afa565b5f80856001600160a01b03168486604051611f5c9190613410565b5f6040518083038185875af1925050503d805f8114611f96576040519150601f19603f3d011682016040523d82523d5f602084013e611f9b565b606091505b5091509150611fab8683836120ef565b9695505050505050565b5f825f018281548110611fca57611fca612fd7565b905f5260205f200154905092915050565b5f825f190484118302158202611ff85763ad251c275f526004601cfd5b5091020490565b5f8072184f03e93ff9f4daa797ed6e38ed64bf6a1f0160401b831061203d5772184f03e93ff9f4daa797ed6e38ed64bf6a1f0160401b830492506040015b6d04ee2d6d415b85acef81000000008310612069576d04ee2d6d415b85acef8100000000830492506020015b662386f26fc10000831061208757662386f26fc10000830492506010015b6305f5e100831061209f576305f5e100830492506008015b61271083106120b357612710830492506004015b606483106120c5576064830492506002015b600a83106108de5760010192915050565b5f806120e5600161100061309f565b9092111592915050565b606082612104576120ff82612318565b61107b565b815115801561211b57506001600160a01b0384163b155b1561214457604051639996b31560e01b81526001600160a01b0385166004820152602401610afa565b508061107b565b5f81815260018301602052604081205461219057508154600181810184555f8481526020808220909301849055845484825282860190935260409020919091556108de565b505f6108de565b61219f612341565b611ad757604051631afcd79f60e31b815260040160405180910390fd5b5f81815260018301602052604081205480156119b1575f6121de60018361309f565b85549091505f906121f19060019061309f565b9050808214612250575f865f01828154811061220f5761220f612fd7565b905f5260205f200154905080875f01848154811061222f5761222f612fd7565b5f918252602080832090910192909255918252600188019052604090208390555b85548690806122615761226161342b565b600190038181905f5260205f20015f90559055856001015f8681526020019081526020015f205f9055600193505050506108de565b806001600160a01b03163b5f036122cb57604051634c9c8ce360e01b81526001600160a01b0382166004820152602401610afa565b5f8051602061344083398151915280546001600160a01b0319166001600160a01b0392909216919091179055565b3415611ad75760405163b398979f60e01b815260040160405180910390fd5b8051156123285780518082602001fd5b60405163d6bda27560e01b815260040160405180910390fd5b5f61234a611e43565b54600160401b900460ff16919050565b6001600160a01b038116811461114f575f80fd5b5f6020828403121561237e575f80fd5b813561107b8161235a565b5f60208284031215612399575f80fd5b81356001600160e01b03198116811461107b575f80fd5b80356123bb8161235a565b919050565b5f602082840312156123d0575f80fd5b5035919050565b5f80604083850312156123e8575f80fd5b8235915060208301356123fa8161235a565b809150509250929050565b5f805f805f60a08688031215612419575f80fd5b85356124248161235a565b945060208601359350604086013561243b8161235a565b9250606086013561244b8161235a565b949793965091946080013592915050565b634e487b7160e01b5f52604160045260245ffd5b60405161014081016001600160401b03811182821017156124935761249361245c565b60405290565b60405160c081016001600160401b03811182821017156124935761249361245c565b604051601f8201601f191681016001600160401b03811182821017156124e3576124e361245c565b604052919050565b5f6001600160401b038211156125035761250361245c565b50601f01601f191660200190565b5f8060408385031215612522575f80fd5b823561252d8161235a565b915060208301356001600160401b03811115612547575f80fd5b8301601f81018513612557575f80fd5b803561256a612565826124eb565b6124bb565b81815286602083850101111561257e575f80fd5b816020840160208301375f602083830101528093505050509250929050565b5f5b838110156125b757818101518382015260200161259f565b50505f910152565b5f81518084526125d681602086016020860161259d565b601f01601f19169290920160200192915050565b602081525f61107b60208301846125bf565b5f805f6040848603121561260e575f80fd5b83356126198161235a565b925060208401356001600160401b0380821115612634575f80fd5b818601915086601f830112612647575f80fd5b813581811115612655575f80fd5b876020828501011115612666575f80fd5b6020830194508093505050509250925092565b5f805f806080858703121561268c575f80fd5b84356126978161235a565b93506020850135925060408501356126ae8161235a565b9396929550929360600135925050565b5f60a082840312156126ce575f80fd5b60405160a081018181106001600160401b03821117156126f0576126f061245c565b806040525080915082358152602083013560208201526040830135604082015260608301356060820152608083013560808201525092915050565b5f805f610160848603121561273e575f80fd5b8335925061274f85602086016126be565b915061275e8560c086016126be565b90509250925092565b5f6001600160401b0382111561277f5761277f61245c565b5060051b60200190565b5f82601f830112612798575f80fd5b813560206127a861256583612767565b8083825260208201915060208460051b8701019350868411156127c9575f80fd5b602086015b848110156127e557803583529183019183016127ce565b509695505050505050565b5f8060408385031215612801575f80fd5b82356001600160401b03811115612816575f80fd5b61282285828601612789565b92505060208301356123fa8161235a565b5f60208083016020845280855180835260408601915060408160051b8701019250602087015f5b8281101561288857603f198886030184526128768583516125bf565b9450928501929085019060010161285a565b5092979650505050505050565b5f805f606084860312156128a7575f80fd5b8335925060208401356128b98161235a565b915060408401356128c98161235a565b809150509250925092565b5f805f606084860312156128e6575f80fd5b83356128f18161235a565b925060208401356129018161235a565b91506040840135600d81106128c9575f80fd5b5f805f806101808587031215612928575f80fd5b8435935061293986602087016126be565b92506129488660c087016126be565b91506101608501356129598161235a565b939692955090935050565b5f8060408385031215612975575f80fd5b82356129808161235a565b946020939093013593505050565b5f6020828403121561299e575f80fd5b81356001600160401b038111156129b3575f80fd5b610b4284828501612789565b5f805f606084860312156129d1575f80fd5b83356129dc8161235a565b925060208401356129ec8161235a565b929592945050506040919091013590565b5f8060208385031215612a0e575f80fd5b82356001600160401b0380821115612a24575f80fd5b818501915085601f830112612a37575f80fd5b813581811115612a45575f80fd5b8660208260051b8501011115612a59575f80fd5b60209290920196919550909350505050565b5f60208083016020845280855180835260408601915060408160051b8701019250602087015f5b8281101561288857603f19888603018452612aae8583516125bf565b94509285019290850190600101612a92565b5f60c08284031215612ad0575f80fd5b50919050565b5f805f808486036101c0811215612aeb575f80fd5b612af58787612ac0565b945060c08601356001600160401b03811115612b0f575f80fd5b612b1b88828901612ac0565b945050602060df1982011215612b2f575f80fd5b5060e085019150612b44866101008701612ac0565b905092959194509250565b803563ffffffff811681146123bb575f80fd5b5f6101408284031215612b73575f80fd5b612b7b612470565b612b84836123b0565b8152612b9260208401612b4f565b6020820152612ba360408401612b4f565b6040820152612bb4606084016123b0565b6060820152612bc5608084016123b0565b6080820152612bd660a084016123b0565b60a0820152612be760c084016123b0565b60c082015260e083013560e0820152610100808401358183015250610120612c108185016123b0565b908201529392505050565b5f8060408385031215612c2c575f80fd5b8235612c378161235a565b915060208301356123fa8161235a565b602080825282518282018190525f9190848201906040850190845b81811015612c875783516001600160a01b031683529284019291840191600101612c62565b50909695505050505050565b5f60208284031215612ca3575f80fd5b5051919050565b5f60208284031215612cba575f80fd5b8151801515811461107b575f80fd5b634e487b7160e01b5f52602160045260245ffd5b6001600160a01b03831681526040602080830182905283519183018290525f9184820191906060850190845b81811015612d2557845183529383019391830191600101612d09565b5090979650505050505050565b5f6020808385031215612d43575f80fd5b82516001600160401b0380821115612d59575f80fd5b9084019060c08287031215612d6c575f80fd5b612d74612499565b82518152838301518482015260408301516040820152606083015160608201526080830151608082015260a083015182811115612daf575f80fd5b80840193505086601f840112612dc3575f80fd5b82519150612dd361256583612767565b82815260059290921b83018401918481019088841115612df1575f80fd5b938501935b83851015612e0f57845182529385019390850190612df6565b60a0830152509695505050505050565b80516123bb8161235a565b5f610100808385031215612e3c575f80fd5b604051908101906001600160401b0382118183101715612e5e57612e5e61245c565b81604052835181526020840151602082015260408401519150612e808261235a565b816040820152612e9260608501612e1f565b6060820152612ea360808501612e1f565b6080820152612eb460a08501612e1f565b60a0820152612ec560c08501612e1f565b60c0820152612ed660e08501612e1f565b60e0820152949350505050565b5f60208284031215612ef3575f80fd5b81516001600160401b03811115612f08575f80fd5b8201601f81018413612f18575f80fd5b8051612f26612565826124eb565b818152856020838501011115612f3a575f80fd5b610a8882602083016020860161259d565b66029b4bd32903e160cd1b81525f8551612f6c816007850160208a0161259d565b8083019050620103e160ed1b8060078301528651612f9181600a850160208b0161259d565b600a92019182018190528551612fae81600d850160208a0161259d565b600d9201918201528351612fc981601084016020880161259d565b016010019695505050505050565b634e487b7160e01b5f52603260045260245ffd5b6001600160a01b038516815260208101849052610180810161303b604083018580518252602081015160208301526040810151604083015260608101516060830152608081015160808301525050565b825160e08301526020830151610100830152604083015161012083015260608301516101408301526080830151610160830152610a88565b634e487b7160e01b5f52601160045260245ffd5b5f6001820161309857613098613073565b5060010190565b818103818111156108de576108de613073565b5f808335601e198436030181126130c7575f80fd5b8301803591506001600160401b038211156130e0575f80fd5b6020019150368190038213156130f4575f80fd5b9250929050565b828482375f8382015f8152835161311681836020880161259d565b0195945050505050565b8183525f6001600160fb1b03831115613137575f80fd5b8260051b80836020870137939093016020019392505050565b80358252602081013560208301526040810135604083015260608101356060830152608081013560808301525f60a0820135601e19833603018112613193575f80fd5b82016020810190356001600160401b038111156131ae575f80fd5b8060051b36038213156131bf575f80fd5b60c060a0860152610a8860c086018284613120565b80356131df8161235a565b6001600160a01b031690915250565b80356131f98161235a565b6001600160a01b0390811683526020820135906132158261235a565b908116602084015260408201359061322c8261235a565b90811660408401526060820135906132438261235a565b908116606084015260808201359061325a8261235a565b908116608084015260a0820135906132718261235a565b80821660a085015250505050565b5f61020060018060a01b03808a1684528089166020850152873560408501526020880135606085015260408801356080850152606088013560a0850152608088013560c085015260a08801356132d48161235a565b1660e084015261010083018190526132ee81840187613150565b9150506132ff6101208301856131d4565b61330d6101408301846131ee565b979650505050505050565b5f60208284031215613328575f80fd5b815161107b8161235a565b81516001600160a01b031681526101408101602083015161335c602084018263ffffffff169052565b506040830151613374604084018263ffffffff169052565b50606083015161338f60608401826001600160a01b03169052565b5060808301516133aa60808401826001600160a01b03169052565b5060a08301516133c560a08401826001600160a01b03169052565b5060c08301516133e060c08401826001600160a01b03169052565b5060e083810151908301526101008084015190830152610120808401516001600160a01b03811682850152611327565b5f825161342181846020870161259d565b9190910192915050565b634e487b7160e01b5f52603160045260245ffdfe360894a13ba1a3210667c828492db98dca3e2076cc3735a920a3ca505d382bbc02dd7bc7dec4dceedda775e58dd541e08a116c6c53815c0bd028192f7b626800a2646970667358221220c21f83b8d7fa0bbca4b8e50f13274004428a22884f263b4863e3792771d824be64736f6c63430008170033","linkReferences":{"src/factory/libraries/MarketFactoryLibrary.sol":{"MarketFactoryLibrary":[{"start":5273,"length":20}]},"src/factory/libraries/NonTransferrableRebasingTokenVaultLibrary.sol":{"NonTransferrableRebasingTokenVaultLibrary":[{"start":6348,"length":20}]},"src/factory/libraries/PriceFeedFactoryLibrary.sol":{"PriceFeedFactoryLibrary":[{"start":5962,"length":20}]}}},"methodIdentifiers":{"DEFAULT_ADMIN_ROLE()":"a217fddf","UPGRADE_INTERFACE_VERSION()":"ad3cb1cc","authorizationNonces(address)":"81de274c","authorizations(uint256,address,address)":"7b8dedad","callMarket(address,bytes)":"5ec49544","collectionsManager()":"37c11b2a","createBorrowTokenVault(address,address)":"e8d353c7","createMarket((uint256,uint256,uint256,uint256,uint256,address),(uint256,uint256,uint256,uint256,uint256,uint256[]),(address),(address,address,address,address,address,address))":"b38dc258","createPriceFeed((address,uint32,uint32,address,address,address,address,uint256,uint256,address))":"d152e236","getBorrowOfferAPR(address,uint256,address,address,uint256)":"495e6d89","getLoanOfferAPR(address,uint256,address,address,uint256)":"5fb7f10c","getMarket(uint256)":"eb44fdd3","getMarketDescriptions()":"7643d7ec","getMarkets()":"ec2c9016","getMarketsCount()":"27fa35c3","getRoleAdmin(bytes32)":"248a9ca3","grantRole(bytes32,address)":"2f2ff15d","hasRole(bytes32,address)":"91d14854","initialize(address)":"c4d66de8","isAuthorized(address,address,uint8)":"86eeeb5a","isAuthorizedAll(address,address,uint256)":"a78ec6ae","isBorrowAPRLowerThanLoanOfferAPRs(address,uint256,address,uint256)":"678b9bad","isLoanAPRGreaterThanBorrowOfferAPRs(address,uint256,address,uint256)":"9feffdb0","isMarket(address)":"6ec934da","multicall(bytes[])":"ac9650d8","nonTransferrableTokenVaultImplementation()":"1286a2dc","proxiableUUID()":"52d1902d","removeMarket(address)":"db913236","renounceRole(bytes32,address)":"36568abe","revokeAllAuthorizations()":"a7b2b310","revokeRole(bytes32,address)":"d547741f","setAuthorization(address,uint256)":"91c769ce","setCollectionsManager(address)":"01a6c872","setNonTransferrableRebasingTokenVaultImplementation(address)":"1e4fcddb","setSizeImplementation(address)":"b4cd6bd1","setUserCollectionCopyLimitOrderConfigs(uint256,(uint256,uint256,uint256,uint256,int256),(uint256,uint256,uint256,uint256,int256))":"6ed41835","setUserCollectionCopyLimitOrderConfigsOnBehalfOf(uint256,(uint256,uint256,uint256,uint256,int256),(uint256,uint256,uint256,uint256,int256),address)":"88d76520","sizeImplementation()":"973cf867","subscribeToCollections(uint256[])":"c8fb6247","subscribeToCollectionsOnBehalfOf(uint256[],address)":"b1ef804d","supportsInterface(bytes4)":"01ffc9a7","unsubscribeFromCollections(uint256[])":"9e42bfa3","unsubscribeFromCollectionsOnBehalfOf(uint256[],address)":"732218f9","upgradeToAndCall(address,bytes)":"4f1ef286","version()":"54fd4d50"},"id":277}